{
	"contracts/event_organizer.sol": {
		"EventTicket": {
			"abi": [
				{
					"anonymous": false,
					"inputs": [
						{
							"indexed": true,
							"internalType": "uint256",
							"name": "eventId",
							"type": "uint256"
						},
						{
							"indexed": true,
							"internalType": "address",
							"name": "organizer",
							"type": "address"
						},
						{
							"indexed": false,
							"internalType": "string",
							"name": "name",
							"type": "string"
						},
						{
							"indexed": false,
							"internalType": "uint256",
							"name": "date",
							"type": "uint256"
						},
						{
							"indexed": false,
							"internalType": "uint256",
							"name": "price",
							"type": "uint256"
						},
						{
							"indexed": false,
							"internalType": "uint256",
							"name": "ticketCount",
							"type": "uint256"
						}
					],
					"name": "EventCreated",
					"type": "event"
				},
				{
					"anonymous": false,
					"inputs": [
						{
							"indexed": true,
							"internalType": "uint256",
							"name": "eventId",
							"type": "uint256"
						},
						{
							"indexed": true,
							"internalType": "address",
							"name": "buyer",
							"type": "address"
						},
						{
							"indexed": false,
							"internalType": "uint256",
							"name": "quantity",
							"type": "uint256"
						}
					],
					"name": "TicketPurchased",
					"type": "event"
				},
				{
					"anonymous": false,
					"inputs": [
						{
							"indexed": true,
							"internalType": "uint256",
							"name": "eventId",
							"type": "uint256"
						},
						{
							"indexed": true,
							"internalType": "address",
							"name": "from",
							"type": "address"
						},
						{
							"indexed": true,
							"internalType": "address",
							"name": "to",
							"type": "address"
						},
						{
							"indexed": false,
							"internalType": "uint256",
							"name": "quantity",
							"type": "uint256"
						}
					],
					"name": "TicketTransferred",
					"type": "event"
				},
				{
					"inputs": [
						{
							"internalType": "uint256",
							"name": "id",
							"type": "uint256"
						},
						{
							"internalType": "uint256",
							"name": "quantity",
							"type": "uint256"
						}
					],
					"name": "buyTicket",
					"outputs": [],
					"stateMutability": "payable",
					"type": "function"
				},
				{
					"inputs": [
						{
							"internalType": "string",
							"name": "name",
							"type": "string"
						},
						{
							"internalType": "uint256",
							"name": "date",
							"type": "uint256"
						},
						{
							"internalType": "uint256",
							"name": "price",
							"type": "uint256"
						},
						{
							"internalType": "uint256",
							"name": "ticketCount",
							"type": "uint256"
						}
					],
					"name": "createEvent",
					"outputs": [],
					"stateMutability": "nonpayable",
					"type": "function"
				},
				{
					"inputs": [
						{
							"internalType": "uint256",
							"name": "",
							"type": "uint256"
						}
					],
					"name": "events",
					"outputs": [
						{
							"internalType": "address",
							"name": "organizer",
							"type": "address"
						},
						{
							"internalType": "string",
							"name": "name",
							"type": "string"
						},
						{
							"internalType": "uint256",
							"name": "date",
							"type": "uint256"
						},
						{
							"internalType": "uint256",
							"name": "price",
							"type": "uint256"
						},
						{
							"internalType": "uint256",
							"name": "ticketCount",
							"type": "uint256"
						},
						{
							"internalType": "uint256",
							"name": "ticketRemain",
							"type": "uint256"
						}
					],
					"stateMutability": "view",
					"type": "function"
				},
				{
					"inputs": [
						{
							"internalType": "uint256",
							"name": "eventId",
							"type": "uint256"
						}
					],
					"name": "myTickets",
					"outputs": [
						{
							"internalType": "uint256",
							"name": "",
							"type": "uint256"
						}
					],
					"stateMutability": "view",
					"type": "function"
				},
				{
					"inputs": [],
					"name": "nextId",
					"outputs": [
						{
							"internalType": "uint256",
							"name": "",
							"type": "uint256"
						}
					],
					"stateMutability": "view",
					"type": "function"
				},
				{
					"inputs": [
						{
							"internalType": "address",
							"name": "",
							"type": "address"
						},
						{
							"internalType": "uint256",
							"name": "",
							"type": "uint256"
						}
					],
					"name": "tickets",
					"outputs": [
						{
							"internalType": "uint256",
							"name": "",
							"type": "uint256"
						}
					],
					"stateMutability": "view",
					"type": "function"
				},
				{
					"inputs": [
						{
							"internalType": "uint256",
							"name": "id",
							"type": "uint256"
						},
						{
							"internalType": "uint256",
							"name": "quantity",
							"type": "uint256"
						},
						{
							"internalType": "address",
							"name": "to",
							"type": "address"
						}
					],
					"name": "transferTicket",
					"outputs": [],
					"stateMutability": "nonpayable",
					"type": "function"
				}
			],
			"devdoc": {
				"kind": "dev",
				"methods": {},
				"version": 1
			},
			"evm": {
				"assembly": "    /* \"contracts/event_organizer.sol\":61:3557  contract EventTicket {... */\n  mstore(0x40, 0x80)\n  callvalue\n  dup1\n  iszero\n  tag_1\n  jumpi\n  revert(0x00, 0x00)\ntag_1:\n  pop\n  dataSize(sub_0)\n  dup1\n  dataOffset(sub_0)\n  0x00\n  codecopy\n  0x00\n  return\nstop\n\nsub_0: assembly {\n        /* \"contracts/event_organizer.sol\":61:3557  contract EventTicket {... */\n      mstore(0x40, 0x80)\n      jumpi(tag_1, lt(calldatasize, 0x04))\n      shr(0xe0, calldataload(0x00))\n      dup1\n      0x298ec208\n      gt\n      tag_9\n      jumpi\n      dup1\n      0x298ec208\n      eq\n      tag_5\n      jumpi\n      dup1\n      0x61b8ce8c\n      eq\n      tag_6\n      jumpi\n      dup1\n      0xdae7a13c\n      eq\n      tag_7\n      jumpi\n      dup1\n      0xf086a09b\n      eq\n      tag_8\n      jumpi\n      jump(tag_1)\n    tag_9:\n      dup1\n      0x0374ab0b\n      eq\n      tag_2\n      jumpi\n      dup1\n      0x0b791430\n      eq\n      tag_3\n      jumpi\n      dup1\n      0x28bd0a3d\n      eq\n      tag_4\n      jumpi\n    tag_1:\n      revert(0x00, 0x00)\n        /* \"contracts/event_organizer.sol\":1152:1866  function createEvent(... */\n    tag_2:\n      callvalue\n      dup1\n      iszero\n      tag_10\n      jumpi\n      revert(0x00, 0x00)\n    tag_10:\n      pop\n      tag_11\n      0x04\n      dup1\n      calldatasize\n      sub\n      dup2\n      add\n      swap1\n      tag_12\n      swap2\n      swap1\n      tag_13\n      jump\t// in\n    tag_12:\n      tag_14\n      jump\t// in\n    tag_11:\n      stop\n        /* \"contracts/event_organizer.sol\":414:453  mapping(uint256 => Event) public events */\n    tag_3:\n      callvalue\n      dup1\n      iszero\n      tag_15\n      jumpi\n      revert(0x00, 0x00)\n    tag_15:\n      pop\n      tag_16\n      0x04\n      dup1\n      calldatasize\n      sub\n      dup2\n      add\n      swap1\n      tag_17\n      swap2\n      swap1\n      tag_18\n      jump\t// in\n    tag_17:\n      tag_19\n      jump\t// in\n    tag_16:\n      mload(0x40)\n      tag_20\n      swap7\n      swap6\n      swap5\n      swap4\n      swap3\n      swap2\n      swap1\n      tag_21\n      jump\t// in\n    tag_20:\n      mload(0x40)\n      dup1\n      swap2\n      sub\n      swap1\n      return\n        /* \"contracts/event_organizer.sol\":3432:3554  function myTickets(uint256 eventId) external view returns (uint256) {... */\n    tag_4:\n      callvalue\n      dup1\n      iszero\n      tag_22\n      jumpi\n      revert(0x00, 0x00)\n    tag_22:\n      pop\n      tag_23\n      0x04\n      dup1\n      calldatasize\n      sub\n      dup2\n      add\n      swap1\n      tag_24\n      swap2\n      swap1\n      tag_18\n      jump\t// in\n    tag_24:\n      tag_25\n      jump\t// in\n    tag_23:\n      mload(0x40)\n      tag_26\n      swap2\n      swap1\n      tag_27\n      jump\t// in\n    tag_26:\n      mload(0x40)\n      dup1\n      swap2\n      sub\n      swap1\n      return\n        /* \"contracts/event_organizer.sol\":1874:2718  function buyTicket(uint256 id, uint256 quantity) external payable {... */\n    tag_5:\n      tag_28\n      0x04\n      dup1\n      calldatasize\n      sub\n      dup2\n      add\n      swap1\n      tag_29\n      swap2\n      swap1\n      tag_30\n      jump\t// in\n    tag_29:\n      tag_31\n      jump\t// in\n    tag_28:\n      stop\n        /* \"contracts/event_organizer.sol\":582:603  uint256 public nextId */\n    tag_6:\n      callvalue\n      dup1\n      iszero\n      tag_32\n      jumpi\n      revert(0x00, 0x00)\n    tag_32:\n      pop\n      tag_33\n      tag_34\n      jump\t// in\n    tag_33:\n      mload(0x40)\n      tag_35\n      swap2\n      swap1\n      tag_27\n      jump\t// in\n    tag_35:\n      mload(0x40)\n      dup1\n      swap2\n      sub\n      swap1\n      return\n        /* \"contracts/event_organizer.sol\":511:573  mapping(address => mapping(uint256 => uint256)) public tickets */\n    tag_7:\n      callvalue\n      dup1\n      iszero\n      tag_36\n      jumpi\n      revert(0x00, 0x00)\n    tag_36:\n      pop\n      tag_37\n      0x04\n      dup1\n      calldatasize\n      sub\n      dup2\n      add\n      swap1\n      tag_38\n      swap2\n      swap1\n      tag_39\n      jump\t// in\n    tag_38:\n      tag_40\n      jump\t// in\n    tag_37:\n      mload(0x40)\n      tag_41\n      swap2\n      swap1\n      tag_27\n      jump\t// in\n    tag_41:\n      mload(0x40)\n      dup1\n      swap2\n      sub\n      swap1\n      return\n        /* \"contracts/event_organizer.sol\":2726:3360  function transferTicket(uint256 id, uint256 quantity, address to) external {... */\n    tag_8:\n      callvalue\n      dup1\n      iszero\n      tag_42\n      jumpi\n      revert(0x00, 0x00)\n    tag_42:\n      pop\n      tag_43\n      0x04\n      dup1\n      calldatasize\n      sub\n      dup2\n      add\n      swap1\n      tag_44\n      swap2\n      swap1\n      tag_45\n      jump\t// in\n    tag_44:\n      tag_46\n      jump\t// in\n    tag_43:\n      stop\n        /* \"contracts/event_organizer.sol\":1152:1866  function createEvent(... */\n    tag_14:\n        /* \"contracts/event_organizer.sol\":1321:1336  block.timestamp */\n      timestamp\n        /* \"contracts/event_organizer.sol\":1314:1318  date */\n      dup4\n        /* \"contracts/event_organizer.sol\":1314:1336  date > block.timestamp */\n      gt\n        /* \"contracts/event_organizer.sol\":1306:1368  require(date > block.timestamp, \"Event must be in the future\") */\n      tag_48\n      jumpi\n      mload(0x40)\n      0x08c379a000000000000000000000000000000000000000000000000000000000\n      dup2\n      mstore\n      0x04\n      add\n      tag_49\n      swap1\n      tag_50\n      jump\t// in\n    tag_49:\n      mload(0x40)\n      dup1\n      swap2\n      sub\n      swap1\n      revert\n    tag_48:\n        /* \"contracts/event_organizer.sol\":1401:1402  0 */\n      0x00\n        /* \"contracts/event_organizer.sol\":1387:1398  ticketCount */\n      dup2\n        /* \"contracts/event_organizer.sol\":1387:1402  ticketCount > 0 */\n      gt\n        /* \"contracts/event_organizer.sol\":1379:1436  require(ticketCount > 0, \"Must create at least 1 ticket\") */\n      tag_51\n      jumpi\n      mload(0x40)\n      0x08c379a000000000000000000000000000000000000000000000000000000000\n      dup2\n      mstore\n      0x04\n      add\n      tag_52\n      swap1\n      tag_53\n      jump\t// in\n    tag_52:\n      mload(0x40)\n      dup1\n      swap2\n      sub\n      swap1\n      revert\n    tag_51:\n        /* \"contracts/event_organizer.sol\":1489:1504  uint256 eventId */\n      0x00\n        /* \"contracts/event_organizer.sol\":1507:1513  nextId */\n      sload(0x02)\n        /* \"contracts/event_organizer.sol\":1489:1513  uint256 eventId = nextId */\n      swap1\n      pop\n        /* \"contracts/event_organizer.sol\":1544:1754  Event({... */\n      mload(0x40)\n      dup1\n      0xc0\n      add\n      0x40\n      mstore\n      dup1\n        /* \"contracts/event_organizer.sol\":1576:1586  msg.sender */\n      caller\n        /* \"contracts/event_organizer.sol\":1544:1754  Event({... */\n      0xffffffffffffffffffffffffffffffffffffffff\n      and\n      dup2\n      mstore\n      0x20\n      add\n        /* \"contracts/event_organizer.sol\":1607:1611  name */\n      dup7\n        /* \"contracts/event_organizer.sol\":1544:1754  Event({... */\n      dup2\n      mstore\n      0x20\n      add\n        /* \"contracts/event_organizer.sol\":1632:1636  date */\n      dup6\n        /* \"contracts/event_organizer.sol\":1544:1754  Event({... */\n      dup2\n      mstore\n      0x20\n      add\n        /* \"contracts/event_organizer.sol\":1658:1663  price */\n      dup5\n        /* \"contracts/event_organizer.sol\":1544:1754  Event({... */\n      dup2\n      mstore\n      0x20\n      add\n        /* \"contracts/event_organizer.sol\":1691:1702  ticketCount */\n      dup4\n        /* \"contracts/event_organizer.sol\":1544:1754  Event({... */\n      dup2\n      mstore\n      0x20\n      add\n        /* \"contracts/event_organizer.sol\":1731:1742  ticketCount */\n      dup4\n        /* \"contracts/event_organizer.sol\":1544:1754  Event({... */\n      dup2\n      mstore\n      pop\n        /* \"contracts/event_organizer.sol\":1526:1532  events */\n      0x00\n        /* \"contracts/event_organizer.sol\":1526:1541  events[eventId] */\n      0x00\n        /* \"contracts/event_organizer.sol\":1533:1540  eventId */\n      dup4\n        /* \"contracts/event_organizer.sol\":1526:1541  events[eventId] */\n      dup2\n      mstore\n      0x20\n      add\n      swap1\n      dup2\n      mstore\n      0x20\n      add\n      0x00\n      keccak256\n        /* \"contracts/event_organizer.sol\":1526:1754  events[eventId] = Event({... */\n      0x00\n      dup3\n      add\n      mload\n      dup2\n      0x00\n      add\n      exp(0x0100, 0x00)\n      dup2\n      sload\n      dup2\n      0xffffffffffffffffffffffffffffffffffffffff\n      mul\n      not\n      and\n      swap1\n      dup4\n      0xffffffffffffffffffffffffffffffffffffffff\n      and\n      mul\n      or\n      swap1\n      sstore\n      pop\n      0x20\n      dup3\n      add\n      mload\n      dup2\n      0x01\n      add\n      swap1\n      dup2\n      tag_54\n      swap2\n      swap1\n      tag_55\n      jump\t// in\n    tag_54:\n      pop\n      0x40\n      dup3\n      add\n      mload\n      dup2\n      0x02\n      add\n      sstore\n      0x60\n      dup3\n      add\n      mload\n      dup2\n      0x03\n      add\n      sstore\n      0x80\n      dup3\n      add\n      mload\n      dup2\n      0x04\n      add\n      sstore\n      0xa0\n      dup3\n      add\n      mload\n      dup2\n      0x05\n      add\n      sstore\n      swap1\n      pop\n      pop\n        /* \"contracts/event_organizer.sol\":1769:1775  nextId */\n      0x02\n      0x00\n        /* \"contracts/event_organizer.sol\":1767:1775  ++nextId */\n      dup2\n      sload\n      tag_56\n      swap1\n      tag_57\n      jump\t// in\n    tag_56:\n      swap2\n      swap1\n      pop\n      dup2\n      swap1\n      sstore\n      pop\n        /* \"contracts/event_organizer.sol\":1815:1825  msg.sender */\n      caller\n        /* \"contracts/event_organizer.sol\":1793:1858  EventCreated(eventId, msg.sender, name, date, price, ticketCount) */\n      0xffffffffffffffffffffffffffffffffffffffff\n      and\n        /* \"contracts/event_organizer.sol\":1806:1813  eventId */\n      dup2\n        /* \"contracts/event_organizer.sol\":1793:1858  EventCreated(eventId, msg.sender, name, date, price, ticketCount) */\n      0x502bb4a70fbdfd0aa0d94a5600024efa4814e325c02c38409f206cdd72d6af\n        /* \"contracts/event_organizer.sol\":1827:1831  name */\n      dup8\n        /* \"contracts/event_organizer.sol\":1833:1837  date */\n      dup8\n        /* \"contracts/event_organizer.sol\":1839:1844  price */\n      dup8\n        /* \"contracts/event_organizer.sol\":1846:1857  ticketCount */\n      dup8\n        /* \"contracts/event_organizer.sol\":1793:1858  EventCreated(eventId, msg.sender, name, date, price, ticketCount) */\n      mload(0x40)\n      tag_58\n      swap5\n      swap4\n      swap3\n      swap2\n      swap1\n      tag_59\n      jump\t// in\n    tag_58:\n      mload(0x40)\n      dup1\n      swap2\n      sub\n      swap1\n      log3\n        /* \"contracts/event_organizer.sol\":1295:1866  {... */\n      pop\n        /* \"contracts/event_organizer.sol\":1152:1866  function createEvent(... */\n      pop\n      pop\n      pop\n      pop\n      jump\t// out\n        /* \"contracts/event_organizer.sol\":414:453  mapping(uint256 => Event) public events */\n    tag_19:\n      mstore(0x20, 0x00)\n      dup1\n      0x00\n      mstore\n      keccak256(0x00, 0x40)\n      0x00\n      swap2\n      pop\n      swap1\n      pop\n      dup1\n      0x00\n      add\n      0x00\n      swap1\n      sload\n      swap1\n      0x0100\n      exp\n      swap1\n      div\n      0xffffffffffffffffffffffffffffffffffffffff\n      and\n      swap1\n      dup1\n      0x01\n      add\n      dup1\n      sload\n      tag_60\n      swap1\n      tag_61\n      jump\t// in\n    tag_60:\n      dup1\n      0x1f\n      add\n      0x20\n      dup1\n      swap2\n      div\n      mul\n      0x20\n      add\n      mload(0x40)\n      swap1\n      dup2\n      add\n      0x40\n      mstore\n      dup1\n      swap3\n      swap2\n      swap1\n      dup2\n      dup2\n      mstore\n      0x20\n      add\n      dup3\n      dup1\n      sload\n      tag_62\n      swap1\n      tag_61\n      jump\t// in\n    tag_62:\n      dup1\n      iszero\n      tag_63\n      jumpi\n      dup1\n      0x1f\n      lt\n      tag_64\n      jumpi\n      0x0100\n      dup1\n      dup4\n      sload\n      div\n      mul\n      dup4\n      mstore\n      swap2\n      0x20\n      add\n      swap2\n      jump(tag_63)\n    tag_64:\n      dup3\n      add\n      swap2\n      swap1\n      0x00\n      mstore\n      keccak256(0x00, 0x20)\n      swap1\n    tag_65:\n      dup2\n      sload\n      dup2\n      mstore\n      swap1\n      0x01\n      add\n      swap1\n      0x20\n      add\n      dup1\n      dup4\n      gt\n      tag_65\n      jumpi\n      dup3\n      swap1\n      sub\n      0x1f\n      and\n      dup3\n      add\n      swap2\n    tag_63:\n      pop\n      pop\n      pop\n      pop\n      pop\n      swap1\n      dup1\n      0x02\n      add\n      sload\n      swap1\n      dup1\n      0x03\n      add\n      sload\n      swap1\n      dup1\n      0x04\n      add\n      sload\n      swap1\n      dup1\n      0x05\n      add\n      sload\n      swap1\n      pop\n      dup7\n      jump\t// out\n        /* \"contracts/event_organizer.sol\":3432:3554  function myTickets(uint256 eventId) external view returns (uint256) {... */\n    tag_25:\n        /* \"contracts/event_organizer.sol\":3491:3498  uint256 */\n      0x00\n        /* \"contracts/event_organizer.sol\":3518:3525  tickets */\n      0x01\n        /* \"contracts/event_organizer.sol\":3518:3537  tickets[msg.sender] */\n      0x00\n        /* \"contracts/event_organizer.sol\":3526:3536  msg.sender */\n      caller\n        /* \"contracts/event_organizer.sol\":3518:3537  tickets[msg.sender] */\n      0xffffffffffffffffffffffffffffffffffffffff\n      and\n      0xffffffffffffffffffffffffffffffffffffffff\n      and\n      dup2\n      mstore\n      0x20\n      add\n      swap1\n      dup2\n      mstore\n      0x20\n      add\n      0x00\n      keccak256\n        /* \"contracts/event_organizer.sol\":3518:3546  tickets[msg.sender][eventId] */\n      0x00\n        /* \"contracts/event_organizer.sol\":3538:3545  eventId */\n      dup4\n        /* \"contracts/event_organizer.sol\":3518:3546  tickets[msg.sender][eventId] */\n      dup2\n      mstore\n      0x20\n      add\n      swap1\n      dup2\n      mstore\n      0x20\n      add\n      0x00\n      keccak256\n      sload\n        /* \"contracts/event_organizer.sol\":3511:3546  return tickets[msg.sender][eventId] */\n      swap1\n      pop\n        /* \"contracts/event_organizer.sol\":3432:3554  function myTickets(uint256 eventId) external view returns (uint256) {... */\n      swap2\n      swap1\n      pop\n      jump\t// out\n        /* \"contracts/event_organizer.sol\":1874:2718  function buyTicket(uint256 id, uint256 quantity) external payable {... */\n    tag_31:\n        /* \"contracts/event_organizer.sol\":1951:1966  Event storage e */\n      0x00\n        /* \"contracts/event_organizer.sol\":1969:1975  events */\n      0x00\n        /* \"contracts/event_organizer.sol\":1969:1979  events[id] */\n      0x00\n        /* \"contracts/event_organizer.sol\":1976:1978  id */\n      dup5\n        /* \"contracts/event_organizer.sol\":1969:1979  events[id] */\n      dup2\n      mstore\n      0x20\n      add\n      swap1\n      dup2\n      mstore\n      0x20\n      add\n      0x00\n      keccak256\n        /* \"contracts/event_organizer.sol\":1951:1979  Event storage e = events[id] */\n      swap1\n      pop\n        /* \"contracts/event_organizer.sol\":2023:2024  0 */\n      0x00\n        /* \"contracts/event_organizer.sol\":2000:2025  e.organizer != address(0) */\n      0xffffffffffffffffffffffffffffffffffffffff\n      and\n        /* \"contracts/event_organizer.sol\":2000:2001  e */\n      dup2\n        /* \"contracts/event_organizer.sol\":2000:2011  e.organizer */\n      0x00\n      add\n      0x00\n      swap1\n      sload\n      swap1\n      0x0100\n      exp\n      swap1\n      div\n      0xffffffffffffffffffffffffffffffffffffffff\n      and\n        /* \"contracts/event_organizer.sol\":2000:2025  e.organizer != address(0) */\n      0xffffffffffffffffffffffffffffffffffffffff\n      and\n      sub\n        /* \"contracts/event_organizer.sol\":1992:2050  require(e.organizer != address(0), \"Event does not exist\") */\n      tag_68\n      jumpi\n      mload(0x40)\n      0x08c379a000000000000000000000000000000000000000000000000000000000\n      dup2\n      mstore\n      0x04\n      add\n      tag_69\n      swap1\n      tag_70\n      jump\t// in\n    tag_69:\n      mload(0x40)\n      dup1\n      swap2\n      sub\n      swap1\n      revert\n    tag_68:\n        /* \"contracts/event_organizer.sol\":2078:2093  block.timestamp */\n      timestamp\n        /* \"contracts/event_organizer.sol\":2069:2070  e */\n      dup2\n        /* \"contracts/event_organizer.sol\":2069:2075  e.date */\n      0x02\n      add\n      sload\n        /* \"contracts/event_organizer.sol\":2069:2093  e.date > block.timestamp */\n      gt\n        /* \"contracts/event_organizer.sol\":2061:2122  require(e.date > block.timestamp, \"Event has already passed\") */\n      tag_71\n      jumpi\n      mload(0x40)\n      0x08c379a000000000000000000000000000000000000000000000000000000000\n      dup2\n      mstore\n      0x04\n      add\n      tag_72\n      swap1\n      tag_73\n      jump\t// in\n    tag_72:\n      mload(0x40)\n      dup1\n      swap2\n      sub\n      swap1\n      revert\n    tag_71:\n        /* \"contracts/event_organizer.sol\":2152:2153  0 */\n      0x00\n        /* \"contracts/event_organizer.sol\":2141:2149  quantity */\n      dup3\n        /* \"contracts/event_organizer.sol\":2141:2153  quantity > 0 */\n      gt\n        /* \"contracts/event_organizer.sol\":2133:2184  require(quantity > 0, \"Must buy at least 1 ticket\") */\n      tag_74\n      jumpi\n      mload(0x40)\n      0x08c379a000000000000000000000000000000000000000000000000000000000\n      dup2\n      mstore\n      0x04\n      add\n      tag_75\n      swap1\n      tag_76\n      jump\t// in\n    tag_75:\n      mload(0x40)\n      dup1\n      swap2\n      sub\n      swap1\n      revert\n    tag_74:\n        /* \"contracts/event_organizer.sol\":2221:2229  quantity */\n      dup2\n        /* \"contracts/event_organizer.sol\":2203:2204  e */\n      dup2\n        /* \"contracts/event_organizer.sol\":2203:2217  e.ticketRemain */\n      0x05\n      add\n      sload\n        /* \"contracts/event_organizer.sol\":2203:2229  e.ticketRemain >= quantity */\n      lt\n      iszero\n        /* \"contracts/event_organizer.sol\":2195:2262  require(e.ticketRemain >= quantity, \"Not enough tickets remaining\") */\n      tag_77\n      jumpi\n      mload(0x40)\n      0x08c379a000000000000000000000000000000000000000000000000000000000\n      dup2\n      mstore\n      0x04\n      add\n      tag_78\n      swap1\n      tag_79\n      jump\t// in\n    tag_78:\n      mload(0x40)\n      dup1\n      swap2\n      sub\n      swap1\n      revert\n    tag_77:\n        /* \"contracts/event_organizer.sol\":2275:2292  uint256 totalCost */\n      0x00\n        /* \"contracts/event_organizer.sol\":2305:2313  quantity */\n      dup3\n        /* \"contracts/event_organizer.sol\":2295:2296  e */\n      dup3\n        /* \"contracts/event_organizer.sol\":2295:2302  e.price */\n      0x03\n      add\n      sload\n        /* \"contracts/event_organizer.sol\":2295:2313  e.price * quantity */\n      tag_80\n      swap2\n      swap1\n      tag_81\n      jump\t// in\n    tag_80:\n        /* \"contracts/event_organizer.sol\":2275:2313  uint256 totalCost = e.price * quantity */\n      swap1\n      pop\n        /* \"contracts/event_organizer.sol\":2345:2354  totalCost */\n      dup1\n        /* \"contracts/event_organizer.sol\":2332:2341  msg.value */\n      callvalue\n        /* \"contracts/event_organizer.sol\":2332:2354  msg.value == totalCost */\n      eq\n        /* \"contracts/event_organizer.sol\":2324:2383  require(msg.value == totalCost, \"Incorrect payment amount\") */\n      tag_82\n      jumpi\n      mload(0x40)\n      0x08c379a000000000000000000000000000000000000000000000000000000000\n      dup2\n      mstore\n      0x04\n      add\n      tag_83\n      swap1\n      tag_84\n      jump\t// in\n    tag_83:\n      mload(0x40)\n      dup1\n      swap2\n      sub\n      swap1\n      revert\n    tag_82:\n        /* \"contracts/event_organizer.sol\":2414:2422  quantity */\n      dup3\n        /* \"contracts/event_organizer.sol\":2396:2397  e */\n      dup3\n        /* \"contracts/event_organizer.sol\":2396:2410  e.ticketRemain */\n      0x05\n      add\n      0x00\n        /* \"contracts/event_organizer.sol\":2396:2422  e.ticketRemain -= quantity */\n      dup3\n      dup3\n      sload\n      tag_85\n      swap2\n      swap1\n      tag_86\n      jump\t// in\n    tag_85:\n      swap3\n      pop\n      pop\n      dup2\n      swap1\n      sstore\n      pop\n        /* \"contracts/event_organizer.sol\":2460:2468  quantity */\n      dup3\n        /* \"contracts/event_organizer.sol\":2433:2440  tickets */\n      0x01\n        /* \"contracts/event_organizer.sol\":2433:2452  tickets[msg.sender] */\n      0x00\n        /* \"contracts/event_organizer.sol\":2441:2451  msg.sender */\n      caller\n        /* \"contracts/event_organizer.sol\":2433:2452  tickets[msg.sender] */\n      0xffffffffffffffffffffffffffffffffffffffff\n      and\n      0xffffffffffffffffffffffffffffffffffffffff\n      and\n      dup2\n      mstore\n      0x20\n      add\n      swap1\n      dup2\n      mstore\n      0x20\n      add\n      0x00\n      keccak256\n        /* \"contracts/event_organizer.sol\":2433:2456  tickets[msg.sender][id] */\n      0x00\n        /* \"contracts/event_organizer.sol\":2453:2455  id */\n      dup7\n        /* \"contracts/event_organizer.sol\":2433:2456  tickets[msg.sender][id] */\n      dup2\n      mstore\n      0x20\n      add\n      swap1\n      dup2\n      mstore\n      0x20\n      add\n      0x00\n      keccak256\n      0x00\n        /* \"contracts/event_organizer.sol\":2433:2468  tickets[msg.sender][id] += quantity */\n      dup3\n      dup3\n      sload\n      tag_87\n      swap2\n      swap1\n      tag_88\n      jump\t// in\n    tag_87:\n      swap3\n      pop\n      pop\n      dup2\n      swap1\n      sstore\n      pop\n        /* \"contracts/event_organizer.sol\":2547:2556  bool sent */\n      0x00\n        /* \"contracts/event_organizer.sol\":2570:2571  e */\n      dup3\n        /* \"contracts/event_organizer.sol\":2570:2581  e.organizer */\n      0x00\n      add\n      0x00\n      swap1\n      sload\n      swap1\n      0x0100\n      exp\n      swap1\n      div\n      0xffffffffffffffffffffffffffffffffffffffff\n      and\n        /* \"contracts/event_organizer.sol\":2562:2587  payable(e.organizer).call */\n      0xffffffffffffffffffffffffffffffffffffffff\n      and\n        /* \"contracts/event_organizer.sol\":2595:2604  totalCost */\n      dup3\n        /* \"contracts/event_organizer.sol\":2562:2609  payable(e.organizer).call{value: totalCost}(\"\") */\n      mload(0x40)\n      tag_89\n      swap1\n      tag_90\n      jump\t// in\n    tag_89:\n      0x00\n      mload(0x40)\n      dup1\n      dup4\n      sub\n      dup2\n      dup6\n      dup8\n      gas\n      call\n      swap3\n      pop\n      pop\n      pop\n      returndatasize\n      dup1\n      0x00\n      dup2\n      eq\n      tag_93\n      jumpi\n      mload(0x40)\n      swap2\n      pop\n      and(add(returndatasize, 0x3f), not(0x1f))\n      dup3\n      add\n      0x40\n      mstore\n      returndatasize\n      dup3\n      mstore\n      returndatasize\n      0x00\n      0x20\n      dup5\n      add\n      returndatacopy\n      jump(tag_92)\n    tag_93:\n      0x60\n      swap2\n      pop\n    tag_92:\n      pop\n        /* \"contracts/event_organizer.sol\":2546:2609  (bool sent, ) = payable(e.organizer).call{value: totalCost}(\"\") */\n      pop\n      swap1\n      pop\n        /* \"contracts/event_organizer.sol\":2628:2632  sent */\n      dup1\n        /* \"contracts/event_organizer.sol\":2620:2651  require(sent, \"Payment failed\") */\n      tag_94\n      jumpi\n      mload(0x40)\n      0x08c379a000000000000000000000000000000000000000000000000000000000\n      dup2\n      mstore\n      0x04\n      add\n      tag_95\n      swap1\n      tag_96\n      jump\t// in\n    tag_95:\n      mload(0x40)\n      dup1\n      swap2\n      sub\n      swap1\n      revert\n    tag_94:\n        /* \"contracts/event_organizer.sol\":2689:2699  msg.sender */\n      caller\n        /* \"contracts/event_organizer.sol\":2669:2710  TicketPurchased(id, msg.sender, quantity) */\n      0xffffffffffffffffffffffffffffffffffffffff\n      and\n        /* \"contracts/event_organizer.sol\":2685:2687  id */\n      dup6\n        /* \"contracts/event_organizer.sol\":2669:2710  TicketPurchased(id, msg.sender, quantity) */\n      0xdbaaf4c87ce30816c961a81d110622a3227ede77953d4383d514ff88ab2e0fd3\n        /* \"contracts/event_organizer.sol\":2701:2709  quantity */\n      dup7\n        /* \"contracts/event_organizer.sol\":2669:2710  TicketPurchased(id, msg.sender, quantity) */\n      mload(0x40)\n      tag_97\n      swap2\n      swap1\n      tag_27\n      jump\t// in\n    tag_97:\n      mload(0x40)\n      dup1\n      swap2\n      sub\n      swap1\n      log3\n        /* \"contracts/event_organizer.sol\":1940:2718  {... */\n      pop\n      pop\n      pop\n        /* \"contracts/event_organizer.sol\":1874:2718  function buyTicket(uint256 id, uint256 quantity) external payable {... */\n      pop\n      pop\n      jump\t// out\n        /* \"contracts/event_organizer.sol\":582:603  uint256 public nextId */\n    tag_34:\n      sload(0x02)\n      dup2\n      jump\t// out\n        /* \"contracts/event_organizer.sol\":511:573  mapping(address => mapping(uint256 => uint256)) public tickets */\n    tag_40:\n      mstore(0x20, 0x01)\n      dup2\n      0x00\n      mstore\n      mstore(0x20, keccak256(0x00, 0x40))\n      dup1\n      0x00\n      mstore\n      keccak256(0x00, 0x40)\n      0x00\n      swap2\n      pop\n      swap2\n      pop\n      pop\n      sload\n      dup2\n      jump\t// out\n        /* \"contracts/event_organizer.sol\":2726:3360  function transferTicket(uint256 id, uint256 quantity, address to) external {... */\n    tag_46:\n        /* \"contracts/event_organizer.sol\":2834:2835  0 */\n      0x00\n        /* \"contracts/event_organizer.sol\":2820:2836  to != address(0) */\n      0xffffffffffffffffffffffffffffffffffffffff\n      and\n        /* \"contracts/event_organizer.sol\":2820:2822  to */\n      dup2\n        /* \"contracts/event_organizer.sol\":2820:2836  to != address(0) */\n      0xffffffffffffffffffffffffffffffffffffffff\n      and\n      sub\n        /* \"contracts/event_organizer.sol\":2812:2858  require(to != address(0), \"Invalid recipient\") */\n      tag_99\n      jumpi\n      mload(0x40)\n      0x08c379a000000000000000000000000000000000000000000000000000000000\n      dup2\n      mstore\n      0x04\n      add\n      tag_100\n      swap1\n      tag_101\n      jump\t// in\n    tag_100:\n      mload(0x40)\n      dup1\n      swap2\n      sub\n      swap1\n      revert\n    tag_99:\n        /* \"contracts/event_organizer.sol\":2888:2889  0 */\n      0x00\n        /* \"contracts/event_organizer.sol\":2877:2885  quantity */\n      dup3\n        /* \"contracts/event_organizer.sol\":2877:2889  quantity > 0 */\n      gt\n        /* \"contracts/event_organizer.sol\":2869:2925  require(quantity > 0, \"Must transfer at least 1 ticket\") */\n      tag_102\n      jumpi\n      mload(0x40)\n      0x08c379a000000000000000000000000000000000000000000000000000000000\n      dup2\n      mstore\n      0x04\n      add\n      tag_103\n      swap1\n      tag_104\n      jump\t// in\n    tag_103:\n      mload(0x40)\n      dup1\n      swap2\n      sub\n      swap1\n      revert\n    tag_102:\n        /* \"contracts/event_organizer.sol\":2938:2953  Event storage e */\n      0x00\n        /* \"contracts/event_organizer.sol\":2956:2962  events */\n      0x00\n        /* \"contracts/event_organizer.sol\":2956:2966  events[id] */\n      0x00\n        /* \"contracts/event_organizer.sol\":2963:2965  id */\n      dup6\n        /* \"contracts/event_organizer.sol\":2956:2966  events[id] */\n      dup2\n      mstore\n      0x20\n      add\n      swap1\n      dup2\n      mstore\n      0x20\n      add\n      0x00\n      keccak256\n        /* \"contracts/event_organizer.sol\":2938:2966  Event storage e = events[id] */\n      swap1\n      pop\n        /* \"contracts/event_organizer.sol\":3008:3009  0 */\n      0x00\n        /* \"contracts/event_organizer.sol\":2985:3010  e.organizer != address(0) */\n      0xffffffffffffffffffffffffffffffffffffffff\n      and\n        /* \"contracts/event_organizer.sol\":2985:2986  e */\n      dup2\n        /* \"contracts/event_organizer.sol\":2985:2996  e.organizer */\n      0x00\n      add\n      0x00\n      swap1\n      sload\n      swap1\n      0x0100\n      exp\n      swap1\n      div\n      0xffffffffffffffffffffffffffffffffffffffff\n      and\n        /* \"contracts/event_organizer.sol\":2985:3010  e.organizer != address(0) */\n      0xffffffffffffffffffffffffffffffffffffffff\n      and\n      sub\n        /* \"contracts/event_organizer.sol\":2977:3035  require(e.organizer != address(0), \"Event does not exist\") */\n      tag_105\n      jumpi\n      mload(0x40)\n      0x08c379a000000000000000000000000000000000000000000000000000000000\n      dup2\n      mstore\n      0x04\n      add\n      tag_106\n      swap1\n      tag_70\n      jump\t// in\n    tag_106:\n      mload(0x40)\n      dup1\n      swap2\n      sub\n      swap1\n      revert\n    tag_105:\n        /* \"contracts/event_organizer.sol\":3063:3078  block.timestamp */\n      timestamp\n        /* \"contracts/event_organizer.sol\":3054:3055  e */\n      dup2\n        /* \"contracts/event_organizer.sol\":3054:3060  e.date */\n      0x02\n      add\n      sload\n        /* \"contracts/event_organizer.sol\":3054:3078  e.date > block.timestamp */\n      gt\n        /* \"contracts/event_organizer.sol\":3046:3110  require(e.date > block.timestamp, \"Cannot transfer after event\") */\n      tag_107\n      jumpi\n      mload(0x40)\n      0x08c379a000000000000000000000000000000000000000000000000000000000\n      dup2\n      mstore\n      0x04\n      add\n      tag_108\n      swap1\n      tag_109\n      jump\t// in\n    tag_108:\n      mload(0x40)\n      dup1\n      swap2\n      sub\n      swap1\n      revert\n    tag_107:\n        /* \"contracts/event_organizer.sol\":3158:3166  quantity */\n      dup3\n        /* \"contracts/event_organizer.sol\":3131:3138  tickets */\n      0x01\n        /* \"contracts/event_organizer.sol\":3131:3150  tickets[msg.sender] */\n      0x00\n        /* \"contracts/event_organizer.sol\":3139:3149  msg.sender */\n      caller\n        /* \"contracts/event_organizer.sol\":3131:3150  tickets[msg.sender] */\n      0xffffffffffffffffffffffffffffffffffffffff\n      and\n      0xffffffffffffffffffffffffffffffffffffffff\n      and\n      dup2\n      mstore\n      0x20\n      add\n      swap1\n      dup2\n      mstore\n      0x20\n      add\n      0x00\n      keccak256\n        /* \"contracts/event_organizer.sol\":3131:3154  tickets[msg.sender][id] */\n      0x00\n        /* \"contracts/event_organizer.sol\":3151:3153  id */\n      dup7\n        /* \"contracts/event_organizer.sol\":3131:3154  tickets[msg.sender][id] */\n      dup2\n      mstore\n      0x20\n      add\n      swap1\n      dup2\n      mstore\n      0x20\n      add\n      0x00\n      keccak256\n      sload\n        /* \"contracts/event_organizer.sol\":3131:3166  tickets[msg.sender][id] >= quantity */\n      lt\n      iszero\n        /* \"contracts/event_organizer.sol\":3123:3201  require(tickets[msg.sender][id] >= quantity, \"Not enough tickets to transfer\") */\n      tag_110\n      jumpi\n      mload(0x40)\n      0x08c379a000000000000000000000000000000000000000000000000000000000\n      dup2\n      mstore\n      0x04\n      add\n      tag_111\n      swap1\n      tag_112\n      jump\t// in\n    tag_111:\n      mload(0x40)\n      dup1\n      swap2\n      sub\n      swap1\n      revert\n    tag_110:\n        /* \"contracts/event_organizer.sol\":3241:3249  quantity */\n      dup3\n        /* \"contracts/event_organizer.sol\":3214:3221  tickets */\n      0x01\n        /* \"contracts/event_organizer.sol\":3214:3233  tickets[msg.sender] */\n      0x00\n        /* \"contracts/event_organizer.sol\":3222:3232  msg.sender */\n      caller\n        /* \"contracts/event_organizer.sol\":3214:3233  tickets[msg.sender] */\n      0xffffffffffffffffffffffffffffffffffffffff\n      and\n      0xffffffffffffffffffffffffffffffffffffffff\n      and\n      dup2\n      mstore\n      0x20\n      add\n      swap1\n      dup2\n      mstore\n      0x20\n      add\n      0x00\n      keccak256\n        /* \"contracts/event_organizer.sol\":3214:3237  tickets[msg.sender][id] */\n      0x00\n        /* \"contracts/event_organizer.sol\":3234:3236  id */\n      dup7\n        /* \"contracts/event_organizer.sol\":3214:3237  tickets[msg.sender][id] */\n      dup2\n      mstore\n      0x20\n      add\n      swap1\n      dup2\n      mstore\n      0x20\n      add\n      0x00\n      keccak256\n      0x00\n        /* \"contracts/event_organizer.sol\":3214:3249  tickets[msg.sender][id] -= quantity */\n      dup3\n      dup3\n      sload\n      tag_113\n      swap2\n      swap1\n      tag_86\n      jump\t// in\n    tag_113:\n      swap3\n      pop\n      pop\n      dup2\n      swap1\n      sstore\n      pop\n        /* \"contracts/event_organizer.sol\":3279:3287  quantity */\n      dup3\n        /* \"contracts/event_organizer.sol\":3260:3267  tickets */\n      0x01\n        /* \"contracts/event_organizer.sol\":3260:3271  tickets[to] */\n      0x00\n        /* \"contracts/event_organizer.sol\":3268:3270  to */\n      dup5\n        /* \"contracts/event_organizer.sol\":3260:3271  tickets[to] */\n      0xffffffffffffffffffffffffffffffffffffffff\n      and\n      0xffffffffffffffffffffffffffffffffffffffff\n      and\n      dup2\n      mstore\n      0x20\n      add\n      swap1\n      dup2\n      mstore\n      0x20\n      add\n      0x00\n      keccak256\n        /* \"contracts/event_organizer.sol\":3260:3275  tickets[to][id] */\n      0x00\n        /* \"contracts/event_organizer.sol\":3272:3274  id */\n      dup7\n        /* \"contracts/event_organizer.sol\":3260:3275  tickets[to][id] */\n      dup2\n      mstore\n      0x20\n      add\n      swap1\n      dup2\n      mstore\n      0x20\n      add\n      0x00\n      keccak256\n      0x00\n        /* \"contracts/event_organizer.sol\":3260:3287  tickets[to][id] += quantity */\n      dup3\n      dup3\n      sload\n      tag_114\n      swap2\n      swap1\n      tag_88\n      jump\t// in\n    tag_114:\n      swap3\n      pop\n      pop\n      dup2\n      swap1\n      sstore\n      pop\n        /* \"contracts/event_organizer.sol\":3339:3341  to */\n      dup2\n        /* \"contracts/event_organizer.sol\":3305:3352  TicketTransferred(id, msg.sender, to, quantity) */\n      0xffffffffffffffffffffffffffffffffffffffff\n      and\n        /* \"contracts/event_organizer.sol\":3327:3337  msg.sender */\n      caller\n        /* \"contracts/event_organizer.sol\":3305:3352  TicketTransferred(id, msg.sender, to, quantity) */\n      0xffffffffffffffffffffffffffffffffffffffff\n      and\n        /* \"contracts/event_organizer.sol\":3323:3325  id */\n      dup6\n        /* \"contracts/event_organizer.sol\":3305:3352  TicketTransferred(id, msg.sender, to, quantity) */\n      0xdfc4c991a34be4b2f90df7c348d98b17393713ef48853d9071cf19d4687a6a36\n        /* \"contracts/event_organizer.sol\":3343:3351  quantity */\n      dup7\n        /* \"contracts/event_organizer.sol\":3305:3352  TicketTransferred(id, msg.sender, to, quantity) */\n      mload(0x40)\n      tag_115\n      swap2\n      swap1\n      tag_27\n      jump\t// in\n    tag_115:\n      mload(0x40)\n      dup1\n      swap2\n      sub\n      swap1\n      log4\n        /* \"contracts/event_organizer.sol\":2801:3360  {... */\n      pop\n        /* \"contracts/event_organizer.sol\":2726:3360  function transferTicket(uint256 id, uint256 quantity, address to) external {... */\n      pop\n      pop\n      pop\n      jump\t// out\n        /* \"#utility.yul\":7:82   */\n    tag_116:\n        /* \"#utility.yul\":40:46   */\n      0x00\n        /* \"#utility.yul\":73:75   */\n      0x40\n        /* \"#utility.yul\":67:76   */\n      mload\n        /* \"#utility.yul\":57:76   */\n      swap1\n      pop\n        /* \"#utility.yul\":7:82   */\n      swap1\n      jump\t// out\n        /* \"#utility.yul\":88:205   */\n    tag_117:\n        /* \"#utility.yul\":197:198   */\n      0x00\n        /* \"#utility.yul\":194:195   */\n      0x00\n        /* \"#utility.yul\":187:199   */\n      revert\n        /* \"#utility.yul\":211:328   */\n    tag_118:\n        /* \"#utility.yul\":320:321   */\n      0x00\n        /* \"#utility.yul\":317:318   */\n      0x00\n        /* \"#utility.yul\":310:322   */\n      revert\n        /* \"#utility.yul\":334:451   */\n    tag_119:\n        /* \"#utility.yul\":443:444   */\n      0x00\n        /* \"#utility.yul\":440:441   */\n      0x00\n        /* \"#utility.yul\":433:445   */\n      revert\n        /* \"#utility.yul\":457:574   */\n    tag_120:\n        /* \"#utility.yul\":566:567   */\n      0x00\n        /* \"#utility.yul\":563:564   */\n      0x00\n        /* \"#utility.yul\":556:568   */\n      revert\n        /* \"#utility.yul\":580:682   */\n    tag_121:\n        /* \"#utility.yul\":621:627   */\n      0x00\n        /* \"#utility.yul\":672:674   */\n      0x1f\n        /* \"#utility.yul\":668:675   */\n      not\n        /* \"#utility.yul\":663:665   */\n      0x1f\n        /* \"#utility.yul\":656:661   */\n      dup4\n        /* \"#utility.yul\":652:666   */\n      add\n        /* \"#utility.yul\":648:676   */\n      and\n        /* \"#utility.yul\":638:676   */\n      swap1\n      pop\n        /* \"#utility.yul\":580:682   */\n      swap2\n      swap1\n      pop\n      jump\t// out\n        /* \"#utility.yul\":688:868   */\n    tag_122:\n        /* \"#utility.yul\":736:813   */\n      0x4e487b7100000000000000000000000000000000000000000000000000000000\n        /* \"#utility.yul\":733:734   */\n      0x00\n        /* \"#utility.yul\":726:814   */\n      mstore\n        /* \"#utility.yul\":833:837   */\n      0x41\n        /* \"#utility.yul\":830:831   */\n      0x04\n        /* \"#utility.yul\":823:838   */\n      mstore\n        /* \"#utility.yul\":857:861   */\n      0x24\n        /* \"#utility.yul\":854:855   */\n      0x00\n        /* \"#utility.yul\":847:862   */\n      revert\n        /* \"#utility.yul\":874:1155   */\n    tag_123:\n        /* \"#utility.yul\":957:984   */\n      tag_195\n        /* \"#utility.yul\":979:983   */\n      dup3\n        /* \"#utility.yul\":957:984   */\n      tag_121\n      jump\t// in\n    tag_195:\n        /* \"#utility.yul\":949:955   */\n      dup2\n        /* \"#utility.yul\":945:985   */\n      add\n        /* \"#utility.yul\":1087:1093   */\n      dup2\n        /* \"#utility.yul\":1075:1085   */\n      dup2\n        /* \"#utility.yul\":1072:1094   */\n      lt\n        /* \"#utility.yul\":1051:1069   */\n      0xffffffffffffffff\n        /* \"#utility.yul\":1039:1049   */\n      dup3\n        /* \"#utility.yul\":1036:1070   */\n      gt\n        /* \"#utility.yul\":1033:1095   */\n      or\n        /* \"#utility.yul\":1030:1118   */\n      iszero\n      tag_196\n      jumpi\n        /* \"#utility.yul\":1098:1116   */\n      tag_197\n      tag_122\n      jump\t// in\n    tag_197:\n        /* \"#utility.yul\":1030:1118   */\n    tag_196:\n        /* \"#utility.yul\":1138:1148   */\n      dup1\n        /* \"#utility.yul\":1134:1136   */\n      0x40\n        /* \"#utility.yul\":1127:1149   */\n      mstore\n        /* \"#utility.yul\":917:1155   */\n      pop\n        /* \"#utility.yul\":874:1155   */\n      pop\n      pop\n      jump\t// out\n        /* \"#utility.yul\":1161:1290   */\n    tag_124:\n        /* \"#utility.yul\":1195:1201   */\n      0x00\n        /* \"#utility.yul\":1222:1242   */\n      tag_199\n      tag_116\n      jump\t// in\n    tag_199:\n        /* \"#utility.yul\":1212:1242   */\n      swap1\n      pop\n        /* \"#utility.yul\":1251:1284   */\n      tag_200\n        /* \"#utility.yul\":1279:1283   */\n      dup3\n        /* \"#utility.yul\":1271:1277   */\n      dup3\n        /* \"#utility.yul\":1251:1284   */\n      tag_123\n      jump\t// in\n    tag_200:\n        /* \"#utility.yul\":1161:1290   */\n      swap2\n      swap1\n      pop\n      jump\t// out\n        /* \"#utility.yul\":1296:1604   */\n    tag_125:\n        /* \"#utility.yul\":1358:1362   */\n      0x00\n        /* \"#utility.yul\":1448:1466   */\n      0xffffffffffffffff\n        /* \"#utility.yul\":1440:1446   */\n      dup3\n        /* \"#utility.yul\":1437:1467   */\n      gt\n        /* \"#utility.yul\":1434:1490   */\n      iszero\n      tag_202\n      jumpi\n        /* \"#utility.yul\":1470:1488   */\n      tag_203\n      tag_122\n      jump\t// in\n    tag_203:\n        /* \"#utility.yul\":1434:1490   */\n    tag_202:\n        /* \"#utility.yul\":1508:1537   */\n      tag_204\n        /* \"#utility.yul\":1530:1536   */\n      dup3\n        /* \"#utility.yul\":1508:1537   */\n      tag_121\n      jump\t// in\n    tag_204:\n        /* \"#utility.yul\":1500:1537   */\n      swap1\n      pop\n        /* \"#utility.yul\":1592:1596   */\n      0x20\n        /* \"#utility.yul\":1586:1590   */\n      dup2\n        /* \"#utility.yul\":1582:1597   */\n      add\n        /* \"#utility.yul\":1574:1597   */\n      swap1\n      pop\n        /* \"#utility.yul\":1296:1604   */\n      swap2\n      swap1\n      pop\n      jump\t// out\n        /* \"#utility.yul\":1610:1758   */\n    tag_126:\n        /* \"#utility.yul\":1708:1714   */\n      dup3\n        /* \"#utility.yul\":1703:1706   */\n      dup2\n        /* \"#utility.yul\":1698:1701   */\n      dup4\n        /* \"#utility.yul\":1685:1715   */\n      calldatacopy\n        /* \"#utility.yul\":1749:1750   */\n      0x00\n        /* \"#utility.yul\":1740:1746   */\n      dup4\n        /* \"#utility.yul\":1735:1738   */\n      dup4\n        /* \"#utility.yul\":1731:1747   */\n      add\n        /* \"#utility.yul\":1724:1751   */\n      mstore\n        /* \"#utility.yul\":1610:1758   */\n      pop\n      pop\n      pop\n      jump\t// out\n        /* \"#utility.yul\":1764:2189   */\n    tag_127:\n        /* \"#utility.yul\":1842:1847   */\n      0x00\n        /* \"#utility.yul\":1867:1933   */\n      tag_207\n        /* \"#utility.yul\":1883:1932   */\n      tag_208\n        /* \"#utility.yul\":1925:1931   */\n      dup5\n        /* \"#utility.yul\":1883:1932   */\n      tag_125\n      jump\t// in\n    tag_208:\n        /* \"#utility.yul\":1867:1933   */\n      tag_124\n      jump\t// in\n    tag_207:\n        /* \"#utility.yul\":1858:1933   */\n      swap1\n      pop\n        /* \"#utility.yul\":1956:1962   */\n      dup3\n        /* \"#utility.yul\":1949:1954   */\n      dup2\n        /* \"#utility.yul\":1942:1963   */\n      mstore\n        /* \"#utility.yul\":1994:1998   */\n      0x20\n        /* \"#utility.yul\":1987:1992   */\n      dup2\n        /* \"#utility.yul\":1983:1999   */\n      add\n        /* \"#utility.yul\":2032:2035   */\n      dup5\n        /* \"#utility.yul\":2023:2029   */\n      dup5\n        /* \"#utility.yul\":2018:2021   */\n      dup5\n        /* \"#utility.yul\":2014:2030   */\n      add\n        /* \"#utility.yul\":2011:2036   */\n      gt\n        /* \"#utility.yul\":2008:2120   */\n      iszero\n      tag_209\n      jumpi\n        /* \"#utility.yul\":2039:2118   */\n      tag_210\n      tag_120\n      jump\t// in\n    tag_210:\n        /* \"#utility.yul\":2008:2120   */\n    tag_209:\n        /* \"#utility.yul\":2129:2183   */\n      tag_211\n        /* \"#utility.yul\":2176:2182   */\n      dup5\n        /* \"#utility.yul\":2171:2174   */\n      dup3\n        /* \"#utility.yul\":2166:2169   */\n      dup6\n        /* \"#utility.yul\":2129:2183   */\n      tag_126\n      jump\t// in\n    tag_211:\n        /* \"#utility.yul\":1848:2189   */\n      pop\n        /* \"#utility.yul\":1764:2189   */\n      swap4\n      swap3\n      pop\n      pop\n      pop\n      jump\t// out\n        /* \"#utility.yul\":2209:2549   */\n    tag_128:\n        /* \"#utility.yul\":2265:2270   */\n      0x00\n        /* \"#utility.yul\":2314:2317   */\n      dup3\n        /* \"#utility.yul\":2307:2311   */\n      0x1f\n        /* \"#utility.yul\":2299:2305   */\n      dup4\n        /* \"#utility.yul\":2295:2312   */\n      add\n        /* \"#utility.yul\":2291:2318   */\n      slt\n        /* \"#utility.yul\":2281:2403   */\n      tag_213\n      jumpi\n        /* \"#utility.yul\":2322:2401   */\n      tag_214\n      tag_119\n      jump\t// in\n    tag_214:\n        /* \"#utility.yul\":2281:2403   */\n    tag_213:\n        /* \"#utility.yul\":2439:2445   */\n      dup2\n        /* \"#utility.yul\":2426:2446   */\n      calldataload\n        /* \"#utility.yul\":2464:2543   */\n      tag_215\n        /* \"#utility.yul\":2539:2542   */\n      dup5\n        /* \"#utility.yul\":2531:2537   */\n      dup3\n        /* \"#utility.yul\":2524:2528   */\n      0x20\n        /* \"#utility.yul\":2516:2522   */\n      dup7\n        /* \"#utility.yul\":2512:2529   */\n      add\n        /* \"#utility.yul\":2464:2543   */\n      tag_127\n      jump\t// in\n    tag_215:\n        /* \"#utility.yul\":2455:2543   */\n      swap2\n      pop\n        /* \"#utility.yul\":2271:2549   */\n      pop\n        /* \"#utility.yul\":2209:2549   */\n      swap3\n      swap2\n      pop\n      pop\n      jump\t// out\n        /* \"#utility.yul\":2555:2632   */\n    tag_129:\n        /* \"#utility.yul\":2592:2599   */\n      0x00\n        /* \"#utility.yul\":2621:2626   */\n      dup2\n        /* \"#utility.yul\":2610:2626   */\n      swap1\n      pop\n        /* \"#utility.yul\":2555:2632   */\n      swap2\n      swap1\n      pop\n      jump\t// out\n        /* \"#utility.yul\":2638:2760   */\n    tag_130:\n        /* \"#utility.yul\":2711:2735   */\n      tag_218\n        /* \"#utility.yul\":2729:2734   */\n      dup2\n        /* \"#utility.yul\":2711:2735   */\n      tag_129\n      jump\t// in\n    tag_218:\n        /* \"#utility.yul\":2704:2709   */\n      dup2\n        /* \"#utility.yul\":2701:2736   */\n      eq\n        /* \"#utility.yul\":2691:2754   */\n      tag_219\n      jumpi\n        /* \"#utility.yul\":2750:2751   */\n      0x00\n        /* \"#utility.yul\":2747:2748   */\n      0x00\n        /* \"#utility.yul\":2740:2752   */\n      revert\n        /* \"#utility.yul\":2691:2754   */\n    tag_219:\n        /* \"#utility.yul\":2638:2760   */\n      pop\n      jump\t// out\n        /* \"#utility.yul\":2766:2905   */\n    tag_131:\n        /* \"#utility.yul\":2812:2817   */\n      0x00\n        /* \"#utility.yul\":2850:2856   */\n      dup2\n        /* \"#utility.yul\":2837:2857   */\n      calldataload\n        /* \"#utility.yul\":2828:2857   */\n      swap1\n      pop\n        /* \"#utility.yul\":2866:2899   */\n      tag_221\n        /* \"#utility.yul\":2893:2898   */\n      dup2\n        /* \"#utility.yul\":2866:2899   */\n      tag_130\n      jump\t// in\n    tag_221:\n        /* \"#utility.yul\":2766:2905   */\n      swap3\n      swap2\n      pop\n      pop\n      jump\t// out\n        /* \"#utility.yul\":2911:3856   */\n    tag_13:\n        /* \"#utility.yul\":3007:3013   */\n      0x00\n        /* \"#utility.yul\":3015:3021   */\n      0x00\n        /* \"#utility.yul\":3023:3029   */\n      0x00\n        /* \"#utility.yul\":3031:3037   */\n      0x00\n        /* \"#utility.yul\":3080:3083   */\n      0x80\n        /* \"#utility.yul\":3068:3077   */\n      dup6\n        /* \"#utility.yul\":3059:3066   */\n      dup8\n        /* \"#utility.yul\":3055:3078   */\n      sub\n        /* \"#utility.yul\":3051:3084   */\n      slt\n        /* \"#utility.yul\":3048:3168   */\n      iszero\n      tag_223\n      jumpi\n        /* \"#utility.yul\":3087:3166   */\n      tag_224\n      tag_117\n      jump\t// in\n    tag_224:\n        /* \"#utility.yul\":3048:3168   */\n    tag_223:\n        /* \"#utility.yul\":3235:3236   */\n      0x00\n        /* \"#utility.yul\":3224:3233   */\n      dup6\n        /* \"#utility.yul\":3220:3237   */\n      add\n        /* \"#utility.yul\":3207:3238   */\n      calldataload\n        /* \"#utility.yul\":3265:3283   */\n      0xffffffffffffffff\n        /* \"#utility.yul\":3257:3263   */\n      dup2\n        /* \"#utility.yul\":3254:3284   */\n      gt\n        /* \"#utility.yul\":3251:3368   */\n      iszero\n      tag_225\n      jumpi\n        /* \"#utility.yul\":3287:3366   */\n      tag_226\n      tag_118\n      jump\t// in\n    tag_226:\n        /* \"#utility.yul\":3251:3368   */\n    tag_225:\n        /* \"#utility.yul\":3392:3455   */\n      tag_227\n        /* \"#utility.yul\":3447:3454   */\n      dup8\n        /* \"#utility.yul\":3438:3444   */\n      dup3\n        /* \"#utility.yul\":3427:3436   */\n      dup9\n        /* \"#utility.yul\":3423:3445   */\n      add\n        /* \"#utility.yul\":3392:3455   */\n      tag_128\n      jump\t// in\n    tag_227:\n        /* \"#utility.yul\":3382:3455   */\n      swap5\n      pop\n        /* \"#utility.yul\":3178:3465   */\n      pop\n        /* \"#utility.yul\":3504:3506   */\n      0x20\n        /* \"#utility.yul\":3530:3583   */\n      tag_228\n        /* \"#utility.yul\":3575:3582   */\n      dup8\n        /* \"#utility.yul\":3566:3572   */\n      dup3\n        /* \"#utility.yul\":3555:3564   */\n      dup9\n        /* \"#utility.yul\":3551:3573   */\n      add\n        /* \"#utility.yul\":3530:3583   */\n      tag_131\n      jump\t// in\n    tag_228:\n        /* \"#utility.yul\":3520:3583   */\n      swap4\n      pop\n        /* \"#utility.yul\":3475:3593   */\n      pop\n        /* \"#utility.yul\":3632:3634   */\n      0x40\n        /* \"#utility.yul\":3658:3711   */\n      tag_229\n        /* \"#utility.yul\":3703:3710   */\n      dup8\n        /* \"#utility.yul\":3694:3700   */\n      dup3\n        /* \"#utility.yul\":3683:3692   */\n      dup9\n        /* \"#utility.yul\":3679:3701   */\n      add\n        /* \"#utility.yul\":3658:3711   */\n      tag_131\n      jump\t// in\n    tag_229:\n        /* \"#utility.yul\":3648:3711   */\n      swap3\n      pop\n        /* \"#utility.yul\":3603:3721   */\n      pop\n        /* \"#utility.yul\":3760:3762   */\n      0x60\n        /* \"#utility.yul\":3786:3839   */\n      tag_230\n        /* \"#utility.yul\":3831:3838   */\n      dup8\n        /* \"#utility.yul\":3822:3828   */\n      dup3\n        /* \"#utility.yul\":3811:3820   */\n      dup9\n        /* \"#utility.yul\":3807:3829   */\n      add\n        /* \"#utility.yul\":3786:3839   */\n      tag_131\n      jump\t// in\n    tag_230:\n        /* \"#utility.yul\":3776:3839   */\n      swap2\n      pop\n        /* \"#utility.yul\":3731:3849   */\n      pop\n        /* \"#utility.yul\":2911:3856   */\n      swap3\n      swap6\n      swap2\n      swap5\n      pop\n      swap3\n      pop\n      jump\t// out\n        /* \"#utility.yul\":3862:4191   */\n    tag_18:\n        /* \"#utility.yul\":3921:3927   */\n      0x00\n        /* \"#utility.yul\":3970:3972   */\n      0x20\n        /* \"#utility.yul\":3958:3967   */\n      dup3\n        /* \"#utility.yul\":3949:3956   */\n      dup5\n        /* \"#utility.yul\":3945:3968   */\n      sub\n        /* \"#utility.yul\":3941:3973   */\n      slt\n        /* \"#utility.yul\":3938:4057   */\n      iszero\n      tag_232\n      jumpi\n        /* \"#utility.yul\":3976:4055   */\n      tag_233\n      tag_117\n      jump\t// in\n    tag_233:\n        /* \"#utility.yul\":3938:4057   */\n    tag_232:\n        /* \"#utility.yul\":4096:4097   */\n      0x00\n        /* \"#utility.yul\":4121:4174   */\n      tag_234\n        /* \"#utility.yul\":4166:4173   */\n      dup5\n        /* \"#utility.yul\":4157:4163   */\n      dup3\n        /* \"#utility.yul\":4146:4155   */\n      dup6\n        /* \"#utility.yul\":4142:4164   */\n      add\n        /* \"#utility.yul\":4121:4174   */\n      tag_131\n      jump\t// in\n    tag_234:\n        /* \"#utility.yul\":4111:4174   */\n      swap2\n      pop\n        /* \"#utility.yul\":4067:4184   */\n      pop\n        /* \"#utility.yul\":3862:4191   */\n      swap3\n      swap2\n      pop\n      pop\n      jump\t// out\n        /* \"#utility.yul\":4197:4323   */\n    tag_132:\n        /* \"#utility.yul\":4234:4241   */\n      0x00\n        /* \"#utility.yul\":4274:4316   */\n      0xffffffffffffffffffffffffffffffffffffffff\n        /* \"#utility.yul\":4267:4272   */\n      dup3\n        /* \"#utility.yul\":4263:4317   */\n      and\n        /* \"#utility.yul\":4252:4317   */\n      swap1\n      pop\n        /* \"#utility.yul\":4197:4323   */\n      swap2\n      swap1\n      pop\n      jump\t// out\n        /* \"#utility.yul\":4329:4425   */\n    tag_133:\n        /* \"#utility.yul\":4366:4373   */\n      0x00\n        /* \"#utility.yul\":4395:4419   */\n      tag_237\n        /* \"#utility.yul\":4413:4418   */\n      dup3\n        /* \"#utility.yul\":4395:4419   */\n      tag_132\n      jump\t// in\n    tag_237:\n        /* \"#utility.yul\":4384:4419   */\n      swap1\n      pop\n        /* \"#utility.yul\":4329:4425   */\n      swap2\n      swap1\n      pop\n      jump\t// out\n        /* \"#utility.yul\":4431:4549   */\n    tag_134:\n        /* \"#utility.yul\":4518:4542   */\n      tag_239\n        /* \"#utility.yul\":4536:4541   */\n      dup2\n        /* \"#utility.yul\":4518:4542   */\n      tag_133\n      jump\t// in\n    tag_239:\n        /* \"#utility.yul\":4513:4516   */\n      dup3\n        /* \"#utility.yul\":4506:4543   */\n      mstore\n        /* \"#utility.yul\":4431:4549   */\n      pop\n      pop\n      jump\t// out\n        /* \"#utility.yul\":4555:4654   */\n    tag_135:\n        /* \"#utility.yul\":4607:4613   */\n      0x00\n        /* \"#utility.yul\":4641:4646   */\n      dup2\n        /* \"#utility.yul\":4635:4647   */\n      mload\n        /* \"#utility.yul\":4625:4647   */\n      swap1\n      pop\n        /* \"#utility.yul\":4555:4654   */\n      swap2\n      swap1\n      pop\n      jump\t// out\n        /* \"#utility.yul\":4660:4829   */\n    tag_136:\n        /* \"#utility.yul\":4744:4755   */\n      0x00\n        /* \"#utility.yul\":4778:4784   */\n      dup3\n        /* \"#utility.yul\":4773:4776   */\n      dup3\n        /* \"#utility.yul\":4766:4785   */\n      mstore\n        /* \"#utility.yul\":4818:4822   */\n      0x20\n        /* \"#utility.yul\":4813:4816   */\n      dup3\n        /* \"#utility.yul\":4809:4823   */\n      add\n        /* \"#utility.yul\":4794:4823   */\n      swap1\n      pop\n        /* \"#utility.yul\":4660:4829   */\n      swap3\n      swap2\n      pop\n      pop\n      jump\t// out\n        /* \"#utility.yul\":4835:4974   */\n    tag_137:\n        /* \"#utility.yul\":4924:4930   */\n      dup3\n        /* \"#utility.yul\":4919:4922   */\n      dup2\n        /* \"#utility.yul\":4914:4917   */\n      dup4\n        /* \"#utility.yul\":4908:4931   */\n      mcopy\n        /* \"#utility.yul\":4965:4966   */\n      0x00\n        /* \"#utility.yul\":4956:4962   */\n      dup4\n        /* \"#utility.yul\":4951:4954   */\n      dup4\n        /* \"#utility.yul\":4947:4963   */\n      add\n        /* \"#utility.yul\":4940:4967   */\n      mstore\n        /* \"#utility.yul\":4835:4974   */\n      pop\n      pop\n      pop\n      jump\t// out\n        /* \"#utility.yul\":4980:5357   */\n    tag_138:\n        /* \"#utility.yul\":5068:5071   */\n      0x00\n        /* \"#utility.yul\":5096:5135   */\n      tag_244\n        /* \"#utility.yul\":5129:5134   */\n      dup3\n        /* \"#utility.yul\":5096:5135   */\n      tag_135\n      jump\t// in\n    tag_244:\n        /* \"#utility.yul\":5151:5222   */\n      tag_245\n        /* \"#utility.yul\":5215:5221   */\n      dup2\n        /* \"#utility.yul\":5210:5213   */\n      dup6\n        /* \"#utility.yul\":5151:5222   */\n      tag_136\n      jump\t// in\n    tag_245:\n        /* \"#utility.yul\":5144:5222   */\n      swap4\n      pop\n        /* \"#utility.yul\":5231:5296   */\n      tag_246\n        /* \"#utility.yul\":5289:5295   */\n      dup2\n        /* \"#utility.yul\":5284:5287   */\n      dup6\n        /* \"#utility.yul\":5277:5281   */\n      0x20\n        /* \"#utility.yul\":5270:5275   */\n      dup7\n        /* \"#utility.yul\":5266:5282   */\n      add\n        /* \"#utility.yul\":5231:5296   */\n      tag_137\n      jump\t// in\n    tag_246:\n        /* \"#utility.yul\":5321:5350   */\n      tag_247\n        /* \"#utility.yul\":5343:5349   */\n      dup2\n        /* \"#utility.yul\":5321:5350   */\n      tag_121\n      jump\t// in\n    tag_247:\n        /* \"#utility.yul\":5316:5319   */\n      dup5\n        /* \"#utility.yul\":5312:5351   */\n      add\n        /* \"#utility.yul\":5305:5351   */\n      swap2\n      pop\n        /* \"#utility.yul\":5072:5357   */\n      pop\n        /* \"#utility.yul\":4980:5357   */\n      swap3\n      swap2\n      pop\n      pop\n      jump\t// out\n        /* \"#utility.yul\":5363:5481   */\n    tag_139:\n        /* \"#utility.yul\":5450:5474   */\n      tag_249\n        /* \"#utility.yul\":5468:5473   */\n      dup2\n        /* \"#utility.yul\":5450:5474   */\n      tag_129\n      jump\t// in\n    tag_249:\n        /* \"#utility.yul\":5445:5448   */\n      dup3\n        /* \"#utility.yul\":5438:5475   */\n      mstore\n        /* \"#utility.yul\":5363:5481   */\n      pop\n      pop\n      jump\t// out\n        /* \"#utility.yul\":5487:6353   */\n    tag_21:\n        /* \"#utility.yul\":5740:5744   */\n      0x00\n        /* \"#utility.yul\":5778:5781   */\n      0xc0\n        /* \"#utility.yul\":5767:5776   */\n      dup3\n        /* \"#utility.yul\":5763:5782   */\n      add\n        /* \"#utility.yul\":5755:5782   */\n      swap1\n      pop\n        /* \"#utility.yul\":5792:5863   */\n      tag_251\n        /* \"#utility.yul\":5860:5861   */\n      0x00\n        /* \"#utility.yul\":5849:5858   */\n      dup4\n        /* \"#utility.yul\":5845:5862   */\n      add\n        /* \"#utility.yul\":5836:5842   */\n      dup10\n        /* \"#utility.yul\":5792:5863   */\n      tag_134\n      jump\t// in\n    tag_251:\n        /* \"#utility.yul\":5910:5919   */\n      dup2\n        /* \"#utility.yul\":5904:5908   */\n      dup2\n        /* \"#utility.yul\":5900:5920   */\n      sub\n        /* \"#utility.yul\":5895:5897   */\n      0x20\n        /* \"#utility.yul\":5884:5893   */\n      dup4\n        /* \"#utility.yul\":5880:5898   */\n      add\n        /* \"#utility.yul\":5873:5921   */\n      mstore\n        /* \"#utility.yul\":5938:6016   */\n      tag_252\n        /* \"#utility.yul\":6011:6015   */\n      dup2\n        /* \"#utility.yul\":6002:6008   */\n      dup9\n        /* \"#utility.yul\":5938:6016   */\n      tag_138\n      jump\t// in\n    tag_252:\n        /* \"#utility.yul\":5930:6016   */\n      swap1\n      pop\n        /* \"#utility.yul\":6026:6098   */\n      tag_253\n        /* \"#utility.yul\":6094:6096   */\n      0x40\n        /* \"#utility.yul\":6083:6092   */\n      dup4\n        /* \"#utility.yul\":6079:6097   */\n      add\n        /* \"#utility.yul\":6070:6076   */\n      dup8\n        /* \"#utility.yul\":6026:6098   */\n      tag_139\n      jump\t// in\n    tag_253:\n        /* \"#utility.yul\":6108:6180   */\n      tag_254\n        /* \"#utility.yul\":6176:6178   */\n      0x60\n        /* \"#utility.yul\":6165:6174   */\n      dup4\n        /* \"#utility.yul\":6161:6179   */\n      add\n        /* \"#utility.yul\":6152:6158   */\n      dup7\n        /* \"#utility.yul\":6108:6180   */\n      tag_139\n      jump\t// in\n    tag_254:\n        /* \"#utility.yul\":6190:6263   */\n      tag_255\n        /* \"#utility.yul\":6258:6261   */\n      0x80\n        /* \"#utility.yul\":6247:6256   */\n      dup4\n        /* \"#utility.yul\":6243:6262   */\n      add\n        /* \"#utility.yul\":6234:6240   */\n      dup6\n        /* \"#utility.yul\":6190:6263   */\n      tag_139\n      jump\t// in\n    tag_255:\n        /* \"#utility.yul\":6273:6346   */\n      tag_256\n        /* \"#utility.yul\":6341:6344   */\n      0xa0\n        /* \"#utility.yul\":6330:6339   */\n      dup4\n        /* \"#utility.yul\":6326:6345   */\n      add\n        /* \"#utility.yul\":6317:6323   */\n      dup5\n        /* \"#utility.yul\":6273:6346   */\n      tag_139\n      jump\t// in\n    tag_256:\n        /* \"#utility.yul\":5487:6353   */\n      swap8\n      swap7\n      pop\n      pop\n      pop\n      pop\n      pop\n      pop\n      pop\n      jump\t// out\n        /* \"#utility.yul\":6359:6581   */\n    tag_27:\n        /* \"#utility.yul\":6452:6456   */\n      0x00\n        /* \"#utility.yul\":6490:6492   */\n      0x20\n        /* \"#utility.yul\":6479:6488   */\n      dup3\n        /* \"#utility.yul\":6475:6493   */\n      add\n        /* \"#utility.yul\":6467:6493   */\n      swap1\n      pop\n        /* \"#utility.yul\":6503:6574   */\n      tag_258\n        /* \"#utility.yul\":6571:6572   */\n      0x00\n        /* \"#utility.yul\":6560:6569   */\n      dup4\n        /* \"#utility.yul\":6556:6573   */\n      add\n        /* \"#utility.yul\":6547:6553   */\n      dup5\n        /* \"#utility.yul\":6503:6574   */\n      tag_139\n      jump\t// in\n    tag_258:\n        /* \"#utility.yul\":6359:6581   */\n      swap3\n      swap2\n      pop\n      pop\n      jump\t// out\n        /* \"#utility.yul\":6587:7061   */\n    tag_30:\n        /* \"#utility.yul\":6655:6661   */\n      0x00\n        /* \"#utility.yul\":6663:6669   */\n      0x00\n        /* \"#utility.yul\":6712:6714   */\n      0x40\n        /* \"#utility.yul\":6700:6709   */\n      dup4\n        /* \"#utility.yul\":6691:6698   */\n      dup6\n        /* \"#utility.yul\":6687:6710   */\n      sub\n        /* \"#utility.yul\":6683:6715   */\n      slt\n        /* \"#utility.yul\":6680:6799   */\n      iszero\n      tag_260\n      jumpi\n        /* \"#utility.yul\":6718:6797   */\n      tag_261\n      tag_117\n      jump\t// in\n    tag_261:\n        /* \"#utility.yul\":6680:6799   */\n    tag_260:\n        /* \"#utility.yul\":6838:6839   */\n      0x00\n        /* \"#utility.yul\":6863:6916   */\n      tag_262\n        /* \"#utility.yul\":6908:6915   */\n      dup6\n        /* \"#utility.yul\":6899:6905   */\n      dup3\n        /* \"#utility.yul\":6888:6897   */\n      dup7\n        /* \"#utility.yul\":6884:6906   */\n      add\n        /* \"#utility.yul\":6863:6916   */\n      tag_131\n      jump\t// in\n    tag_262:\n        /* \"#utility.yul\":6853:6916   */\n      swap3\n      pop\n        /* \"#utility.yul\":6809:6926   */\n      pop\n        /* \"#utility.yul\":6965:6967   */\n      0x20\n        /* \"#utility.yul\":6991:7044   */\n      tag_263\n        /* \"#utility.yul\":7036:7043   */\n      dup6\n        /* \"#utility.yul\":7027:7033   */\n      dup3\n        /* \"#utility.yul\":7016:7025   */\n      dup7\n        /* \"#utility.yul\":7012:7034   */\n      add\n        /* \"#utility.yul\":6991:7044   */\n      tag_131\n      jump\t// in\n    tag_263:\n        /* \"#utility.yul\":6981:7044   */\n      swap2\n      pop\n        /* \"#utility.yul\":6936:7054   */\n      pop\n        /* \"#utility.yul\":6587:7061   */\n      swap3\n      pop\n      swap3\n      swap1\n      pop\n      jump\t// out\n        /* \"#utility.yul\":7067:7189   */\n    tag_140:\n        /* \"#utility.yul\":7140:7164   */\n      tag_265\n        /* \"#utility.yul\":7158:7163   */\n      dup2\n        /* \"#utility.yul\":7140:7164   */\n      tag_133\n      jump\t// in\n    tag_265:\n        /* \"#utility.yul\":7133:7138   */\n      dup2\n        /* \"#utility.yul\":7130:7165   */\n      eq\n        /* \"#utility.yul\":7120:7183   */\n      tag_266\n      jumpi\n        /* \"#utility.yul\":7179:7180   */\n      0x00\n        /* \"#utility.yul\":7176:7177   */\n      0x00\n        /* \"#utility.yul\":7169:7181   */\n      revert\n        /* \"#utility.yul\":7120:7183   */\n    tag_266:\n        /* \"#utility.yul\":7067:7189   */\n      pop\n      jump\t// out\n        /* \"#utility.yul\":7195:7334   */\n    tag_141:\n        /* \"#utility.yul\":7241:7246   */\n      0x00\n        /* \"#utility.yul\":7279:7285   */\n      dup2\n        /* \"#utility.yul\":7266:7286   */\n      calldataload\n        /* \"#utility.yul\":7257:7286   */\n      swap1\n      pop\n        /* \"#utility.yul\":7295:7328   */\n      tag_268\n        /* \"#utility.yul\":7322:7327   */\n      dup2\n        /* \"#utility.yul\":7295:7328   */\n      tag_140\n      jump\t// in\n    tag_268:\n        /* \"#utility.yul\":7195:7334   */\n      swap3\n      swap2\n      pop\n      pop\n      jump\t// out\n        /* \"#utility.yul\":7340:7814   */\n    tag_39:\n        /* \"#utility.yul\":7408:7414   */\n      0x00\n        /* \"#utility.yul\":7416:7422   */\n      0x00\n        /* \"#utility.yul\":7465:7467   */\n      0x40\n        /* \"#utility.yul\":7453:7462   */\n      dup4\n        /* \"#utility.yul\":7444:7451   */\n      dup6\n        /* \"#utility.yul\":7440:7463   */\n      sub\n        /* \"#utility.yul\":7436:7468   */\n      slt\n        /* \"#utility.yul\":7433:7552   */\n      iszero\n      tag_270\n      jumpi\n        /* \"#utility.yul\":7471:7550   */\n      tag_271\n      tag_117\n      jump\t// in\n    tag_271:\n        /* \"#utility.yul\":7433:7552   */\n    tag_270:\n        /* \"#utility.yul\":7591:7592   */\n      0x00\n        /* \"#utility.yul\":7616:7669   */\n      tag_272\n        /* \"#utility.yul\":7661:7668   */\n      dup6\n        /* \"#utility.yul\":7652:7658   */\n      dup3\n        /* \"#utility.yul\":7641:7650   */\n      dup7\n        /* \"#utility.yul\":7637:7659   */\n      add\n        /* \"#utility.yul\":7616:7669   */\n      tag_141\n      jump\t// in\n    tag_272:\n        /* \"#utility.yul\":7606:7669   */\n      swap3\n      pop\n        /* \"#utility.yul\":7562:7679   */\n      pop\n        /* \"#utility.yul\":7718:7720   */\n      0x20\n        /* \"#utility.yul\":7744:7797   */\n      tag_273\n        /* \"#utility.yul\":7789:7796   */\n      dup6\n        /* \"#utility.yul\":7780:7786   */\n      dup3\n        /* \"#utility.yul\":7769:7778   */\n      dup7\n        /* \"#utility.yul\":7765:7787   */\n      add\n        /* \"#utility.yul\":7744:7797   */\n      tag_131\n      jump\t// in\n    tag_273:\n        /* \"#utility.yul\":7734:7797   */\n      swap2\n      pop\n        /* \"#utility.yul\":7689:7807   */\n      pop\n        /* \"#utility.yul\":7340:7814   */\n      swap3\n      pop\n      swap3\n      swap1\n      pop\n      jump\t// out\n        /* \"#utility.yul\":7820:8439   */\n    tag_45:\n        /* \"#utility.yul\":7897:7903   */\n      0x00\n        /* \"#utility.yul\":7905:7911   */\n      0x00\n        /* \"#utility.yul\":7913:7919   */\n      0x00\n        /* \"#utility.yul\":7962:7964   */\n      0x60\n        /* \"#utility.yul\":7950:7959   */\n      dup5\n        /* \"#utility.yul\":7941:7948   */\n      dup7\n        /* \"#utility.yul\":7937:7960   */\n      sub\n        /* \"#utility.yul\":7933:7965   */\n      slt\n        /* \"#utility.yul\":7930:8049   */\n      iszero\n      tag_275\n      jumpi\n        /* \"#utility.yul\":7968:8047   */\n      tag_276\n      tag_117\n      jump\t// in\n    tag_276:\n        /* \"#utility.yul\":7930:8049   */\n    tag_275:\n        /* \"#utility.yul\":8088:8089   */\n      0x00\n        /* \"#utility.yul\":8113:8166   */\n      tag_277\n        /* \"#utility.yul\":8158:8165   */\n      dup7\n        /* \"#utility.yul\":8149:8155   */\n      dup3\n        /* \"#utility.yul\":8138:8147   */\n      dup8\n        /* \"#utility.yul\":8134:8156   */\n      add\n        /* \"#utility.yul\":8113:8166   */\n      tag_131\n      jump\t// in\n    tag_277:\n        /* \"#utility.yul\":8103:8166   */\n      swap4\n      pop\n        /* \"#utility.yul\":8059:8176   */\n      pop\n        /* \"#utility.yul\":8215:8217   */\n      0x20\n        /* \"#utility.yul\":8241:8294   */\n      tag_278\n        /* \"#utility.yul\":8286:8293   */\n      dup7\n        /* \"#utility.yul\":8277:8283   */\n      dup3\n        /* \"#utility.yul\":8266:8275   */\n      dup8\n        /* \"#utility.yul\":8262:8284   */\n      add\n        /* \"#utility.yul\":8241:8294   */\n      tag_131\n      jump\t// in\n    tag_278:\n        /* \"#utility.yul\":8231:8294   */\n      swap3\n      pop\n        /* \"#utility.yul\":8186:8304   */\n      pop\n        /* \"#utility.yul\":8343:8345   */\n      0x40\n        /* \"#utility.yul\":8369:8422   */\n      tag_279\n        /* \"#utility.yul\":8414:8421   */\n      dup7\n        /* \"#utility.yul\":8405:8411   */\n      dup3\n        /* \"#utility.yul\":8394:8403   */\n      dup8\n        /* \"#utility.yul\":8390:8412   */\n      add\n        /* \"#utility.yul\":8369:8422   */\n      tag_141\n      jump\t// in\n    tag_279:\n        /* \"#utility.yul\":8359:8422   */\n      swap2\n      pop\n        /* \"#utility.yul\":8314:8432   */\n      pop\n        /* \"#utility.yul\":7820:8439   */\n      swap3\n      pop\n      swap3\n      pop\n      swap3\n      jump\t// out\n        /* \"#utility.yul\":8445:8622   */\n    tag_142:\n        /* \"#utility.yul\":8585:8614   */\n      0x4576656e74206d75737420626520696e20746865206675747572650000000000\n        /* \"#utility.yul\":8581:8582   */\n      0x00\n        /* \"#utility.yul\":8573:8579   */\n      dup3\n        /* \"#utility.yul\":8569:8583   */\n      add\n        /* \"#utility.yul\":8562:8615   */\n      mstore\n        /* \"#utility.yul\":8445:8622   */\n      pop\n      jump\t// out\n        /* \"#utility.yul\":8628:8994   */\n    tag_143:\n        /* \"#utility.yul\":8770:8773   */\n      0x00\n        /* \"#utility.yul\":8791:8858   */\n      tag_282\n        /* \"#utility.yul\":8855:8857   */\n      0x1b\n        /* \"#utility.yul\":8850:8853   */\n      dup4\n        /* \"#utility.yul\":8791:8858   */\n      tag_136\n      jump\t// in\n    tag_282:\n        /* \"#utility.yul\":8784:8858   */\n      swap2\n      pop\n        /* \"#utility.yul\":8867:8960   */\n      tag_283\n        /* \"#utility.yul\":8956:8959   */\n      dup3\n        /* \"#utility.yul\":8867:8960   */\n      tag_142\n      jump\t// in\n    tag_283:\n        /* \"#utility.yul\":8985:8987   */\n      0x20\n        /* \"#utility.yul\":8980:8983   */\n      dup3\n        /* \"#utility.yul\":8976:8988   */\n      add\n        /* \"#utility.yul\":8969:8988   */\n      swap1\n      pop\n        /* \"#utility.yul\":8628:8994   */\n      swap2\n      swap1\n      pop\n      jump\t// out\n        /* \"#utility.yul\":9000:9419   */\n    tag_50:\n        /* \"#utility.yul\":9166:9170   */\n      0x00\n        /* \"#utility.yul\":9204:9206   */\n      0x20\n        /* \"#utility.yul\":9193:9202   */\n      dup3\n        /* \"#utility.yul\":9189:9207   */\n      add\n        /* \"#utility.yul\":9181:9207   */\n      swap1\n      pop\n        /* \"#utility.yul\":9253:9262   */\n      dup2\n        /* \"#utility.yul\":9247:9251   */\n      dup2\n        /* \"#utility.yul\":9243:9263   */\n      sub\n        /* \"#utility.yul\":9239:9240   */\n      0x00\n        /* \"#utility.yul\":9228:9237   */\n      dup4\n        /* \"#utility.yul\":9224:9241   */\n      add\n        /* \"#utility.yul\":9217:9264   */\n      mstore\n        /* \"#utility.yul\":9281:9412   */\n      tag_285\n        /* \"#utility.yul\":9407:9411   */\n      dup2\n        /* \"#utility.yul\":9281:9412   */\n      tag_143\n      jump\t// in\n    tag_285:\n        /* \"#utility.yul\":9273:9412   */\n      swap1\n      pop\n        /* \"#utility.yul\":9000:9419   */\n      swap2\n      swap1\n      pop\n      jump\t// out\n        /* \"#utility.yul\":9425:9604   */\n    tag_144:\n        /* \"#utility.yul\":9565:9596   */\n      0x4d75737420637265617465206174206c656173742031207469636b6574000000\n        /* \"#utility.yul\":9561:9562   */\n      0x00\n        /* \"#utility.yul\":9553:9559   */\n      dup3\n        /* \"#utility.yul\":9549:9563   */\n      add\n        /* \"#utility.yul\":9542:9597   */\n      mstore\n        /* \"#utility.yul\":9425:9604   */\n      pop\n      jump\t// out\n        /* \"#utility.yul\":9610:9976   */\n    tag_145:\n        /* \"#utility.yul\":9752:9755   */\n      0x00\n        /* \"#utility.yul\":9773:9840   */\n      tag_288\n        /* \"#utility.yul\":9837:9839   */\n      0x1d\n        /* \"#utility.yul\":9832:9835   */\n      dup4\n        /* \"#utility.yul\":9773:9840   */\n      tag_136\n      jump\t// in\n    tag_288:\n        /* \"#utility.yul\":9766:9840   */\n      swap2\n      pop\n        /* \"#utility.yul\":9849:9942   */\n      tag_289\n        /* \"#utility.yul\":9938:9941   */\n      dup3\n        /* \"#utility.yul\":9849:9942   */\n      tag_144\n      jump\t// in\n    tag_289:\n        /* \"#utility.yul\":9967:9969   */\n      0x20\n        /* \"#utility.yul\":9962:9965   */\n      dup3\n        /* \"#utility.yul\":9958:9970   */\n      add\n        /* \"#utility.yul\":9951:9970   */\n      swap1\n      pop\n        /* \"#utility.yul\":9610:9976   */\n      swap2\n      swap1\n      pop\n      jump\t// out\n        /* \"#utility.yul\":9982:10401   */\n    tag_53:\n        /* \"#utility.yul\":10148:10152   */\n      0x00\n        /* \"#utility.yul\":10186:10188   */\n      0x20\n        /* \"#utility.yul\":10175:10184   */\n      dup3\n        /* \"#utility.yul\":10171:10189   */\n      add\n        /* \"#utility.yul\":10163:10189   */\n      swap1\n      pop\n        /* \"#utility.yul\":10235:10244   */\n      dup2\n        /* \"#utility.yul\":10229:10233   */\n      dup2\n        /* \"#utility.yul\":10225:10245   */\n      sub\n        /* \"#utility.yul\":10221:10222   */\n      0x00\n        /* \"#utility.yul\":10210:10219   */\n      dup4\n        /* \"#utility.yul\":10206:10223   */\n      add\n        /* \"#utility.yul\":10199:10246   */\n      mstore\n        /* \"#utility.yul\":10263:10394   */\n      tag_291\n        /* \"#utility.yul\":10389:10393   */\n      dup2\n        /* \"#utility.yul\":10263:10394   */\n      tag_145\n      jump\t// in\n    tag_291:\n        /* \"#utility.yul\":10255:10394   */\n      swap1\n      pop\n        /* \"#utility.yul\":9982:10401   */\n      swap2\n      swap1\n      pop\n      jump\t// out\n        /* \"#utility.yul\":10407:10587   */\n    tag_146:\n        /* \"#utility.yul\":10455:10532   */\n      0x4e487b7100000000000000000000000000000000000000000000000000000000\n        /* \"#utility.yul\":10452:10453   */\n      0x00\n        /* \"#utility.yul\":10445:10533   */\n      mstore\n        /* \"#utility.yul\":10552:10556   */\n      0x22\n        /* \"#utility.yul\":10549:10550   */\n      0x04\n        /* \"#utility.yul\":10542:10557   */\n      mstore\n        /* \"#utility.yul\":10576:10580   */\n      0x24\n        /* \"#utility.yul\":10573:10574   */\n      0x00\n        /* \"#utility.yul\":10566:10581   */\n      revert\n        /* \"#utility.yul\":10593:10913   */\n    tag_61:\n        /* \"#utility.yul\":10637:10643   */\n      0x00\n        /* \"#utility.yul\":10674:10675   */\n      0x02\n        /* \"#utility.yul\":10668:10672   */\n      dup3\n        /* \"#utility.yul\":10664:10676   */\n      div\n        /* \"#utility.yul\":10654:10676   */\n      swap1\n      pop\n        /* \"#utility.yul\":10721:10722   */\n      0x01\n        /* \"#utility.yul\":10715:10719   */\n      dup3\n        /* \"#utility.yul\":10711:10723   */\n      and\n        /* \"#utility.yul\":10742:10760   */\n      dup1\n        /* \"#utility.yul\":10732:10813   */\n      tag_294\n      jumpi\n        /* \"#utility.yul\":10798:10802   */\n      0x7f\n        /* \"#utility.yul\":10790:10796   */\n      dup3\n        /* \"#utility.yul\":10786:10803   */\n      and\n        /* \"#utility.yul\":10776:10803   */\n      swap2\n      pop\n        /* \"#utility.yul\":10732:10813   */\n    tag_294:\n        /* \"#utility.yul\":10860:10862   */\n      0x20\n        /* \"#utility.yul\":10852:10858   */\n      dup3\n        /* \"#utility.yul\":10849:10863   */\n      lt\n        /* \"#utility.yul\":10829:10847   */\n      dup2\n        /* \"#utility.yul\":10826:10864   */\n      sub\n        /* \"#utility.yul\":10823:10907   */\n      tag_295\n      jumpi\n        /* \"#utility.yul\":10879:10897   */\n      tag_296\n      tag_146\n      jump\t// in\n    tag_296:\n        /* \"#utility.yul\":10823:10907   */\n    tag_295:\n        /* \"#utility.yul\":10644:10913   */\n      pop\n        /* \"#utility.yul\":10593:10913   */\n      swap2\n      swap1\n      pop\n      jump\t// out\n        /* \"#utility.yul\":10919:11060   */\n    tag_147:\n        /* \"#utility.yul\":10968:10972   */\n      0x00\n        /* \"#utility.yul\":10991:10994   */\n      dup2\n        /* \"#utility.yul\":10983:10994   */\n      swap1\n      pop\n        /* \"#utility.yul\":11014:11017   */\n      dup2\n        /* \"#utility.yul\":11011:11012   */\n      0x00\n        /* \"#utility.yul\":11004:11018   */\n      mstore\n        /* \"#utility.yul\":11048:11052   */\n      0x20\n        /* \"#utility.yul\":11045:11046   */\n      0x00\n        /* \"#utility.yul\":11035:11053   */\n      keccak256\n        /* \"#utility.yul\":11027:11053   */\n      swap1\n      pop\n        /* \"#utility.yul\":10919:11060   */\n      swap2\n      swap1\n      pop\n      jump\t// out\n        /* \"#utility.yul\":11066:11159   */\n    tag_148:\n        /* \"#utility.yul\":11103:11109   */\n      0x00\n        /* \"#utility.yul\":11150:11152   */\n      0x20\n        /* \"#utility.yul\":11145:11147   */\n      0x1f\n        /* \"#utility.yul\":11138:11143   */\n      dup4\n        /* \"#utility.yul\":11134:11148   */\n      add\n        /* \"#utility.yul\":11130:11153   */\n      div\n        /* \"#utility.yul\":11120:11153   */\n      swap1\n      pop\n        /* \"#utility.yul\":11066:11159   */\n      swap2\n      swap1\n      pop\n      jump\t// out\n        /* \"#utility.yul\":11165:11272   */\n    tag_149:\n        /* \"#utility.yul\":11209:11217   */\n      0x00\n        /* \"#utility.yul\":11259:11264   */\n      dup3\n        /* \"#utility.yul\":11253:11257   */\n      dup3\n        /* \"#utility.yul\":11249:11265   */\n      shl\n        /* \"#utility.yul\":11228:11265   */\n      swap1\n      pop\n        /* \"#utility.yul\":11165:11272   */\n      swap3\n      swap2\n      pop\n      pop\n      jump\t// out\n        /* \"#utility.yul\":11278:11671   */\n    tag_150:\n        /* \"#utility.yul\":11347:11353   */\n      0x00\n        /* \"#utility.yul\":11397:11398   */\n      0x08\n        /* \"#utility.yul\":11385:11395   */\n      dup4\n        /* \"#utility.yul\":11381:11399   */\n      mul\n        /* \"#utility.yul\":11420:11517   */\n      tag_301\n        /* \"#utility.yul\":11450:11516   */\n      0xffffffffffffffffffffffffffffffffffffffffffffffffffffffffffffffff\n        /* \"#utility.yul\":11439:11448   */\n      dup3\n        /* \"#utility.yul\":11420:11517   */\n      tag_149\n      jump\t// in\n    tag_301:\n        /* \"#utility.yul\":11538:11577   */\n      tag_302\n        /* \"#utility.yul\":11568:11576   */\n      dup7\n        /* \"#utility.yul\":11557:11566   */\n      dup4\n        /* \"#utility.yul\":11538:11577   */\n      tag_149\n      jump\t// in\n    tag_302:\n        /* \"#utility.yul\":11526:11577   */\n      swap6\n      pop\n        /* \"#utility.yul\":11610:11614   */\n      dup1\n        /* \"#utility.yul\":11606:11615   */\n      not\n        /* \"#utility.yul\":11599:11604   */\n      dup5\n        /* \"#utility.yul\":11595:11616   */\n      and\n        /* \"#utility.yul\":11586:11616   */\n      swap4\n      pop\n        /* \"#utility.yul\":11659:11663   */\n      dup1\n        /* \"#utility.yul\":11649:11657   */\n      dup7\n        /* \"#utility.yul\":11645:11664   */\n      and\n        /* \"#utility.yul\":11638:11643   */\n      dup5\n        /* \"#utility.yul\":11635:11665   */\n      or\n        /* \"#utility.yul\":11625:11665   */\n      swap3\n      pop\n        /* \"#utility.yul\":11354:11671   */\n      pop\n      pop\n        /* \"#utility.yul\":11278:11671   */\n      swap4\n      swap3\n      pop\n      pop\n      pop\n      jump\t// out\n        /* \"#utility.yul\":11677:11737   */\n    tag_151:\n        /* \"#utility.yul\":11705:11708   */\n      0x00\n        /* \"#utility.yul\":11726:11731   */\n      dup2\n        /* \"#utility.yul\":11719:11731   */\n      swap1\n      pop\n        /* \"#utility.yul\":11677:11737   */\n      swap2\n      swap1\n      pop\n      jump\t// out\n        /* \"#utility.yul\":11743:11885   */\n    tag_152:\n        /* \"#utility.yul\":11793:11802   */\n      0x00\n        /* \"#utility.yul\":11826:11879   */\n      tag_305\n        /* \"#utility.yul\":11844:11878   */\n      tag_306\n        /* \"#utility.yul\":11853:11877   */\n      tag_307\n        /* \"#utility.yul\":11871:11876   */\n      dup5\n        /* \"#utility.yul\":11853:11877   */\n      tag_129\n      jump\t// in\n    tag_307:\n        /* \"#utility.yul\":11844:11878   */\n      tag_151\n      jump\t// in\n    tag_306:\n        /* \"#utility.yul\":11826:11879   */\n      tag_129\n      jump\t// in\n    tag_305:\n        /* \"#utility.yul\":11813:11879   */\n      swap1\n      pop\n        /* \"#utility.yul\":11743:11885   */\n      swap2\n      swap1\n      pop\n      jump\t// out\n        /* \"#utility.yul\":11891:11966   */\n    tag_153:\n        /* \"#utility.yul\":11934:11937   */\n      0x00\n        /* \"#utility.yul\":11955:11960   */\n      dup2\n        /* \"#utility.yul\":11948:11960   */\n      swap1\n      pop\n        /* \"#utility.yul\":11891:11966   */\n      swap2\n      swap1\n      pop\n      jump\t// out\n        /* \"#utility.yul\":11972:12241   */\n    tag_154:\n        /* \"#utility.yul\":12082:12121   */\n      tag_310\n        /* \"#utility.yul\":12113:12120   */\n      dup4\n        /* \"#utility.yul\":12082:12121   */\n      tag_152\n      jump\t// in\n    tag_310:\n        /* \"#utility.yul\":12143:12234   */\n      tag_311\n        /* \"#utility.yul\":12192:12233   */\n      tag_312\n        /* \"#utility.yul\":12216:12232   */\n      dup3\n        /* \"#utility.yul\":12192:12233   */\n      tag_153\n      jump\t// in\n    tag_312:\n        /* \"#utility.yul\":12184:12190   */\n      dup5\n        /* \"#utility.yul\":12177:12181   */\n      dup5\n        /* \"#utility.yul\":12171:12182   */\n      sload\n        /* \"#utility.yul\":12143:12234   */\n      tag_150\n      jump\t// in\n    tag_311:\n        /* \"#utility.yul\":12137:12141   */\n      dup3\n        /* \"#utility.yul\":12130:12235   */\n      sstore\n        /* \"#utility.yul\":12048:12241   */\n      pop\n        /* \"#utility.yul\":11972:12241   */\n      pop\n      pop\n      pop\n      jump\t// out\n        /* \"#utility.yul\":12247:12320   */\n    tag_155:\n        /* \"#utility.yul\":12292:12295   */\n      0x00\n        /* \"#utility.yul\":12313:12314   */\n      0x00\n        /* \"#utility.yul\":12306:12314   */\n      swap1\n      pop\n        /* \"#utility.yul\":12247:12320   */\n      swap1\n      jump\t// out\n        /* \"#utility.yul\":12326:12515   */\n    tag_156:\n        /* \"#utility.yul\":12403:12435   */\n      tag_315\n      tag_155\n      jump\t// in\n    tag_315:\n        /* \"#utility.yul\":12444:12509   */\n      tag_316\n        /* \"#utility.yul\":12502:12508   */\n      dup2\n        /* \"#utility.yul\":12494:12500   */\n      dup5\n        /* \"#utility.yul\":12488:12492   */\n      dup5\n        /* \"#utility.yul\":12444:12509   */\n      tag_154\n      jump\t// in\n    tag_316:\n        /* \"#utility.yul\":12379:12515   */\n      pop\n        /* \"#utility.yul\":12326:12515   */\n      pop\n      pop\n      jump\t// out\n        /* \"#utility.yul\":12521:12707   */\n    tag_157:\n        /* \"#utility.yul\":12581:12701   */\n    tag_318:\n        /* \"#utility.yul\":12598:12601   */\n      dup2\n        /* \"#utility.yul\":12591:12596   */\n      dup2\n        /* \"#utility.yul\":12588:12602   */\n      lt\n        /* \"#utility.yul\":12581:12701   */\n      iszero\n      tag_320\n      jumpi\n        /* \"#utility.yul\":12652:12691   */\n      tag_321\n        /* \"#utility.yul\":12689:12690   */\n      0x00\n        /* \"#utility.yul\":12682:12687   */\n      dup3\n        /* \"#utility.yul\":12652:12691   */\n      tag_156\n      jump\t// in\n    tag_321:\n        /* \"#utility.yul\":12625:12626   */\n      0x01\n        /* \"#utility.yul\":12618:12623   */\n      dup2\n        /* \"#utility.yul\":12614:12627   */\n      add\n        /* \"#utility.yul\":12605:12627   */\n      swap1\n      pop\n        /* \"#utility.yul\":12581:12701   */\n      jump(tag_318)\n    tag_320:\n        /* \"#utility.yul\":12521:12707   */\n      pop\n      pop\n      jump\t// out\n        /* \"#utility.yul\":12713:13256   */\n    tag_158:\n        /* \"#utility.yul\":12814:12816   */\n      0x1f\n        /* \"#utility.yul\":12809:12812   */\n      dup3\n        /* \"#utility.yul\":12806:12817   */\n      gt\n        /* \"#utility.yul\":12803:13249   */\n      iszero\n      tag_323\n      jumpi\n        /* \"#utility.yul\":12848:12886   */\n      tag_324\n        /* \"#utility.yul\":12880:12885   */\n      dup2\n        /* \"#utility.yul\":12848:12886   */\n      tag_147\n      jump\t// in\n    tag_324:\n        /* \"#utility.yul\":12932:12961   */\n      tag_325\n        /* \"#utility.yul\":12950:12960   */\n      dup5\n        /* \"#utility.yul\":12932:12961   */\n      tag_148\n      jump\t// in\n    tag_325:\n        /* \"#utility.yul\":12922:12930   */\n      dup2\n        /* \"#utility.yul\":12918:12962   */\n      add\n        /* \"#utility.yul\":13115:13117   */\n      0x20\n        /* \"#utility.yul\":13103:13113   */\n      dup6\n        /* \"#utility.yul\":13100:13118   */\n      lt\n        /* \"#utility.yul\":13097:13146   */\n      iszero\n      tag_326\n      jumpi\n        /* \"#utility.yul\":13136:13144   */\n      dup2\n        /* \"#utility.yul\":13121:13144   */\n      swap1\n      pop\n        /* \"#utility.yul\":13097:13146   */\n    tag_326:\n        /* \"#utility.yul\":13159:13239   */\n      tag_327\n        /* \"#utility.yul\":13215:13237   */\n      tag_328\n        /* \"#utility.yul\":13233:13236   */\n      dup6\n        /* \"#utility.yul\":13215:13237   */\n      tag_148\n      jump\t// in\n    tag_328:\n        /* \"#utility.yul\":13205:13213   */\n      dup4\n        /* \"#utility.yul\":13201:13238   */\n      add\n        /* \"#utility.yul\":13188:13199   */\n      dup3\n        /* \"#utility.yul\":13159:13239   */\n      tag_157\n      jump\t// in\n    tag_327:\n        /* \"#utility.yul\":12818:13249   */\n      pop\n      pop\n        /* \"#utility.yul\":12803:13249   */\n    tag_323:\n        /* \"#utility.yul\":12713:13256   */\n      pop\n      pop\n      pop\n      jump\t// out\n        /* \"#utility.yul\":13262:13379   */\n    tag_159:\n        /* \"#utility.yul\":13316:13324   */\n      0x00\n        /* \"#utility.yul\":13366:13371   */\n      dup3\n        /* \"#utility.yul\":13360:13364   */\n      dup3\n        /* \"#utility.yul\":13356:13372   */\n      shr\n        /* \"#utility.yul\":13335:13372   */\n      swap1\n      pop\n        /* \"#utility.yul\":13262:13379   */\n      swap3\n      swap2\n      pop\n      pop\n      jump\t// out\n        /* \"#utility.yul\":13385:13554   */\n    tag_160:\n        /* \"#utility.yul\":13429:13435   */\n      0x00\n        /* \"#utility.yul\":13462:13513   */\n      tag_331\n        /* \"#utility.yul\":13510:13511   */\n      0x00\n        /* \"#utility.yul\":13506:13512   */\n      not\n        /* \"#utility.yul\":13498:13503   */\n      dup5\n        /* \"#utility.yul\":13495:13496   */\n      0x08\n        /* \"#utility.yul\":13491:13504   */\n      mul\n        /* \"#utility.yul\":13462:13513   */\n      tag_159\n      jump\t// in\n    tag_331:\n        /* \"#utility.yul\":13458:13514   */\n      not\n        /* \"#utility.yul\":13543:13547   */\n      dup1\n        /* \"#utility.yul\":13537:13541   */\n      dup4\n        /* \"#utility.yul\":13533:13548   */\n      and\n        /* \"#utility.yul\":13523:13548   */\n      swap2\n      pop\n        /* \"#utility.yul\":13436:13554   */\n      pop\n        /* \"#utility.yul\":13385:13554   */\n      swap3\n      swap2\n      pop\n      pop\n      jump\t// out\n        /* \"#utility.yul\":13559:13854   */\n    tag_161:\n        /* \"#utility.yul\":13635:13639   */\n      0x00\n        /* \"#utility.yul\":13781:13810   */\n      tag_333\n        /* \"#utility.yul\":13806:13809   */\n      dup4\n        /* \"#utility.yul\":13800:13804   */\n      dup4\n        /* \"#utility.yul\":13781:13810   */\n      tag_160\n      jump\t// in\n    tag_333:\n        /* \"#utility.yul\":13773:13810   */\n      swap2\n      pop\n        /* \"#utility.yul\":13843:13846   */\n      dup3\n        /* \"#utility.yul\":13840:13841   */\n      0x02\n        /* \"#utility.yul\":13836:13847   */\n      mul\n        /* \"#utility.yul\":13830:13834   */\n      dup3\n        /* \"#utility.yul\":13827:13848   */\n      or\n        /* \"#utility.yul\":13819:13848   */\n      swap1\n      pop\n        /* \"#utility.yul\":13559:13854   */\n      swap3\n      swap2\n      pop\n      pop\n      jump\t// out\n        /* \"#utility.yul\":13859:15254   */\n    tag_55:\n        /* \"#utility.yul\":13976:14013   */\n      tag_335\n        /* \"#utility.yul\":14009:14012   */\n      dup3\n        /* \"#utility.yul\":13976:14013   */\n      tag_135\n      jump\t// in\n    tag_335:\n        /* \"#utility.yul\":14078:14096   */\n      0xffffffffffffffff\n        /* \"#utility.yul\":14070:14076   */\n      dup2\n        /* \"#utility.yul\":14067:14097   */\n      gt\n        /* \"#utility.yul\":14064:14120   */\n      iszero\n      tag_336\n      jumpi\n        /* \"#utility.yul\":14100:14118   */\n      tag_337\n      tag_122\n      jump\t// in\n    tag_337:\n        /* \"#utility.yul\":14064:14120   */\n    tag_336:\n        /* \"#utility.yul\":14144:14182   */\n      tag_338\n        /* \"#utility.yul\":14176:14180   */\n      dup3\n        /* \"#utility.yul\":14170:14181   */\n      sload\n        /* \"#utility.yul\":14144:14182   */\n      tag_61\n      jump\t// in\n    tag_338:\n        /* \"#utility.yul\":14229:14296   */\n      tag_339\n        /* \"#utility.yul\":14289:14295   */\n      dup3\n        /* \"#utility.yul\":14281:14287   */\n      dup3\n        /* \"#utility.yul\":14275:14279   */\n      dup6\n        /* \"#utility.yul\":14229:14296   */\n      tag_158\n      jump\t// in\n    tag_339:\n        /* \"#utility.yul\":14323:14324   */\n      0x00\n        /* \"#utility.yul\":14347:14351   */\n      0x20\n        /* \"#utility.yul\":14334:14351   */\n      swap1\n      pop\n        /* \"#utility.yul\":14379:14381   */\n      0x1f\n        /* \"#utility.yul\":14371:14377   */\n      dup4\n        /* \"#utility.yul\":14368:14382   */\n      gt\n        /* \"#utility.yul\":14396:14397   */\n      0x01\n        /* \"#utility.yul\":14391:15009   */\n      dup2\n      eq\n      tag_341\n      jumpi\n        /* \"#utility.yul\":15053:15054   */\n      0x00\n        /* \"#utility.yul\":15070:15076   */\n      dup5\n        /* \"#utility.yul\":15067:15144   */\n      iszero\n      tag_342\n      jumpi\n        /* \"#utility.yul\":15119:15128   */\n      dup3\n        /* \"#utility.yul\":15114:15117   */\n      dup8\n        /* \"#utility.yul\":15110:15129   */\n      add\n        /* \"#utility.yul\":15104:15130   */\n      mload\n        /* \"#utility.yul\":15095:15130   */\n      swap1\n      pop\n        /* \"#utility.yul\":15067:15144   */\n    tag_342:\n        /* \"#utility.yul\":15170:15237   */\n      tag_343\n        /* \"#utility.yul\":15230:15236   */\n      dup6\n        /* \"#utility.yul\":15223:15228   */\n      dup3\n        /* \"#utility.yul\":15170:15237   */\n      tag_161\n      jump\t// in\n    tag_343:\n        /* \"#utility.yul\":15164:15168   */\n      dup7\n        /* \"#utility.yul\":15157:15238   */\n      sstore\n        /* \"#utility.yul\":15026:15248   */\n      pop\n        /* \"#utility.yul\":14361:15248   */\n      jump(tag_340)\n        /* \"#utility.yul\":14391:15009   */\n    tag_341:\n        /* \"#utility.yul\":14443:14447   */\n      0x1f\n        /* \"#utility.yul\":14439:14448   */\n      not\n        /* \"#utility.yul\":14431:14437   */\n      dup5\n        /* \"#utility.yul\":14427:14449   */\n      and\n        /* \"#utility.yul\":14477:14514   */\n      tag_344\n        /* \"#utility.yul\":14509:14513   */\n      dup7\n        /* \"#utility.yul\":14477:14514   */\n      tag_147\n      jump\t// in\n    tag_344:\n        /* \"#utility.yul\":14536:14537   */\n      0x00\n        /* \"#utility.yul\":14550:14758   */\n    tag_345:\n        /* \"#utility.yul\":14564:14571   */\n      dup3\n        /* \"#utility.yul\":14561:14562   */\n      dup2\n        /* \"#utility.yul\":14558:14572   */\n      lt\n        /* \"#utility.yul\":14550:14758   */\n      iszero\n      tag_347\n      jumpi\n        /* \"#utility.yul\":14643:14652   */\n      dup5\n        /* \"#utility.yul\":14638:14641   */\n      dup10\n        /* \"#utility.yul\":14634:14653   */\n      add\n        /* \"#utility.yul\":14628:14654   */\n      mload\n        /* \"#utility.yul\":14620:14626   */\n      dup3\n        /* \"#utility.yul\":14613:14655   */\n      sstore\n        /* \"#utility.yul\":14694:14695   */\n      0x01\n        /* \"#utility.yul\":14686:14692   */\n      dup3\n        /* \"#utility.yul\":14682:14696   */\n      add\n        /* \"#utility.yul\":14672:14696   */\n      swap2\n      pop\n        /* \"#utility.yul\":14741:14743   */\n      0x20\n        /* \"#utility.yul\":14730:14739   */\n      dup6\n        /* \"#utility.yul\":14726:14744   */\n      add\n        /* \"#utility.yul\":14713:14744   */\n      swap5\n      pop\n        /* \"#utility.yul\":14587:14591   */\n      0x20\n        /* \"#utility.yul\":14584:14585   */\n      dup2\n        /* \"#utility.yul\":14580:14592   */\n      add\n        /* \"#utility.yul\":14575:14592   */\n      swap1\n      pop\n        /* \"#utility.yul\":14550:14758   */\n      jump(tag_345)\n    tag_347:\n        /* \"#utility.yul\":14786:14792   */\n      dup7\n        /* \"#utility.yul\":14777:14784   */\n      dup4\n        /* \"#utility.yul\":14774:14793   */\n      lt\n        /* \"#utility.yul\":14771:14950   */\n      iszero\n      tag_348\n      jumpi\n        /* \"#utility.yul\":14844:14853   */\n      dup5\n        /* \"#utility.yul\":14839:14842   */\n      dup10\n        /* \"#utility.yul\":14835:14854   */\n      add\n        /* \"#utility.yul\":14829:14855   */\n      mload\n        /* \"#utility.yul\":14887:14935   */\n      tag_349\n        /* \"#utility.yul\":14929:14933   */\n      0x1f\n        /* \"#utility.yul\":14921:14927   */\n      dup10\n        /* \"#utility.yul\":14917:14934   */\n      and\n        /* \"#utility.yul\":14906:14915   */\n      dup3\n        /* \"#utility.yul\":14887:14935   */\n      tag_160\n      jump\t// in\n    tag_349:\n        /* \"#utility.yul\":14879:14885   */\n      dup4\n        /* \"#utility.yul\":14872:14936   */\n      sstore\n        /* \"#utility.yul\":14794:14950   */\n      pop\n        /* \"#utility.yul\":14771:14950   */\n    tag_348:\n        /* \"#utility.yul\":14996:14997   */\n      0x01\n        /* \"#utility.yul\":14992:14993   */\n      0x02\n        /* \"#utility.yul\":14984:14990   */\n      dup9\n        /* \"#utility.yul\":14980:14994   */\n      mul\n        /* \"#utility.yul\":14976:14998   */\n      add\n        /* \"#utility.yul\":14970:14974   */\n      dup9\n        /* \"#utility.yul\":14963:14999   */\n      sstore\n        /* \"#utility.yul\":14398:15009   */\n      pop\n      pop\n      pop\n        /* \"#utility.yul\":14361:15248   */\n    tag_340:\n      pop\n        /* \"#utility.yul\":13951:15254   */\n      pop\n      pop\n      pop\n        /* \"#utility.yul\":13859:15254   */\n      pop\n      pop\n      jump\t// out\n        /* \"#utility.yul\":15260:15440   */\n    tag_162:\n        /* \"#utility.yul\":15308:15385   */\n      0x4e487b7100000000000000000000000000000000000000000000000000000000\n        /* \"#utility.yul\":15305:15306   */\n      0x00\n        /* \"#utility.yul\":15298:15386   */\n      mstore\n        /* \"#utility.yul\":15405:15409   */\n      0x11\n        /* \"#utility.yul\":15402:15403   */\n      0x04\n        /* \"#utility.yul\":15395:15410   */\n      mstore\n        /* \"#utility.yul\":15429:15433   */\n      0x24\n        /* \"#utility.yul\":15426:15427   */\n      0x00\n        /* \"#utility.yul\":15419:15434   */\n      revert\n        /* \"#utility.yul\":15446:15679   */\n    tag_57:\n        /* \"#utility.yul\":15485:15488   */\n      0x00\n        /* \"#utility.yul\":15508:15532   */\n      tag_352\n        /* \"#utility.yul\":15526:15531   */\n      dup3\n        /* \"#utility.yul\":15508:15532   */\n      tag_129\n      jump\t// in\n    tag_352:\n        /* \"#utility.yul\":15499:15532   */\n      swap2\n      pop\n        /* \"#utility.yul\":15554:15620   */\n      0xffffffffffffffffffffffffffffffffffffffffffffffffffffffffffffffff\n        /* \"#utility.yul\":15547:15552   */\n      dup3\n        /* \"#utility.yul\":15544:15621   */\n      sub\n        /* \"#utility.yul\":15541:15644   */\n      tag_353\n      jumpi\n        /* \"#utility.yul\":15624:15642   */\n      tag_354\n      tag_162\n      jump\t// in\n    tag_354:\n        /* \"#utility.yul\":15541:15644   */\n    tag_353:\n        /* \"#utility.yul\":15671:15672   */\n      0x01\n        /* \"#utility.yul\":15664:15669   */\n      dup3\n        /* \"#utility.yul\":15660:15673   */\n      add\n        /* \"#utility.yul\":15653:15673   */\n      swap1\n      pop\n        /* \"#utility.yul\":15446:15679   */\n      swap2\n      swap1\n      pop\n      jump\t// out\n        /* \"#utility.yul\":15685:16329   */\n    tag_59:\n        /* \"#utility.yul\":15882:15886   */\n      0x00\n        /* \"#utility.yul\":15920:15923   */\n      0x80\n        /* \"#utility.yul\":15909:15918   */\n      dup3\n        /* \"#utility.yul\":15905:15924   */\n      add\n        /* \"#utility.yul\":15897:15924   */\n      swap1\n      pop\n        /* \"#utility.yul\":15970:15979   */\n      dup2\n        /* \"#utility.yul\":15964:15968   */\n      dup2\n        /* \"#utility.yul\":15960:15980   */\n      sub\n        /* \"#utility.yul\":15956:15957   */\n      0x00\n        /* \"#utility.yul\":15945:15954   */\n      dup4\n        /* \"#utility.yul\":15941:15958   */\n      add\n        /* \"#utility.yul\":15934:15981   */\n      mstore\n        /* \"#utility.yul\":15998:16076   */\n      tag_356\n        /* \"#utility.yul\":16071:16075   */\n      dup2\n        /* \"#utility.yul\":16062:16068   */\n      dup8\n        /* \"#utility.yul\":15998:16076   */\n      tag_138\n      jump\t// in\n    tag_356:\n        /* \"#utility.yul\":15990:16076   */\n      swap1\n      pop\n        /* \"#utility.yul\":16086:16158   */\n      tag_357\n        /* \"#utility.yul\":16154:16156   */\n      0x20\n        /* \"#utility.yul\":16143:16152   */\n      dup4\n        /* \"#utility.yul\":16139:16157   */\n      add\n        /* \"#utility.yul\":16130:16136   */\n      dup7\n        /* \"#utility.yul\":16086:16158   */\n      tag_139\n      jump\t// in\n    tag_357:\n        /* \"#utility.yul\":16168:16240   */\n      tag_358\n        /* \"#utility.yul\":16236:16238   */\n      0x40\n        /* \"#utility.yul\":16225:16234   */\n      dup4\n        /* \"#utility.yul\":16221:16239   */\n      add\n        /* \"#utility.yul\":16212:16218   */\n      dup6\n        /* \"#utility.yul\":16168:16240   */\n      tag_139\n      jump\t// in\n    tag_358:\n        /* \"#utility.yul\":16250:16322   */\n      tag_359\n        /* \"#utility.yul\":16318:16320   */\n      0x60\n        /* \"#utility.yul\":16307:16316   */\n      dup4\n        /* \"#utility.yul\":16303:16321   */\n      add\n        /* \"#utility.yul\":16294:16300   */\n      dup5\n        /* \"#utility.yul\":16250:16322   */\n      tag_139\n      jump\t// in\n    tag_359:\n        /* \"#utility.yul\":15685:16329   */\n      swap6\n      swap5\n      pop\n      pop\n      pop\n      pop\n      pop\n      jump\t// out\n        /* \"#utility.yul\":16335:16505   */\n    tag_163:\n        /* \"#utility.yul\":16475:16497   */\n      0x4576656e7420646f6573206e6f74206578697374000000000000000000000000\n        /* \"#utility.yul\":16471:16472   */\n      0x00\n        /* \"#utility.yul\":16463:16469   */\n      dup3\n        /* \"#utility.yul\":16459:16473   */\n      add\n        /* \"#utility.yul\":16452:16498   */\n      mstore\n        /* \"#utility.yul\":16335:16505   */\n      pop\n      jump\t// out\n        /* \"#utility.yul\":16511:16877   */\n    tag_164:\n        /* \"#utility.yul\":16653:16656   */\n      0x00\n        /* \"#utility.yul\":16674:16741   */\n      tag_362\n        /* \"#utility.yul\":16738:16740   */\n      0x14\n        /* \"#utility.yul\":16733:16736   */\n      dup4\n        /* \"#utility.yul\":16674:16741   */\n      tag_136\n      jump\t// in\n    tag_362:\n        /* \"#utility.yul\":16667:16741   */\n      swap2\n      pop\n        /* \"#utility.yul\":16750:16843   */\n      tag_363\n        /* \"#utility.yul\":16839:16842   */\n      dup3\n        /* \"#utility.yul\":16750:16843   */\n      tag_163\n      jump\t// in\n    tag_363:\n        /* \"#utility.yul\":16868:16870   */\n      0x20\n        /* \"#utility.yul\":16863:16866   */\n      dup3\n        /* \"#utility.yul\":16859:16871   */\n      add\n        /* \"#utility.yul\":16852:16871   */\n      swap1\n      pop\n        /* \"#utility.yul\":16511:16877   */\n      swap2\n      swap1\n      pop\n      jump\t// out\n        /* \"#utility.yul\":16883:17302   */\n    tag_70:\n        /* \"#utility.yul\":17049:17053   */\n      0x00\n        /* \"#utility.yul\":17087:17089   */\n      0x20\n        /* \"#utility.yul\":17076:17085   */\n      dup3\n        /* \"#utility.yul\":17072:17090   */\n      add\n        /* \"#utility.yul\":17064:17090   */\n      swap1\n      pop\n        /* \"#utility.yul\":17136:17145   */\n      dup2\n        /* \"#utility.yul\":17130:17134   */\n      dup2\n        /* \"#utility.yul\":17126:17146   */\n      sub\n        /* \"#utility.yul\":17122:17123   */\n      0x00\n        /* \"#utility.yul\":17111:17120   */\n      dup4\n        /* \"#utility.yul\":17107:17124   */\n      add\n        /* \"#utility.yul\":17100:17147   */\n      mstore\n        /* \"#utility.yul\":17164:17295   */\n      tag_365\n        /* \"#utility.yul\":17290:17294   */\n      dup2\n        /* \"#utility.yul\":17164:17295   */\n      tag_164\n      jump\t// in\n    tag_365:\n        /* \"#utility.yul\":17156:17295   */\n      swap1\n      pop\n        /* \"#utility.yul\":16883:17302   */\n      swap2\n      swap1\n      pop\n      jump\t// out\n        /* \"#utility.yul\":17308:17482   */\n    tag_165:\n        /* \"#utility.yul\":17448:17474   */\n      0x4576656e742068617320616c7265616479207061737365640000000000000000\n        /* \"#utility.yul\":17444:17445   */\n      0x00\n        /* \"#utility.yul\":17436:17442   */\n      dup3\n        /* \"#utility.yul\":17432:17446   */\n      add\n        /* \"#utility.yul\":17425:17475   */\n      mstore\n        /* \"#utility.yul\":17308:17482   */\n      pop\n      jump\t// out\n        /* \"#utility.yul\":17488:17854   */\n    tag_166:\n        /* \"#utility.yul\":17630:17633   */\n      0x00\n        /* \"#utility.yul\":17651:17718   */\n      tag_368\n        /* \"#utility.yul\":17715:17717   */\n      0x18\n        /* \"#utility.yul\":17710:17713   */\n      dup4\n        /* \"#utility.yul\":17651:17718   */\n      tag_136\n      jump\t// in\n    tag_368:\n        /* \"#utility.yul\":17644:17718   */\n      swap2\n      pop\n        /* \"#utility.yul\":17727:17820   */\n      tag_369\n        /* \"#utility.yul\":17816:17819   */\n      dup3\n        /* \"#utility.yul\":17727:17820   */\n      tag_165\n      jump\t// in\n    tag_369:\n        /* \"#utility.yul\":17845:17847   */\n      0x20\n        /* \"#utility.yul\":17840:17843   */\n      dup3\n        /* \"#utility.yul\":17836:17848   */\n      add\n        /* \"#utility.yul\":17829:17848   */\n      swap1\n      pop\n        /* \"#utility.yul\":17488:17854   */\n      swap2\n      swap1\n      pop\n      jump\t// out\n        /* \"#utility.yul\":17860:18279   */\n    tag_73:\n        /* \"#utility.yul\":18026:18030   */\n      0x00\n        /* \"#utility.yul\":18064:18066   */\n      0x20\n        /* \"#utility.yul\":18053:18062   */\n      dup3\n        /* \"#utility.yul\":18049:18067   */\n      add\n        /* \"#utility.yul\":18041:18067   */\n      swap1\n      pop\n        /* \"#utility.yul\":18113:18122   */\n      dup2\n        /* \"#utility.yul\":18107:18111   */\n      dup2\n        /* \"#utility.yul\":18103:18123   */\n      sub\n        /* \"#utility.yul\":18099:18100   */\n      0x00\n        /* \"#utility.yul\":18088:18097   */\n      dup4\n        /* \"#utility.yul\":18084:18101   */\n      add\n        /* \"#utility.yul\":18077:18124   */\n      mstore\n        /* \"#utility.yul\":18141:18272   */\n      tag_371\n        /* \"#utility.yul\":18267:18271   */\n      dup2\n        /* \"#utility.yul\":18141:18272   */\n      tag_166\n      jump\t// in\n    tag_371:\n        /* \"#utility.yul\":18133:18272   */\n      swap1\n      pop\n        /* \"#utility.yul\":17860:18279   */\n      swap2\n      swap1\n      pop\n      jump\t// out\n        /* \"#utility.yul\":18285:18461   */\n    tag_167:\n        /* \"#utility.yul\":18425:18453   */\n      0x4d75737420627579206174206c656173742031207469636b6574000000000000\n        /* \"#utility.yul\":18421:18422   */\n      0x00\n        /* \"#utility.yul\":18413:18419   */\n      dup3\n        /* \"#utility.yul\":18409:18423   */\n      add\n        /* \"#utility.yul\":18402:18454   */\n      mstore\n        /* \"#utility.yul\":18285:18461   */\n      pop\n      jump\t// out\n        /* \"#utility.yul\":18467:18833   */\n    tag_168:\n        /* \"#utility.yul\":18609:18612   */\n      0x00\n        /* \"#utility.yul\":18630:18697   */\n      tag_374\n        /* \"#utility.yul\":18694:18696   */\n      0x1a\n        /* \"#utility.yul\":18689:18692   */\n      dup4\n        /* \"#utility.yul\":18630:18697   */\n      tag_136\n      jump\t// in\n    tag_374:\n        /* \"#utility.yul\":18623:18697   */\n      swap2\n      pop\n        /* \"#utility.yul\":18706:18799   */\n      tag_375\n        /* \"#utility.yul\":18795:18798   */\n      dup3\n        /* \"#utility.yul\":18706:18799   */\n      tag_167\n      jump\t// in\n    tag_375:\n        /* \"#utility.yul\":18824:18826   */\n      0x20\n        /* \"#utility.yul\":18819:18822   */\n      dup3\n        /* \"#utility.yul\":18815:18827   */\n      add\n        /* \"#utility.yul\":18808:18827   */\n      swap1\n      pop\n        /* \"#utility.yul\":18467:18833   */\n      swap2\n      swap1\n      pop\n      jump\t// out\n        /* \"#utility.yul\":18839:19258   */\n    tag_76:\n        /* \"#utility.yul\":19005:19009   */\n      0x00\n        /* \"#utility.yul\":19043:19045   */\n      0x20\n        /* \"#utility.yul\":19032:19041   */\n      dup3\n        /* \"#utility.yul\":19028:19046   */\n      add\n        /* \"#utility.yul\":19020:19046   */\n      swap1\n      pop\n        /* \"#utility.yul\":19092:19101   */\n      dup2\n        /* \"#utility.yul\":19086:19090   */\n      dup2\n        /* \"#utility.yul\":19082:19102   */\n      sub\n        /* \"#utility.yul\":19078:19079   */\n      0x00\n        /* \"#utility.yul\":19067:19076   */\n      dup4\n        /* \"#utility.yul\":19063:19080   */\n      add\n        /* \"#utility.yul\":19056:19103   */\n      mstore\n        /* \"#utility.yul\":19120:19251   */\n      tag_377\n        /* \"#utility.yul\":19246:19250   */\n      dup2\n        /* \"#utility.yul\":19120:19251   */\n      tag_168\n      jump\t// in\n    tag_377:\n        /* \"#utility.yul\":19112:19251   */\n      swap1\n      pop\n        /* \"#utility.yul\":18839:19258   */\n      swap2\n      swap1\n      pop\n      jump\t// out\n        /* \"#utility.yul\":19264:19442   */\n    tag_169:\n        /* \"#utility.yul\":19404:19434   */\n      0x4e6f7420656e6f756768207469636b6574732072656d61696e696e6700000000\n        /* \"#utility.yul\":19400:19401   */\n      0x00\n        /* \"#utility.yul\":19392:19398   */\n      dup3\n        /* \"#utility.yul\":19388:19402   */\n      add\n        /* \"#utility.yul\":19381:19435   */\n      mstore\n        /* \"#utility.yul\":19264:19442   */\n      pop\n      jump\t// out\n        /* \"#utility.yul\":19448:19814   */\n    tag_170:\n        /* \"#utility.yul\":19590:19593   */\n      0x00\n        /* \"#utility.yul\":19611:19678   */\n      tag_380\n        /* \"#utility.yul\":19675:19677   */\n      0x1c\n        /* \"#utility.yul\":19670:19673   */\n      dup4\n        /* \"#utility.yul\":19611:19678   */\n      tag_136\n      jump\t// in\n    tag_380:\n        /* \"#utility.yul\":19604:19678   */\n      swap2\n      pop\n        /* \"#utility.yul\":19687:19780   */\n      tag_381\n        /* \"#utility.yul\":19776:19779   */\n      dup3\n        /* \"#utility.yul\":19687:19780   */\n      tag_169\n      jump\t// in\n    tag_381:\n        /* \"#utility.yul\":19805:19807   */\n      0x20\n        /* \"#utility.yul\":19800:19803   */\n      dup3\n        /* \"#utility.yul\":19796:19808   */\n      add\n        /* \"#utility.yul\":19789:19808   */\n      swap1\n      pop\n        /* \"#utility.yul\":19448:19814   */\n      swap2\n      swap1\n      pop\n      jump\t// out\n        /* \"#utility.yul\":19820:20239   */\n    tag_79:\n        /* \"#utility.yul\":19986:19990   */\n      0x00\n        /* \"#utility.yul\":20024:20026   */\n      0x20\n        /* \"#utility.yul\":20013:20022   */\n      dup3\n        /* \"#utility.yul\":20009:20027   */\n      add\n        /* \"#utility.yul\":20001:20027   */\n      swap1\n      pop\n        /* \"#utility.yul\":20073:20082   */\n      dup2\n        /* \"#utility.yul\":20067:20071   */\n      dup2\n        /* \"#utility.yul\":20063:20083   */\n      sub\n        /* \"#utility.yul\":20059:20060   */\n      0x00\n        /* \"#utility.yul\":20048:20057   */\n      dup4\n        /* \"#utility.yul\":20044:20061   */\n      add\n        /* \"#utility.yul\":20037:20084   */\n      mstore\n        /* \"#utility.yul\":20101:20232   */\n      tag_383\n        /* \"#utility.yul\":20227:20231   */\n      dup2\n        /* \"#utility.yul\":20101:20232   */\n      tag_170\n      jump\t// in\n    tag_383:\n        /* \"#utility.yul\":20093:20232   */\n      swap1\n      pop\n        /* \"#utility.yul\":19820:20239   */\n      swap2\n      swap1\n      pop\n      jump\t// out\n        /* \"#utility.yul\":20245:20655   */\n    tag_81:\n        /* \"#utility.yul\":20285:20292   */\n      0x00\n        /* \"#utility.yul\":20308:20328   */\n      tag_385\n        /* \"#utility.yul\":20326:20327   */\n      dup3\n        /* \"#utility.yul\":20308:20328   */\n      tag_129\n      jump\t// in\n    tag_385:\n        /* \"#utility.yul\":20303:20328   */\n      swap2\n      pop\n        /* \"#utility.yul\":20342:20362   */\n      tag_386\n        /* \"#utility.yul\":20360:20361   */\n      dup4\n        /* \"#utility.yul\":20342:20362   */\n      tag_129\n      jump\t// in\n    tag_386:\n        /* \"#utility.yul\":20337:20362   */\n      swap3\n      pop\n        /* \"#utility.yul\":20397:20398   */\n      dup3\n        /* \"#utility.yul\":20394:20395   */\n      dup3\n        /* \"#utility.yul\":20390:20399   */\n      mul\n        /* \"#utility.yul\":20419:20449   */\n      tag_387\n        /* \"#utility.yul\":20437:20448   */\n      dup2\n        /* \"#utility.yul\":20419:20449   */\n      tag_129\n      jump\t// in\n    tag_387:\n        /* \"#utility.yul\":20408:20449   */\n      swap2\n      pop\n        /* \"#utility.yul\":20598:20599   */\n      dup3\n        /* \"#utility.yul\":20589:20596   */\n      dup3\n        /* \"#utility.yul\":20585:20600   */\n      div\n        /* \"#utility.yul\":20582:20583   */\n      dup5\n        /* \"#utility.yul\":20579:20601   */\n      eq\n        /* \"#utility.yul\":20559:20560   */\n      dup4\n        /* \"#utility.yul\":20552:20561   */\n      iszero\n        /* \"#utility.yul\":20532:20615   */\n      or\n        /* \"#utility.yul\":20509:20648   */\n      tag_388\n      jumpi\n        /* \"#utility.yul\":20628:20646   */\n      tag_389\n      tag_162\n      jump\t// in\n    tag_389:\n        /* \"#utility.yul\":20509:20648   */\n    tag_388:\n        /* \"#utility.yul\":20293:20655   */\n      pop\n        /* \"#utility.yul\":20245:20655   */\n      swap3\n      swap2\n      pop\n      pop\n      jump\t// out\n        /* \"#utility.yul\":20661:20835   */\n    tag_171:\n        /* \"#utility.yul\":20801:20827   */\n      0x496e636f7272656374207061796d656e7420616d6f756e740000000000000000\n        /* \"#utility.yul\":20797:20798   */\n      0x00\n        /* \"#utility.yul\":20789:20795   */\n      dup3\n        /* \"#utility.yul\":20785:20799   */\n      add\n        /* \"#utility.yul\":20778:20828   */\n      mstore\n        /* \"#utility.yul\":20661:20835   */\n      pop\n      jump\t// out\n        /* \"#utility.yul\":20841:21207   */\n    tag_172:\n        /* \"#utility.yul\":20983:20986   */\n      0x00\n        /* \"#utility.yul\":21004:21071   */\n      tag_392\n        /* \"#utility.yul\":21068:21070   */\n      0x18\n        /* \"#utility.yul\":21063:21066   */\n      dup4\n        /* \"#utility.yul\":21004:21071   */\n      tag_136\n      jump\t// in\n    tag_392:\n        /* \"#utility.yul\":20997:21071   */\n      swap2\n      pop\n        /* \"#utility.yul\":21080:21173   */\n      tag_393\n        /* \"#utility.yul\":21169:21172   */\n      dup3\n        /* \"#utility.yul\":21080:21173   */\n      tag_171\n      jump\t// in\n    tag_393:\n        /* \"#utility.yul\":21198:21200   */\n      0x20\n        /* \"#utility.yul\":21193:21196   */\n      dup3\n        /* \"#utility.yul\":21189:21201   */\n      add\n        /* \"#utility.yul\":21182:21201   */\n      swap1\n      pop\n        /* \"#utility.yul\":20841:21207   */\n      swap2\n      swap1\n      pop\n      jump\t// out\n        /* \"#utility.yul\":21213:21632   */\n    tag_84:\n        /* \"#utility.yul\":21379:21383   */\n      0x00\n        /* \"#utility.yul\":21417:21419   */\n      0x20\n        /* \"#utility.yul\":21406:21415   */\n      dup3\n        /* \"#utility.yul\":21402:21420   */\n      add\n        /* \"#utility.yul\":21394:21420   */\n      swap1\n      pop\n        /* \"#utility.yul\":21466:21475   */\n      dup2\n        /* \"#utility.yul\":21460:21464   */\n      dup2\n        /* \"#utility.yul\":21456:21476   */\n      sub\n        /* \"#utility.yul\":21452:21453   */\n      0x00\n        /* \"#utility.yul\":21441:21450   */\n      dup4\n        /* \"#utility.yul\":21437:21454   */\n      add\n        /* \"#utility.yul\":21430:21477   */\n      mstore\n        /* \"#utility.yul\":21494:21625   */\n      tag_395\n        /* \"#utility.yul\":21620:21624   */\n      dup2\n        /* \"#utility.yul\":21494:21625   */\n      tag_172\n      jump\t// in\n    tag_395:\n        /* \"#utility.yul\":21486:21625   */\n      swap1\n      pop\n        /* \"#utility.yul\":21213:21632   */\n      swap2\n      swap1\n      pop\n      jump\t// out\n        /* \"#utility.yul\":21638:21832   */\n    tag_86:\n        /* \"#utility.yul\":21678:21682   */\n      0x00\n        /* \"#utility.yul\":21698:21718   */\n      tag_397\n        /* \"#utility.yul\":21716:21717   */\n      dup3\n        /* \"#utility.yul\":21698:21718   */\n      tag_129\n      jump\t// in\n    tag_397:\n        /* \"#utility.yul\":21693:21718   */\n      swap2\n      pop\n        /* \"#utility.yul\":21732:21752   */\n      tag_398\n        /* \"#utility.yul\":21750:21751   */\n      dup4\n        /* \"#utility.yul\":21732:21752   */\n      tag_129\n      jump\t// in\n    tag_398:\n        /* \"#utility.yul\":21727:21752   */\n      swap3\n      pop\n        /* \"#utility.yul\":21776:21777   */\n      dup3\n        /* \"#utility.yul\":21773:21774   */\n      dup3\n        /* \"#utility.yul\":21769:21778   */\n      sub\n        /* \"#utility.yul\":21761:21778   */\n      swap1\n      pop\n        /* \"#utility.yul\":21800:21801   */\n      dup2\n        /* \"#utility.yul\":21794:21798   */\n      dup2\n        /* \"#utility.yul\":21791:21802   */\n      gt\n        /* \"#utility.yul\":21788:21825   */\n      iszero\n      tag_399\n      jumpi\n        /* \"#utility.yul\":21805:21823   */\n      tag_400\n      tag_162\n      jump\t// in\n    tag_400:\n        /* \"#utility.yul\":21788:21825   */\n    tag_399:\n        /* \"#utility.yul\":21638:21832   */\n      swap3\n      swap2\n      pop\n      pop\n      jump\t// out\n        /* \"#utility.yul\":21838:22029   */\n    tag_88:\n        /* \"#utility.yul\":21878:21881   */\n      0x00\n        /* \"#utility.yul\":21897:21917   */\n      tag_402\n        /* \"#utility.yul\":21915:21916   */\n      dup3\n        /* \"#utility.yul\":21897:21917   */\n      tag_129\n      jump\t// in\n    tag_402:\n        /* \"#utility.yul\":21892:21917   */\n      swap2\n      pop\n        /* \"#utility.yul\":21931:21951   */\n      tag_403\n        /* \"#utility.yul\":21949:21950   */\n      dup4\n        /* \"#utility.yul\":21931:21951   */\n      tag_129\n      jump\t// in\n    tag_403:\n        /* \"#utility.yul\":21926:21951   */\n      swap3\n      pop\n        /* \"#utility.yul\":21974:21975   */\n      dup3\n        /* \"#utility.yul\":21971:21972   */\n      dup3\n        /* \"#utility.yul\":21967:21976   */\n      add\n        /* \"#utility.yul\":21960:21976   */\n      swap1\n      pop\n        /* \"#utility.yul\":21995:21998   */\n      dup1\n        /* \"#utility.yul\":21992:21993   */\n      dup3\n        /* \"#utility.yul\":21989:21999   */\n      gt\n        /* \"#utility.yul\":21986:22022   */\n      iszero\n      tag_404\n      jumpi\n        /* \"#utility.yul\":22002:22020   */\n      tag_405\n      tag_162\n      jump\t// in\n    tag_405:\n        /* \"#utility.yul\":21986:22022   */\n    tag_404:\n        /* \"#utility.yul\":21838:22029   */\n      swap3\n      swap2\n      pop\n      pop\n      jump\t// out\n        /* \"#utility.yul\":22035:22182   */\n    tag_173:\n        /* \"#utility.yul\":22136:22147   */\n      0x00\n        /* \"#utility.yul\":22173:22176   */\n      dup2\n        /* \"#utility.yul\":22158:22176   */\n      swap1\n      pop\n        /* \"#utility.yul\":22035:22182   */\n      swap3\n      swap2\n      pop\n      pop\n      jump\t// out\n        /* \"#utility.yul\":22188:22302   */\n    tag_174:\n      pop\n      jump\t// out\n        /* \"#utility.yul\":22308:22706   */\n    tag_175:\n        /* \"#utility.yul\":22467:22470   */\n      0x00\n        /* \"#utility.yul\":22488:22571   */\n      tag_409\n        /* \"#utility.yul\":22569:22570   */\n      0x00\n        /* \"#utility.yul\":22564:22567   */\n      dup4\n        /* \"#utility.yul\":22488:22571   */\n      tag_173\n      jump\t// in\n    tag_409:\n        /* \"#utility.yul\":22481:22571   */\n      swap2\n      pop\n        /* \"#utility.yul\":22580:22673   */\n      tag_410\n        /* \"#utility.yul\":22669:22672   */\n      dup3\n        /* \"#utility.yul\":22580:22673   */\n      tag_174\n      jump\t// in\n    tag_410:\n        /* \"#utility.yul\":22698:22699   */\n      0x00\n        /* \"#utility.yul\":22693:22696   */\n      dup3\n        /* \"#utility.yul\":22689:22700   */\n      add\n        /* \"#utility.yul\":22682:22700   */\n      swap1\n      pop\n        /* \"#utility.yul\":22308:22706   */\n      swap2\n      swap1\n      pop\n      jump\t// out\n        /* \"#utility.yul\":22712:23091   */\n    tag_90:\n        /* \"#utility.yul\":22896:22899   */\n      0x00\n        /* \"#utility.yul\":22918:23065   */\n      tag_412\n        /* \"#utility.yul\":23061:23064   */\n      dup3\n        /* \"#utility.yul\":22918:23065   */\n      tag_175\n      jump\t// in\n    tag_412:\n        /* \"#utility.yul\":22911:23065   */\n      swap2\n      pop\n        /* \"#utility.yul\":23082:23085   */\n      dup2\n        /* \"#utility.yul\":23075:23085   */\n      swap1\n      pop\n        /* \"#utility.yul\":22712:23091   */\n      swap2\n      swap1\n      pop\n      jump\t// out\n        /* \"#utility.yul\":23097:23261   */\n    tag_176:\n        /* \"#utility.yul\":23237:23253   */\n      0x5061796d656e74206661696c6564000000000000000000000000000000000000\n        /* \"#utility.yul\":23233:23234   */\n      0x00\n        /* \"#utility.yul\":23225:23231   */\n      dup3\n        /* \"#utility.yul\":23221:23235   */\n      add\n        /* \"#utility.yul\":23214:23254   */\n      mstore\n        /* \"#utility.yul\":23097:23261   */\n      pop\n      jump\t// out\n        /* \"#utility.yul\":23267:23633   */\n    tag_177:\n        /* \"#utility.yul\":23409:23412   */\n      0x00\n        /* \"#utility.yul\":23430:23497   */\n      tag_415\n        /* \"#utility.yul\":23494:23496   */\n      0x0e\n        /* \"#utility.yul\":23489:23492   */\n      dup4\n        /* \"#utility.yul\":23430:23497   */\n      tag_136\n      jump\t// in\n    tag_415:\n        /* \"#utility.yul\":23423:23497   */\n      swap2\n      pop\n        /* \"#utility.yul\":23506:23599   */\n      tag_416\n        /* \"#utility.yul\":23595:23598   */\n      dup3\n        /* \"#utility.yul\":23506:23599   */\n      tag_176\n      jump\t// in\n    tag_416:\n        /* \"#utility.yul\":23624:23626   */\n      0x20\n        /* \"#utility.yul\":23619:23622   */\n      dup3\n        /* \"#utility.yul\":23615:23627   */\n      add\n        /* \"#utility.yul\":23608:23627   */\n      swap1\n      pop\n        /* \"#utility.yul\":23267:23633   */\n      swap2\n      swap1\n      pop\n      jump\t// out\n        /* \"#utility.yul\":23639:24058   */\n    tag_96:\n        /* \"#utility.yul\":23805:23809   */\n      0x00\n        /* \"#utility.yul\":23843:23845   */\n      0x20\n        /* \"#utility.yul\":23832:23841   */\n      dup3\n        /* \"#utility.yul\":23828:23846   */\n      add\n        /* \"#utility.yul\":23820:23846   */\n      swap1\n      pop\n        /* \"#utility.yul\":23892:23901   */\n      dup2\n        /* \"#utility.yul\":23886:23890   */\n      dup2\n        /* \"#utility.yul\":23882:23902   */\n      sub\n        /* \"#utility.yul\":23878:23879   */\n      0x00\n        /* \"#utility.yul\":23867:23876   */\n      dup4\n        /* \"#utility.yul\":23863:23880   */\n      add\n        /* \"#utility.yul\":23856:23903   */\n      mstore\n        /* \"#utility.yul\":23920:24051   */\n      tag_418\n        /* \"#utility.yul\":24046:24050   */\n      dup2\n        /* \"#utility.yul\":23920:24051   */\n      tag_177\n      jump\t// in\n    tag_418:\n        /* \"#utility.yul\":23912:24051   */\n      swap1\n      pop\n        /* \"#utility.yul\":23639:24058   */\n      swap2\n      swap1\n      pop\n      jump\t// out\n        /* \"#utility.yul\":24064:24231   */\n    tag_178:\n        /* \"#utility.yul\":24204:24223   */\n      0x496e76616c696420726563697069656e74000000000000000000000000000000\n        /* \"#utility.yul\":24200:24201   */\n      0x00\n        /* \"#utility.yul\":24192:24198   */\n      dup3\n        /* \"#utility.yul\":24188:24202   */\n      add\n        /* \"#utility.yul\":24181:24224   */\n      mstore\n        /* \"#utility.yul\":24064:24231   */\n      pop\n      jump\t// out\n        /* \"#utility.yul\":24237:24603   */\n    tag_179:\n        /* \"#utility.yul\":24379:24382   */\n      0x00\n        /* \"#utility.yul\":24400:24467   */\n      tag_421\n        /* \"#utility.yul\":24464:24466   */\n      0x11\n        /* \"#utility.yul\":24459:24462   */\n      dup4\n        /* \"#utility.yul\":24400:24467   */\n      tag_136\n      jump\t// in\n    tag_421:\n        /* \"#utility.yul\":24393:24467   */\n      swap2\n      pop\n        /* \"#utility.yul\":24476:24569   */\n      tag_422\n        /* \"#utility.yul\":24565:24568   */\n      dup3\n        /* \"#utility.yul\":24476:24569   */\n      tag_178\n      jump\t// in\n    tag_422:\n        /* \"#utility.yul\":24594:24596   */\n      0x20\n        /* \"#utility.yul\":24589:24592   */\n      dup3\n        /* \"#utility.yul\":24585:24597   */\n      add\n        /* \"#utility.yul\":24578:24597   */\n      swap1\n      pop\n        /* \"#utility.yul\":24237:24603   */\n      swap2\n      swap1\n      pop\n      jump\t// out\n        /* \"#utility.yul\":24609:25028   */\n    tag_101:\n        /* \"#utility.yul\":24775:24779   */\n      0x00\n        /* \"#utility.yul\":24813:24815   */\n      0x20\n        /* \"#utility.yul\":24802:24811   */\n      dup3\n        /* \"#utility.yul\":24798:24816   */\n      add\n        /* \"#utility.yul\":24790:24816   */\n      swap1\n      pop\n        /* \"#utility.yul\":24862:24871   */\n      dup2\n        /* \"#utility.yul\":24856:24860   */\n      dup2\n        /* \"#utility.yul\":24852:24872   */\n      sub\n        /* \"#utility.yul\":24848:24849   */\n      0x00\n        /* \"#utility.yul\":24837:24846   */\n      dup4\n        /* \"#utility.yul\":24833:24850   */\n      add\n        /* \"#utility.yul\":24826:24873   */\n      mstore\n        /* \"#utility.yul\":24890:25021   */\n      tag_424\n        /* \"#utility.yul\":25016:25020   */\n      dup2\n        /* \"#utility.yul\":24890:25021   */\n      tag_179\n      jump\t// in\n    tag_424:\n        /* \"#utility.yul\":24882:25021   */\n      swap1\n      pop\n        /* \"#utility.yul\":24609:25028   */\n      swap2\n      swap1\n      pop\n      jump\t// out\n        /* \"#utility.yul\":25034:25215   */\n    tag_180:\n        /* \"#utility.yul\":25174:25207   */\n      0x4d757374207472616e73666572206174206c656173742031207469636b657400\n        /* \"#utility.yul\":25170:25171   */\n      0x00\n        /* \"#utility.yul\":25162:25168   */\n      dup3\n        /* \"#utility.yul\":25158:25172   */\n      add\n        /* \"#utility.yul\":25151:25208   */\n      mstore\n        /* \"#utility.yul\":25034:25215   */\n      pop\n      jump\t// out\n        /* \"#utility.yul\":25221:25587   */\n    tag_181:\n        /* \"#utility.yul\":25363:25366   */\n      0x00\n        /* \"#utility.yul\":25384:25451   */\n      tag_427\n        /* \"#utility.yul\":25448:25450   */\n      0x1f\n        /* \"#utility.yul\":25443:25446   */\n      dup4\n        /* \"#utility.yul\":25384:25451   */\n      tag_136\n      jump\t// in\n    tag_427:\n        /* \"#utility.yul\":25377:25451   */\n      swap2\n      pop\n        /* \"#utility.yul\":25460:25553   */\n      tag_428\n        /* \"#utility.yul\":25549:25552   */\n      dup3\n        /* \"#utility.yul\":25460:25553   */\n      tag_180\n      jump\t// in\n    tag_428:\n        /* \"#utility.yul\":25578:25580   */\n      0x20\n        /* \"#utility.yul\":25573:25576   */\n      dup3\n        /* \"#utility.yul\":25569:25581   */\n      add\n        /* \"#utility.yul\":25562:25581   */\n      swap1\n      pop\n        /* \"#utility.yul\":25221:25587   */\n      swap2\n      swap1\n      pop\n      jump\t// out\n        /* \"#utility.yul\":25593:26012   */\n    tag_104:\n        /* \"#utility.yul\":25759:25763   */\n      0x00\n        /* \"#utility.yul\":25797:25799   */\n      0x20\n        /* \"#utility.yul\":25786:25795   */\n      dup3\n        /* \"#utility.yul\":25782:25800   */\n      add\n        /* \"#utility.yul\":25774:25800   */\n      swap1\n      pop\n        /* \"#utility.yul\":25846:25855   */\n      dup2\n        /* \"#utility.yul\":25840:25844   */\n      dup2\n        /* \"#utility.yul\":25836:25856   */\n      sub\n        /* \"#utility.yul\":25832:25833   */\n      0x00\n        /* \"#utility.yul\":25821:25830   */\n      dup4\n        /* \"#utility.yul\":25817:25834   */\n      add\n        /* \"#utility.yul\":25810:25857   */\n      mstore\n        /* \"#utility.yul\":25874:26005   */\n      tag_430\n        /* \"#utility.yul\":26000:26004   */\n      dup2\n        /* \"#utility.yul\":25874:26005   */\n      tag_181\n      jump\t// in\n    tag_430:\n        /* \"#utility.yul\":25866:26005   */\n      swap1\n      pop\n        /* \"#utility.yul\":25593:26012   */\n      swap2\n      swap1\n      pop\n      jump\t// out\n        /* \"#utility.yul\":26018:26195   */\n    tag_182:\n        /* \"#utility.yul\":26158:26187   */\n      0x43616e6e6f74207472616e73666572206166746572206576656e740000000000\n        /* \"#utility.yul\":26154:26155   */\n      0x00\n        /* \"#utility.yul\":26146:26152   */\n      dup3\n        /* \"#utility.yul\":26142:26156   */\n      add\n        /* \"#utility.yul\":26135:26188   */\n      mstore\n        /* \"#utility.yul\":26018:26195   */\n      pop\n      jump\t// out\n        /* \"#utility.yul\":26201:26567   */\n    tag_183:\n        /* \"#utility.yul\":26343:26346   */\n      0x00\n        /* \"#utility.yul\":26364:26431   */\n      tag_433\n        /* \"#utility.yul\":26428:26430   */\n      0x1b\n        /* \"#utility.yul\":26423:26426   */\n      dup4\n        /* \"#utility.yul\":26364:26431   */\n      tag_136\n      jump\t// in\n    tag_433:\n        /* \"#utility.yul\":26357:26431   */\n      swap2\n      pop\n        /* \"#utility.yul\":26440:26533   */\n      tag_434\n        /* \"#utility.yul\":26529:26532   */\n      dup3\n        /* \"#utility.yul\":26440:26533   */\n      tag_182\n      jump\t// in\n    tag_434:\n        /* \"#utility.yul\":26558:26560   */\n      0x20\n        /* \"#utility.yul\":26553:26556   */\n      dup3\n        /* \"#utility.yul\":26549:26561   */\n      add\n        /* \"#utility.yul\":26542:26561   */\n      swap1\n      pop\n        /* \"#utility.yul\":26201:26567   */\n      swap2\n      swap1\n      pop\n      jump\t// out\n        /* \"#utility.yul\":26573:26992   */\n    tag_109:\n        /* \"#utility.yul\":26739:26743   */\n      0x00\n        /* \"#utility.yul\":26777:26779   */\n      0x20\n        /* \"#utility.yul\":26766:26775   */\n      dup3\n        /* \"#utility.yul\":26762:26780   */\n      add\n        /* \"#utility.yul\":26754:26780   */\n      swap1\n      pop\n        /* \"#utility.yul\":26826:26835   */\n      dup2\n        /* \"#utility.yul\":26820:26824   */\n      dup2\n        /* \"#utility.yul\":26816:26836   */\n      sub\n        /* \"#utility.yul\":26812:26813   */\n      0x00\n        /* \"#utility.yul\":26801:26810   */\n      dup4\n        /* \"#utility.yul\":26797:26814   */\n      add\n        /* \"#utility.yul\":26790:26837   */\n      mstore\n        /* \"#utility.yul\":26854:26985   */\n      tag_436\n        /* \"#utility.yul\":26980:26984   */\n      dup2\n        /* \"#utility.yul\":26854:26985   */\n      tag_183\n      jump\t// in\n    tag_436:\n        /* \"#utility.yul\":26846:26985   */\n      swap1\n      pop\n        /* \"#utility.yul\":26573:26992   */\n      swap2\n      swap1\n      pop\n      jump\t// out\n        /* \"#utility.yul\":26998:27178   */\n    tag_184:\n        /* \"#utility.yul\":27138:27170   */\n      0x4e6f7420656e6f756768207469636b65747320746f207472616e736665720000\n        /* \"#utility.yul\":27134:27135   */\n      0x00\n        /* \"#utility.yul\":27126:27132   */\n      dup3\n        /* \"#utility.yul\":27122:27136   */\n      add\n        /* \"#utility.yul\":27115:27171   */\n      mstore\n        /* \"#utility.yul\":26998:27178   */\n      pop\n      jump\t// out\n        /* \"#utility.yul\":27184:27550   */\n    tag_185:\n        /* \"#utility.yul\":27326:27329   */\n      0x00\n        /* \"#utility.yul\":27347:27414   */\n      tag_439\n        /* \"#utility.yul\":27411:27413   */\n      0x1e\n        /* \"#utility.yul\":27406:27409   */\n      dup4\n        /* \"#utility.yul\":27347:27414   */\n      tag_136\n      jump\t// in\n    tag_439:\n        /* \"#utility.yul\":27340:27414   */\n      swap2\n      pop\n        /* \"#utility.yul\":27423:27516   */\n      tag_440\n        /* \"#utility.yul\":27512:27515   */\n      dup3\n        /* \"#utility.yul\":27423:27516   */\n      tag_184\n      jump\t// in\n    tag_440:\n        /* \"#utility.yul\":27541:27543   */\n      0x20\n        /* \"#utility.yul\":27536:27539   */\n      dup3\n        /* \"#utility.yul\":27532:27544   */\n      add\n        /* \"#utility.yul\":27525:27544   */\n      swap1\n      pop\n        /* \"#utility.yul\":27184:27550   */\n      swap2\n      swap1\n      pop\n      jump\t// out\n        /* \"#utility.yul\":27556:27975   */\n    tag_112:\n        /* \"#utility.yul\":27722:27726   */\n      0x00\n        /* \"#utility.yul\":27760:27762   */\n      0x20\n        /* \"#utility.yul\":27749:27758   */\n      dup3\n        /* \"#utility.yul\":27745:27763   */\n      add\n        /* \"#utility.yul\":27737:27763   */\n      swap1\n      pop\n        /* \"#utility.yul\":27809:27818   */\n      dup2\n        /* \"#utility.yul\":27803:27807   */\n      dup2\n        /* \"#utility.yul\":27799:27819   */\n      sub\n        /* \"#utility.yul\":27795:27796   */\n      0x00\n        /* \"#utility.yul\":27784:27793   */\n      dup4\n        /* \"#utility.yul\":27780:27797   */\n      add\n        /* \"#utility.yul\":27773:27820   */\n      mstore\n        /* \"#utility.yul\":27837:27968   */\n      tag_442\n        /* \"#utility.yul\":27963:27967   */\n      dup2\n        /* \"#utility.yul\":27837:27968   */\n      tag_185\n      jump\t// in\n    tag_442:\n        /* \"#utility.yul\":27829:27968   */\n      swap1\n      pop\n        /* \"#utility.yul\":27556:27975   */\n      swap2\n      swap1\n      pop\n      jump\t// out\n\n    auxdata: 0xa2646970667358221220d8b490fb668623f71da64095fe9c1f643674be87319c4c1a26b6c71e6d93a78964736f6c634300081f0033\n}\n",
				"bytecode": {
					"linkReferences": {},
					"object": "6080604052348015600e575f5ffd5b5061197c8061001c5f395ff3fe60806040526004361061006f575f3560e01c8063298ec2081161004d578063298ec2081461011857806361b8ce8c14610134578063dae7a13c1461015e578063f086a09b1461019a5761006f565b80630374ab0b146100735780630b7914301461009b57806328bd0a3d146100dc575b5f5ffd5b34801561007e575f5ffd5b5061009960048036038101906100949190610d26565b6101c2565b005b3480156100a6575f5ffd5b506100c160048036038101906100bc9190610da6565b610394565b6040516100d396959493929190610e7f565b60405180910390f35b3480156100e7575f5ffd5b5061010260048036038101906100fd9190610da6565b610470565b60405161010f9190610ee5565b60405180910390f35b610132600480360381019061012d9190610efe565b6104c5565b005b34801561013f575f5ffd5b50610148610828565b6040516101559190610ee5565b60405180910390f35b348015610169575f5ffd5b50610184600480360381019061017f9190610f66565b61082e565b6040516101919190610ee5565b60405180910390f35b3480156101a5575f5ffd5b506101c060048036038101906101bb9190610fa4565b61084e565b005b428311610204576040517f08c379a00000000000000000000000000000000000000000000000000000000081526004016101fb9061103e565b60405180910390fd5b5f8111610246576040517f08c379a000000000000000000000000000000000000000000000000000000000815260040161023d906110a6565b60405180910390fd5b5f60025490506040518060c001604052803373ffffffffffffffffffffffffffffffffffffffff168152602001868152602001858152602001848152602001838152602001838152505f5f8381526020019081526020015f205f820151815f015f6101000a81548173ffffffffffffffffffffffffffffffffffffffff021916908373ffffffffffffffffffffffffffffffffffffffff16021790555060208201518160010190816102f891906112c1565b5060408201518160020155606082015181600301556080820151816004015560a0820151816005015590505060025f8154610332906113bd565b919050819055503373ffffffffffffffffffffffffffffffffffffffff16817e502bb4a70fbdfd0aa0d94a5600024efa4814e325c02c38409f206cdd72d6af878787876040516103859493929190611404565b60405180910390a35050505050565b5f602052805f5260405f205f91509050805f015f9054906101000a900473ffffffffffffffffffffffffffffffffffffffff16908060010180546103d7906110f1565b80601f0160208091040260200160405190810160405280929190818152602001828054610403906110f1565b801561044e5780601f106104255761010080835404028352916020019161044e565b820191905f5260205f20905b81548152906001019060200180831161043157829003601f168201915b5050505050908060020154908060030154908060040154908060050154905086565b5f60015f3373ffffffffffffffffffffffffffffffffffffffff1673ffffffffffffffffffffffffffffffffffffffff1681526020019081526020015f205f8381526020019081526020015f20549050919050565b5f5f5f8481526020019081526020015f2090505f73ffffffffffffffffffffffffffffffffffffffff16815f015f9054906101000a900473ffffffffffffffffffffffffffffffffffffffff1673ffffffffffffffffffffffffffffffffffffffff1603610568576040517f08c379a000000000000000000000000000000000000000000000000000000000815260040161055f90611498565b60405180910390fd5b428160020154116105ae576040517f08c379a00000000000000000000000000000000000000000000000000000000081526004016105a590611500565b60405180910390fd5b5f82116105f0576040517f08c379a00000000000000000000000000000000000000000000000000000000081526004016105e790611568565b60405180910390fd5b8181600501541015610637576040517f08c379a000000000000000000000000000000000000000000000000000000000815260040161062e906115d0565b60405180910390fd5b5f82826003015461064891906115ee565b905080341461068c576040517f08c379a000000000000000000000000000000000000000000000000000000000815260040161068390611679565b60405180910390fd5b82826005015f82825461069f9190611697565b925050819055508260015f3373ffffffffffffffffffffffffffffffffffffffff1673ffffffffffffffffffffffffffffffffffffffff1681526020019081526020015f205f8681526020019081526020015f205f82825461070191906116ca565b925050819055505f825f015f9054906101000a900473ffffffffffffffffffffffffffffffffffffffff1673ffffffffffffffffffffffffffffffffffffffff168260405161074f9061172a565b5f6040518083038185875af1925050503d805f8114610789576040519150601f19603f3d011682016040523d82523d5f602084013e61078e565b606091505b50509050806107d2576040517f08c379a00000000000000000000000000000000000000000000000000000000081526004016107c990611788565b60405180910390fd5b3373ffffffffffffffffffffffffffffffffffffffff16857fdbaaf4c87ce30816c961a81d110622a3227ede77953d4383d514ff88ab2e0fd3866040516108199190610ee5565b60405180910390a35050505050565b60025481565b6001602052815f5260405f20602052805f5260405f205f91509150505481565b5f73ffffffffffffffffffffffffffffffffffffffff168173ffffffffffffffffffffffffffffffffffffffff16036108bc576040517f08c379a00000000000000000000000000000000000000000000000000000000081526004016108b3906117f0565b60405180910390fd5b5f82116108fe576040517f08c379a00000000000000000000000000000000000000000000000000000000081526004016108f590611858565b60405180910390fd5b5f5f5f8581526020019081526020015f2090505f73ffffffffffffffffffffffffffffffffffffffff16815f015f9054906101000a900473ffffffffffffffffffffffffffffffffffffffff1673ffffffffffffffffffffffffffffffffffffffff16036109a1576040517f08c379a000000000000000000000000000000000000000000000000000000000815260040161099890611498565b60405180910390fd5b428160020154116109e7576040517f08c379a00000000000000000000000000000000000000000000000000000000081526004016109de906118c0565b60405180910390fd5b8260015f3373ffffffffffffffffffffffffffffffffffffffff1673ffffffffffffffffffffffffffffffffffffffff1681526020019081526020015f205f8681526020019081526020015f20541015610a76576040517f08c379a0000000000000000000000000000000000000000000000000000000008152600401610a6d90611928565b60405180910390fd5b8260015f3373ffffffffffffffffffffffffffffffffffffffff1673ffffffffffffffffffffffffffffffffffffffff1681526020019081526020015f205f8681526020019081526020015f205f828254610ad19190611697565b925050819055508260015f8473ffffffffffffffffffffffffffffffffffffffff1673ffffffffffffffffffffffffffffffffffffffff1681526020019081526020015f205f8681526020019081526020015f205f828254610b3391906116ca565b925050819055508173ffffffffffffffffffffffffffffffffffffffff163373ffffffffffffffffffffffffffffffffffffffff16857fdfc4c991a34be4b2f90df7c348d98b17393713ef48853d9071cf19d4687a6a3686604051610b989190610ee5565b60405180910390a450505050565b5f604051905090565b5f5ffd5b5f5ffd5b5f5ffd5b5f5ffd5b5f601f19601f8301169050919050565b7f4e487b71000000000000000000000000000000000000000000000000000000005f52604160045260245ffd5b610c0582610bbf565b810181811067ffffffffffffffff82111715610c2457610c23610bcf565b5b80604052505050565b5f610c36610ba6565b9050610c428282610bfc565b919050565b5f67ffffffffffffffff821115610c6157610c60610bcf565b5b610c6a82610bbf565b9050602081019050919050565b828183375f83830152505050565b5f610c97610c9284610c47565b610c2d565b905082815260208101848484011115610cb357610cb2610bbb565b5b610cbe848285610c77565b509392505050565b5f82601f830112610cda57610cd9610bb7565b5b8135610cea848260208601610c85565b91505092915050565b5f819050919050565b610d0581610cf3565b8114610d0f575f5ffd5b50565b5f81359050610d2081610cfc565b92915050565b5f5f5f5f60808587031215610d3e57610d3d610baf565b5b5f85013567ffffffffffffffff811115610d5b57610d5a610bb3565b5b610d6787828801610cc6565b9450506020610d7887828801610d12565b9350506040610d8987828801610d12565b9250506060610d9a87828801610d12565b91505092959194509250565b5f60208284031215610dbb57610dba610baf565b5b5f610dc884828501610d12565b91505092915050565b5f73ffffffffffffffffffffffffffffffffffffffff82169050919050565b5f610dfa82610dd1565b9050919050565b610e0a81610df0565b82525050565b5f81519050919050565b5f82825260208201905092915050565b8281835e5f83830152505050565b5f610e4282610e10565b610e4c8185610e1a565b9350610e5c818560208601610e2a565b610e6581610bbf565b840191505092915050565b610e7981610cf3565b82525050565b5f60c082019050610e925f830189610e01565b8181036020830152610ea48188610e38565b9050610eb36040830187610e70565b610ec06060830186610e70565b610ecd6080830185610e70565b610eda60a0830184610e70565b979650505050505050565b5f602082019050610ef85f830184610e70565b92915050565b5f5f60408385031215610f1457610f13610baf565b5b5f610f2185828601610d12565b9250506020610f3285828601610d12565b9150509250929050565b610f4581610df0565b8114610f4f575f5ffd5b50565b5f81359050610f6081610f3c565b92915050565b5f5f60408385031215610f7c57610f7b610baf565b5b5f610f8985828601610f52565b9250506020610f9a85828601610d12565b9150509250929050565b5f5f5f60608486031215610fbb57610fba610baf565b5b5f610fc886828701610d12565b9350506020610fd986828701610d12565b9250506040610fea86828701610f52565b9150509250925092565b7f4576656e74206d75737420626520696e207468652066757475726500000000005f82015250565b5f611028601b83610e1a565b915061103382610ff4565b602082019050919050565b5f6020820190508181035f8301526110558161101c565b9050919050565b7f4d75737420637265617465206174206c656173742031207469636b65740000005f82015250565b5f611090601d83610e1a565b915061109b8261105c565b602082019050919050565b5f6020820190508181035f8301526110bd81611084565b9050919050565b7f4e487b71000000000000000000000000000000000000000000000000000000005f52602260045260245ffd5b5f600282049050600182168061110857607f821691505b60208210810361111b5761111a6110c4565b5b50919050565b5f819050815f5260205f209050919050565b5f6020601f8301049050919050565b5f82821b905092915050565b5f6008830261117d7fffffffffffffffffffffffffffffffffffffffffffffffffffffffffffffffff82611142565b6111878683611142565b95508019841693508086168417925050509392505050565b5f819050919050565b5f6111c26111bd6111b884610cf3565b61119f565b610cf3565b9050919050565b5f819050919050565b6111db836111a8565b6111ef6111e7826111c9565b84845461114e565b825550505050565b5f5f905090565b6112066111f7565b6112118184846111d2565b505050565b5b81811015611234576112295f826111fe565b600181019050611217565b5050565b601f8211156112795761124a81611121565b61125384611133565b81016020851015611262578190505b61127661126e85611133565b830182611216565b50505b505050565b5f82821c905092915050565b5f6112995f198460080261127e565b1980831691505092915050565b5f6112b1838361128a565b9150826002028217905092915050565b6112ca82610e10565b67ffffffffffffffff8111156112e3576112e2610bcf565b5b6112ed82546110f1565b6112f8828285611238565b5f60209050601f831160018114611329575f8415611317578287015190505b61132185826112a6565b865550611388565b601f19841661133786611121565b5f5b8281101561135e57848901518255600182019150602085019450602081019050611339565b8683101561137b5784890151611377601f89168261128a565b8355505b6001600288020188555050505b505050505050565b7f4e487b71000000000000000000000000000000000000000000000000000000005f52601160045260245ffd5b5f6113c782610cf3565b91507fffffffffffffffffffffffffffffffffffffffffffffffffffffffffffffffff82036113f9576113f8611390565b5b600182019050919050565b5f6080820190508181035f83015261141c8187610e38565b905061142b6020830186610e70565b6114386040830185610e70565b6114456060830184610e70565b95945050505050565b7f4576656e7420646f6573206e6f742065786973740000000000000000000000005f82015250565b5f611482601483610e1a565b915061148d8261144e565b602082019050919050565b5f6020820190508181035f8301526114af81611476565b9050919050565b7f4576656e742068617320616c72656164792070617373656400000000000000005f82015250565b5f6114ea601883610e1a565b91506114f5826114b6565b602082019050919050565b5f6020820190508181035f830152611517816114de565b9050919050565b7f4d75737420627579206174206c656173742031207469636b65740000000000005f82015250565b5f611552601a83610e1a565b915061155d8261151e565b602082019050919050565b5f6020820190508181035f83015261157f81611546565b9050919050565b7f4e6f7420656e6f756768207469636b6574732072656d61696e696e67000000005f82015250565b5f6115ba601c83610e1a565b91506115c582611586565b602082019050919050565b5f6020820190508181035f8301526115e7816115ae565b9050919050565b5f6115f882610cf3565b915061160383610cf3565b925082820261161181610cf3565b9150828204841483151761162857611627611390565b5b5092915050565b7f496e636f7272656374207061796d656e7420616d6f756e7400000000000000005f82015250565b5f611663601883610e1a565b915061166e8261162f565b602082019050919050565b5f6020820190508181035f83015261169081611657565b9050919050565b5f6116a182610cf3565b91506116ac83610cf3565b92508282039050818111156116c4576116c3611390565b5b92915050565b5f6116d482610cf3565b91506116df83610cf3565b92508282019050808211156116f7576116f6611390565b5b92915050565b5f81905092915050565b50565b5f6117155f836116fd565b915061172082611707565b5f82019050919050565b5f6117348261170a565b9150819050919050565b7f5061796d656e74206661696c65640000000000000000000000000000000000005f82015250565b5f611772600e83610e1a565b915061177d8261173e565b602082019050919050565b5f6020820190508181035f83015261179f81611766565b9050919050565b7f496e76616c696420726563697069656e740000000000000000000000000000005f82015250565b5f6117da601183610e1a565b91506117e5826117a6565b602082019050919050565b5f6020820190508181035f830152611807816117ce565b9050919050565b7f4d757374207472616e73666572206174206c656173742031207469636b6574005f82015250565b5f611842601f83610e1a565b915061184d8261180e565b602082019050919050565b5f6020820190508181035f83015261186f81611836565b9050919050565b7f43616e6e6f74207472616e73666572206166746572206576656e7400000000005f82015250565b5f6118aa601b83610e1a565b91506118b582611876565b602082019050919050565b5f6020820190508181035f8301526118d78161189e565b9050919050565b7f4e6f7420656e6f756768207469636b65747320746f207472616e7366657200005f82015250565b5f611912601e83610e1a565b915061191d826118de565b602082019050919050565b5f6020820190508181035f83015261193f81611906565b905091905056fea2646970667358221220d8b490fb668623f71da64095fe9c1f643674be87319c4c1a26b6c71e6d93a78964736f6c634300081f0033",
					"opcodes": "PUSH1 0x80 PUSH1 0x40 MSTORE CALLVALUE DUP1 ISZERO PUSH1 0xE JUMPI PUSH0 PUSH0 REVERT JUMPDEST POP PUSH2 0x197C DUP1 PUSH2 0x1C PUSH0 CODECOPY PUSH0 RETURN INVALID PUSH1 0x80 PUSH1 0x40 MSTORE PUSH1 0x4 CALLDATASIZE LT PUSH2 0x6F JUMPI PUSH0 CALLDATALOAD PUSH1 0xE0 SHR DUP1 PUSH4 0x298EC208 GT PUSH2 0x4D JUMPI DUP1 PUSH4 0x298EC208 EQ PUSH2 0x118 JUMPI DUP1 PUSH4 0x61B8CE8C EQ PUSH2 0x134 JUMPI DUP1 PUSH4 0xDAE7A13C EQ PUSH2 0x15E JUMPI DUP1 PUSH4 0xF086A09B EQ PUSH2 0x19A JUMPI PUSH2 0x6F JUMP JUMPDEST DUP1 PUSH4 0x374AB0B EQ PUSH2 0x73 JUMPI DUP1 PUSH4 0xB791430 EQ PUSH2 0x9B JUMPI DUP1 PUSH4 0x28BD0A3D EQ PUSH2 0xDC JUMPI JUMPDEST PUSH0 PUSH0 REVERT JUMPDEST CALLVALUE DUP1 ISZERO PUSH2 0x7E JUMPI PUSH0 PUSH0 REVERT JUMPDEST POP PUSH2 0x99 PUSH1 0x4 DUP1 CALLDATASIZE SUB DUP2 ADD SWAP1 PUSH2 0x94 SWAP2 SWAP1 PUSH2 0xD26 JUMP JUMPDEST PUSH2 0x1C2 JUMP JUMPDEST STOP JUMPDEST CALLVALUE DUP1 ISZERO PUSH2 0xA6 JUMPI PUSH0 PUSH0 REVERT JUMPDEST POP PUSH2 0xC1 PUSH1 0x4 DUP1 CALLDATASIZE SUB DUP2 ADD SWAP1 PUSH2 0xBC SWAP2 SWAP1 PUSH2 0xDA6 JUMP JUMPDEST PUSH2 0x394 JUMP JUMPDEST PUSH1 0x40 MLOAD PUSH2 0xD3 SWAP7 SWAP6 SWAP5 SWAP4 SWAP3 SWAP2 SWAP1 PUSH2 0xE7F JUMP JUMPDEST PUSH1 0x40 MLOAD DUP1 SWAP2 SUB SWAP1 RETURN JUMPDEST CALLVALUE DUP1 ISZERO PUSH2 0xE7 JUMPI PUSH0 PUSH0 REVERT JUMPDEST POP PUSH2 0x102 PUSH1 0x4 DUP1 CALLDATASIZE SUB DUP2 ADD SWAP1 PUSH2 0xFD SWAP2 SWAP1 PUSH2 0xDA6 JUMP JUMPDEST PUSH2 0x470 JUMP JUMPDEST PUSH1 0x40 MLOAD PUSH2 0x10F SWAP2 SWAP1 PUSH2 0xEE5 JUMP JUMPDEST PUSH1 0x40 MLOAD DUP1 SWAP2 SUB SWAP1 RETURN JUMPDEST PUSH2 0x132 PUSH1 0x4 DUP1 CALLDATASIZE SUB DUP2 ADD SWAP1 PUSH2 0x12D SWAP2 SWAP1 PUSH2 0xEFE JUMP JUMPDEST PUSH2 0x4C5 JUMP JUMPDEST STOP JUMPDEST CALLVALUE DUP1 ISZERO PUSH2 0x13F JUMPI PUSH0 PUSH0 REVERT JUMPDEST POP PUSH2 0x148 PUSH2 0x828 JUMP JUMPDEST PUSH1 0x40 MLOAD PUSH2 0x155 SWAP2 SWAP1 PUSH2 0xEE5 JUMP JUMPDEST PUSH1 0x40 MLOAD DUP1 SWAP2 SUB SWAP1 RETURN JUMPDEST CALLVALUE DUP1 ISZERO PUSH2 0x169 JUMPI PUSH0 PUSH0 REVERT JUMPDEST POP PUSH2 0x184 PUSH1 0x4 DUP1 CALLDATASIZE SUB DUP2 ADD SWAP1 PUSH2 0x17F SWAP2 SWAP1 PUSH2 0xF66 JUMP JUMPDEST PUSH2 0x82E JUMP JUMPDEST PUSH1 0x40 MLOAD PUSH2 0x191 SWAP2 SWAP1 PUSH2 0xEE5 JUMP JUMPDEST PUSH1 0x40 MLOAD DUP1 SWAP2 SUB SWAP1 RETURN JUMPDEST CALLVALUE DUP1 ISZERO PUSH2 0x1A5 JUMPI PUSH0 PUSH0 REVERT JUMPDEST POP PUSH2 0x1C0 PUSH1 0x4 DUP1 CALLDATASIZE SUB DUP2 ADD SWAP1 PUSH2 0x1BB SWAP2 SWAP1 PUSH2 0xFA4 JUMP JUMPDEST PUSH2 0x84E JUMP JUMPDEST STOP JUMPDEST TIMESTAMP DUP4 GT PUSH2 0x204 JUMPI PUSH1 0x40 MLOAD PUSH32 0x8C379A000000000000000000000000000000000000000000000000000000000 DUP2 MSTORE PUSH1 0x4 ADD PUSH2 0x1FB SWAP1 PUSH2 0x103E JUMP JUMPDEST PUSH1 0x40 MLOAD DUP1 SWAP2 SUB SWAP1 REVERT JUMPDEST PUSH0 DUP2 GT PUSH2 0x246 JUMPI PUSH1 0x40 MLOAD PUSH32 0x8C379A000000000000000000000000000000000000000000000000000000000 DUP2 MSTORE PUSH1 0x4 ADD PUSH2 0x23D SWAP1 PUSH2 0x10A6 JUMP JUMPDEST PUSH1 0x40 MLOAD DUP1 SWAP2 SUB SWAP1 REVERT JUMPDEST PUSH0 PUSH1 0x2 SLOAD SWAP1 POP PUSH1 0x40 MLOAD DUP1 PUSH1 0xC0 ADD PUSH1 0x40 MSTORE DUP1 CALLER PUSH20 0xFFFFFFFFFFFFFFFFFFFFFFFFFFFFFFFFFFFFFFFF AND DUP2 MSTORE PUSH1 0x20 ADD DUP7 DUP2 MSTORE PUSH1 0x20 ADD DUP6 DUP2 MSTORE PUSH1 0x20 ADD DUP5 DUP2 MSTORE PUSH1 0x20 ADD DUP4 DUP2 MSTORE PUSH1 0x20 ADD DUP4 DUP2 MSTORE POP PUSH0 PUSH0 DUP4 DUP2 MSTORE PUSH1 0x20 ADD SWAP1 DUP2 MSTORE PUSH1 0x20 ADD PUSH0 KECCAK256 PUSH0 DUP3 ADD MLOAD DUP2 PUSH0 ADD PUSH0 PUSH2 0x100 EXP DUP2 SLOAD DUP2 PUSH20 0xFFFFFFFFFFFFFFFFFFFFFFFFFFFFFFFFFFFFFFFF MUL NOT AND SWAP1 DUP4 PUSH20 0xFFFFFFFFFFFFFFFFFFFFFFFFFFFFFFFFFFFFFFFF AND MUL OR SWAP1 SSTORE POP PUSH1 0x20 DUP3 ADD MLOAD DUP2 PUSH1 0x1 ADD SWAP1 DUP2 PUSH2 0x2F8 SWAP2 SWAP1 PUSH2 0x12C1 JUMP JUMPDEST POP PUSH1 0x40 DUP3 ADD MLOAD DUP2 PUSH1 0x2 ADD SSTORE PUSH1 0x60 DUP3 ADD MLOAD DUP2 PUSH1 0x3 ADD SSTORE PUSH1 0x80 DUP3 ADD MLOAD DUP2 PUSH1 0x4 ADD SSTORE PUSH1 0xA0 DUP3 ADD MLOAD DUP2 PUSH1 0x5 ADD SSTORE SWAP1 POP POP PUSH1 0x2 PUSH0 DUP2 SLOAD PUSH2 0x332 SWAP1 PUSH2 0x13BD JUMP JUMPDEST SWAP2 SWAP1 POP DUP2 SWAP1 SSTORE POP CALLER PUSH20 0xFFFFFFFFFFFFFFFFFFFFFFFFFFFFFFFFFFFFFFFF AND DUP2 PUSH31 0x502BB4A70FBDFD0AA0D94A5600024EFA4814E325C02C38409F206CDD72D6AF DUP8 DUP8 DUP8 DUP8 PUSH1 0x40 MLOAD PUSH2 0x385 SWAP5 SWAP4 SWAP3 SWAP2 SWAP1 PUSH2 0x1404 JUMP JUMPDEST PUSH1 0x40 MLOAD DUP1 SWAP2 SUB SWAP1 LOG3 POP POP POP POP POP JUMP JUMPDEST PUSH0 PUSH1 0x20 MSTORE DUP1 PUSH0 MSTORE PUSH1 0x40 PUSH0 KECCAK256 PUSH0 SWAP2 POP SWAP1 POP DUP1 PUSH0 ADD PUSH0 SWAP1 SLOAD SWAP1 PUSH2 0x100 EXP SWAP1 DIV PUSH20 0xFFFFFFFFFFFFFFFFFFFFFFFFFFFFFFFFFFFFFFFF AND SWAP1 DUP1 PUSH1 0x1 ADD DUP1 SLOAD PUSH2 0x3D7 SWAP1 PUSH2 0x10F1 JUMP JUMPDEST DUP1 PUSH1 0x1F ADD PUSH1 0x20 DUP1 SWAP2 DIV MUL PUSH1 0x20 ADD PUSH1 0x40 MLOAD SWAP1 DUP2 ADD PUSH1 0x40 MSTORE DUP1 SWAP3 SWAP2 SWAP1 DUP2 DUP2 MSTORE PUSH1 0x20 ADD DUP3 DUP1 SLOAD PUSH2 0x403 SWAP1 PUSH2 0x10F1 JUMP JUMPDEST DUP1 ISZERO PUSH2 0x44E JUMPI DUP1 PUSH1 0x1F LT PUSH2 0x425 JUMPI PUSH2 0x100 DUP1 DUP4 SLOAD DIV MUL DUP4 MSTORE SWAP2 PUSH1 0x20 ADD SWAP2 PUSH2 0x44E JUMP JUMPDEST DUP3 ADD SWAP2 SWAP1 PUSH0 MSTORE PUSH1 0x20 PUSH0 KECCAK256 SWAP1 JUMPDEST DUP2 SLOAD DUP2 MSTORE SWAP1 PUSH1 0x1 ADD SWAP1 PUSH1 0x20 ADD DUP1 DUP4 GT PUSH2 0x431 JUMPI DUP3 SWAP1 SUB PUSH1 0x1F AND DUP3 ADD SWAP2 JUMPDEST POP POP POP POP POP SWAP1 DUP1 PUSH1 0x2 ADD SLOAD SWAP1 DUP1 PUSH1 0x3 ADD SLOAD SWAP1 DUP1 PUSH1 0x4 ADD SLOAD SWAP1 DUP1 PUSH1 0x5 ADD SLOAD SWAP1 POP DUP7 JUMP JUMPDEST PUSH0 PUSH1 0x1 PUSH0 CALLER PUSH20 0xFFFFFFFFFFFFFFFFFFFFFFFFFFFFFFFFFFFFFFFF AND PUSH20 0xFFFFFFFFFFFFFFFFFFFFFFFFFFFFFFFFFFFFFFFF AND DUP2 MSTORE PUSH1 0x20 ADD SWAP1 DUP2 MSTORE PUSH1 0x20 ADD PUSH0 KECCAK256 PUSH0 DUP4 DUP2 MSTORE PUSH1 0x20 ADD SWAP1 DUP2 MSTORE PUSH1 0x20 ADD PUSH0 KECCAK256 SLOAD SWAP1 POP SWAP2 SWAP1 POP JUMP JUMPDEST PUSH0 PUSH0 PUSH0 DUP5 DUP2 MSTORE PUSH1 0x20 ADD SWAP1 DUP2 MSTORE PUSH1 0x20 ADD PUSH0 KECCAK256 SWAP1 POP PUSH0 PUSH20 0xFFFFFFFFFFFFFFFFFFFFFFFFFFFFFFFFFFFFFFFF AND DUP2 PUSH0 ADD PUSH0 SWAP1 SLOAD SWAP1 PUSH2 0x100 EXP SWAP1 DIV PUSH20 0xFFFFFFFFFFFFFFFFFFFFFFFFFFFFFFFFFFFFFFFF AND PUSH20 0xFFFFFFFFFFFFFFFFFFFFFFFFFFFFFFFFFFFFFFFF AND SUB PUSH2 0x568 JUMPI PUSH1 0x40 MLOAD PUSH32 0x8C379A000000000000000000000000000000000000000000000000000000000 DUP2 MSTORE PUSH1 0x4 ADD PUSH2 0x55F SWAP1 PUSH2 0x1498 JUMP JUMPDEST PUSH1 0x40 MLOAD DUP1 SWAP2 SUB SWAP1 REVERT JUMPDEST TIMESTAMP DUP2 PUSH1 0x2 ADD SLOAD GT PUSH2 0x5AE JUMPI PUSH1 0x40 MLOAD PUSH32 0x8C379A000000000000000000000000000000000000000000000000000000000 DUP2 MSTORE PUSH1 0x4 ADD PUSH2 0x5A5 SWAP1 PUSH2 0x1500 JUMP JUMPDEST PUSH1 0x40 MLOAD DUP1 SWAP2 SUB SWAP1 REVERT JUMPDEST PUSH0 DUP3 GT PUSH2 0x5F0 JUMPI PUSH1 0x40 MLOAD PUSH32 0x8C379A000000000000000000000000000000000000000000000000000000000 DUP2 MSTORE PUSH1 0x4 ADD PUSH2 0x5E7 SWAP1 PUSH2 0x1568 JUMP JUMPDEST PUSH1 0x40 MLOAD DUP1 SWAP2 SUB SWAP1 REVERT JUMPDEST DUP2 DUP2 PUSH1 0x5 ADD SLOAD LT ISZERO PUSH2 0x637 JUMPI PUSH1 0x40 MLOAD PUSH32 0x8C379A000000000000000000000000000000000000000000000000000000000 DUP2 MSTORE PUSH1 0x4 ADD PUSH2 0x62E SWAP1 PUSH2 0x15D0 JUMP JUMPDEST PUSH1 0x40 MLOAD DUP1 SWAP2 SUB SWAP1 REVERT JUMPDEST PUSH0 DUP3 DUP3 PUSH1 0x3 ADD SLOAD PUSH2 0x648 SWAP2 SWAP1 PUSH2 0x15EE JUMP JUMPDEST SWAP1 POP DUP1 CALLVALUE EQ PUSH2 0x68C JUMPI PUSH1 0x40 MLOAD PUSH32 0x8C379A000000000000000000000000000000000000000000000000000000000 DUP2 MSTORE PUSH1 0x4 ADD PUSH2 0x683 SWAP1 PUSH2 0x1679 JUMP JUMPDEST PUSH1 0x40 MLOAD DUP1 SWAP2 SUB SWAP1 REVERT JUMPDEST DUP3 DUP3 PUSH1 0x5 ADD PUSH0 DUP3 DUP3 SLOAD PUSH2 0x69F SWAP2 SWAP1 PUSH2 0x1697 JUMP JUMPDEST SWAP3 POP POP DUP2 SWAP1 SSTORE POP DUP3 PUSH1 0x1 PUSH0 CALLER PUSH20 0xFFFFFFFFFFFFFFFFFFFFFFFFFFFFFFFFFFFFFFFF AND PUSH20 0xFFFFFFFFFFFFFFFFFFFFFFFFFFFFFFFFFFFFFFFF AND DUP2 MSTORE PUSH1 0x20 ADD SWAP1 DUP2 MSTORE PUSH1 0x20 ADD PUSH0 KECCAK256 PUSH0 DUP7 DUP2 MSTORE PUSH1 0x20 ADD SWAP1 DUP2 MSTORE PUSH1 0x20 ADD PUSH0 KECCAK256 PUSH0 DUP3 DUP3 SLOAD PUSH2 0x701 SWAP2 SWAP1 PUSH2 0x16CA JUMP JUMPDEST SWAP3 POP POP DUP2 SWAP1 SSTORE POP PUSH0 DUP3 PUSH0 ADD PUSH0 SWAP1 SLOAD SWAP1 PUSH2 0x100 EXP SWAP1 DIV PUSH20 0xFFFFFFFFFFFFFFFFFFFFFFFFFFFFFFFFFFFFFFFF AND PUSH20 0xFFFFFFFFFFFFFFFFFFFFFFFFFFFFFFFFFFFFFFFF AND DUP3 PUSH1 0x40 MLOAD PUSH2 0x74F SWAP1 PUSH2 0x172A JUMP JUMPDEST PUSH0 PUSH1 0x40 MLOAD DUP1 DUP4 SUB DUP2 DUP6 DUP8 GAS CALL SWAP3 POP POP POP RETURNDATASIZE DUP1 PUSH0 DUP2 EQ PUSH2 0x789 JUMPI PUSH1 0x40 MLOAD SWAP2 POP PUSH1 0x1F NOT PUSH1 0x3F RETURNDATASIZE ADD AND DUP3 ADD PUSH1 0x40 MSTORE RETURNDATASIZE DUP3 MSTORE RETURNDATASIZE PUSH0 PUSH1 0x20 DUP5 ADD RETURNDATACOPY PUSH2 0x78E JUMP JUMPDEST PUSH1 0x60 SWAP2 POP JUMPDEST POP POP SWAP1 POP DUP1 PUSH2 0x7D2 JUMPI PUSH1 0x40 MLOAD PUSH32 0x8C379A000000000000000000000000000000000000000000000000000000000 DUP2 MSTORE PUSH1 0x4 ADD PUSH2 0x7C9 SWAP1 PUSH2 0x1788 JUMP JUMPDEST PUSH1 0x40 MLOAD DUP1 SWAP2 SUB SWAP1 REVERT JUMPDEST CALLER PUSH20 0xFFFFFFFFFFFFFFFFFFFFFFFFFFFFFFFFFFFFFFFF AND DUP6 PUSH32 0xDBAAF4C87CE30816C961A81D110622A3227EDE77953D4383D514FF88AB2E0FD3 DUP7 PUSH1 0x40 MLOAD PUSH2 0x819 SWAP2 SWAP1 PUSH2 0xEE5 JUMP JUMPDEST PUSH1 0x40 MLOAD DUP1 SWAP2 SUB SWAP1 LOG3 POP POP POP POP POP JUMP JUMPDEST PUSH1 0x2 SLOAD DUP2 JUMP JUMPDEST PUSH1 0x1 PUSH1 0x20 MSTORE DUP2 PUSH0 MSTORE PUSH1 0x40 PUSH0 KECCAK256 PUSH1 0x20 MSTORE DUP1 PUSH0 MSTORE PUSH1 0x40 PUSH0 KECCAK256 PUSH0 SWAP2 POP SWAP2 POP POP SLOAD DUP2 JUMP JUMPDEST PUSH0 PUSH20 0xFFFFFFFFFFFFFFFFFFFFFFFFFFFFFFFFFFFFFFFF AND DUP2 PUSH20 0xFFFFFFFFFFFFFFFFFFFFFFFFFFFFFFFFFFFFFFFF AND SUB PUSH2 0x8BC JUMPI PUSH1 0x40 MLOAD PUSH32 0x8C379A000000000000000000000000000000000000000000000000000000000 DUP2 MSTORE PUSH1 0x4 ADD PUSH2 0x8B3 SWAP1 PUSH2 0x17F0 JUMP JUMPDEST PUSH1 0x40 MLOAD DUP1 SWAP2 SUB SWAP1 REVERT JUMPDEST PUSH0 DUP3 GT PUSH2 0x8FE JUMPI PUSH1 0x40 MLOAD PUSH32 0x8C379A000000000000000000000000000000000000000000000000000000000 DUP2 MSTORE PUSH1 0x4 ADD PUSH2 0x8F5 SWAP1 PUSH2 0x1858 JUMP JUMPDEST PUSH1 0x40 MLOAD DUP1 SWAP2 SUB SWAP1 REVERT JUMPDEST PUSH0 PUSH0 PUSH0 DUP6 DUP2 MSTORE PUSH1 0x20 ADD SWAP1 DUP2 MSTORE PUSH1 0x20 ADD PUSH0 KECCAK256 SWAP1 POP PUSH0 PUSH20 0xFFFFFFFFFFFFFFFFFFFFFFFFFFFFFFFFFFFFFFFF AND DUP2 PUSH0 ADD PUSH0 SWAP1 SLOAD SWAP1 PUSH2 0x100 EXP SWAP1 DIV PUSH20 0xFFFFFFFFFFFFFFFFFFFFFFFFFFFFFFFFFFFFFFFF AND PUSH20 0xFFFFFFFFFFFFFFFFFFFFFFFFFFFFFFFFFFFFFFFF AND SUB PUSH2 0x9A1 JUMPI PUSH1 0x40 MLOAD PUSH32 0x8C379A000000000000000000000000000000000000000000000000000000000 DUP2 MSTORE PUSH1 0x4 ADD PUSH2 0x998 SWAP1 PUSH2 0x1498 JUMP JUMPDEST PUSH1 0x40 MLOAD DUP1 SWAP2 SUB SWAP1 REVERT JUMPDEST TIMESTAMP DUP2 PUSH1 0x2 ADD SLOAD GT PUSH2 0x9E7 JUMPI PUSH1 0x40 MLOAD PUSH32 0x8C379A000000000000000000000000000000000000000000000000000000000 DUP2 MSTORE PUSH1 0x4 ADD PUSH2 0x9DE SWAP1 PUSH2 0x18C0 JUMP JUMPDEST PUSH1 0x40 MLOAD DUP1 SWAP2 SUB SWAP1 REVERT JUMPDEST DUP3 PUSH1 0x1 PUSH0 CALLER PUSH20 0xFFFFFFFFFFFFFFFFFFFFFFFFFFFFFFFFFFFFFFFF AND PUSH20 0xFFFFFFFFFFFFFFFFFFFFFFFFFFFFFFFFFFFFFFFF AND DUP2 MSTORE PUSH1 0x20 ADD SWAP1 DUP2 MSTORE PUSH1 0x20 ADD PUSH0 KECCAK256 PUSH0 DUP7 DUP2 MSTORE PUSH1 0x20 ADD SWAP1 DUP2 MSTORE PUSH1 0x20 ADD PUSH0 KECCAK256 SLOAD LT ISZERO PUSH2 0xA76 JUMPI PUSH1 0x40 MLOAD PUSH32 0x8C379A000000000000000000000000000000000000000000000000000000000 DUP2 MSTORE PUSH1 0x4 ADD PUSH2 0xA6D SWAP1 PUSH2 0x1928 JUMP JUMPDEST PUSH1 0x40 MLOAD DUP1 SWAP2 SUB SWAP1 REVERT JUMPDEST DUP3 PUSH1 0x1 PUSH0 CALLER PUSH20 0xFFFFFFFFFFFFFFFFFFFFFFFFFFFFFFFFFFFFFFFF AND PUSH20 0xFFFFFFFFFFFFFFFFFFFFFFFFFFFFFFFFFFFFFFFF AND DUP2 MSTORE PUSH1 0x20 ADD SWAP1 DUP2 MSTORE PUSH1 0x20 ADD PUSH0 KECCAK256 PUSH0 DUP7 DUP2 MSTORE PUSH1 0x20 ADD SWAP1 DUP2 MSTORE PUSH1 0x20 ADD PUSH0 KECCAK256 PUSH0 DUP3 DUP3 SLOAD PUSH2 0xAD1 SWAP2 SWAP1 PUSH2 0x1697 JUMP JUMPDEST SWAP3 POP POP DUP2 SWAP1 SSTORE POP DUP3 PUSH1 0x1 PUSH0 DUP5 PUSH20 0xFFFFFFFFFFFFFFFFFFFFFFFFFFFFFFFFFFFFFFFF AND PUSH20 0xFFFFFFFFFFFFFFFFFFFFFFFFFFFFFFFFFFFFFFFF AND DUP2 MSTORE PUSH1 0x20 ADD SWAP1 DUP2 MSTORE PUSH1 0x20 ADD PUSH0 KECCAK256 PUSH0 DUP7 DUP2 MSTORE PUSH1 0x20 ADD SWAP1 DUP2 MSTORE PUSH1 0x20 ADD PUSH0 KECCAK256 PUSH0 DUP3 DUP3 SLOAD PUSH2 0xB33 SWAP2 SWAP1 PUSH2 0x16CA JUMP JUMPDEST SWAP3 POP POP DUP2 SWAP1 SSTORE POP DUP2 PUSH20 0xFFFFFFFFFFFFFFFFFFFFFFFFFFFFFFFFFFFFFFFF AND CALLER PUSH20 0xFFFFFFFFFFFFFFFFFFFFFFFFFFFFFFFFFFFFFFFF AND DUP6 PUSH32 0xDFC4C991A34BE4B2F90DF7C348D98B17393713EF48853D9071CF19D4687A6A36 DUP7 PUSH1 0x40 MLOAD PUSH2 0xB98 SWAP2 SWAP1 PUSH2 0xEE5 JUMP JUMPDEST PUSH1 0x40 MLOAD DUP1 SWAP2 SUB SWAP1 LOG4 POP POP POP POP JUMP JUMPDEST PUSH0 PUSH1 0x40 MLOAD SWAP1 POP SWAP1 JUMP JUMPDEST PUSH0 PUSH0 REVERT JUMPDEST PUSH0 PUSH0 REVERT JUMPDEST PUSH0 PUSH0 REVERT JUMPDEST PUSH0 PUSH0 REVERT JUMPDEST PUSH0 PUSH1 0x1F NOT PUSH1 0x1F DUP4 ADD AND SWAP1 POP SWAP2 SWAP1 POP JUMP JUMPDEST PUSH32 0x4E487B7100000000000000000000000000000000000000000000000000000000 PUSH0 MSTORE PUSH1 0x41 PUSH1 0x4 MSTORE PUSH1 0x24 PUSH0 REVERT JUMPDEST PUSH2 0xC05 DUP3 PUSH2 0xBBF JUMP JUMPDEST DUP2 ADD DUP2 DUP2 LT PUSH8 0xFFFFFFFFFFFFFFFF DUP3 GT OR ISZERO PUSH2 0xC24 JUMPI PUSH2 0xC23 PUSH2 0xBCF JUMP JUMPDEST JUMPDEST DUP1 PUSH1 0x40 MSTORE POP POP POP JUMP JUMPDEST PUSH0 PUSH2 0xC36 PUSH2 0xBA6 JUMP JUMPDEST SWAP1 POP PUSH2 0xC42 DUP3 DUP3 PUSH2 0xBFC JUMP JUMPDEST SWAP2 SWAP1 POP JUMP JUMPDEST PUSH0 PUSH8 0xFFFFFFFFFFFFFFFF DUP3 GT ISZERO PUSH2 0xC61 JUMPI PUSH2 0xC60 PUSH2 0xBCF JUMP JUMPDEST JUMPDEST PUSH2 0xC6A DUP3 PUSH2 0xBBF JUMP JUMPDEST SWAP1 POP PUSH1 0x20 DUP2 ADD SWAP1 POP SWAP2 SWAP1 POP JUMP JUMPDEST DUP3 DUP2 DUP4 CALLDATACOPY PUSH0 DUP4 DUP4 ADD MSTORE POP POP POP JUMP JUMPDEST PUSH0 PUSH2 0xC97 PUSH2 0xC92 DUP5 PUSH2 0xC47 JUMP JUMPDEST PUSH2 0xC2D JUMP JUMPDEST SWAP1 POP DUP3 DUP2 MSTORE PUSH1 0x20 DUP2 ADD DUP5 DUP5 DUP5 ADD GT ISZERO PUSH2 0xCB3 JUMPI PUSH2 0xCB2 PUSH2 0xBBB JUMP JUMPDEST JUMPDEST PUSH2 0xCBE DUP5 DUP3 DUP6 PUSH2 0xC77 JUMP JUMPDEST POP SWAP4 SWAP3 POP POP POP JUMP JUMPDEST PUSH0 DUP3 PUSH1 0x1F DUP4 ADD SLT PUSH2 0xCDA JUMPI PUSH2 0xCD9 PUSH2 0xBB7 JUMP JUMPDEST JUMPDEST DUP2 CALLDATALOAD PUSH2 0xCEA DUP5 DUP3 PUSH1 0x20 DUP7 ADD PUSH2 0xC85 JUMP JUMPDEST SWAP2 POP POP SWAP3 SWAP2 POP POP JUMP JUMPDEST PUSH0 DUP2 SWAP1 POP SWAP2 SWAP1 POP JUMP JUMPDEST PUSH2 0xD05 DUP2 PUSH2 0xCF3 JUMP JUMPDEST DUP2 EQ PUSH2 0xD0F JUMPI PUSH0 PUSH0 REVERT JUMPDEST POP JUMP JUMPDEST PUSH0 DUP2 CALLDATALOAD SWAP1 POP PUSH2 0xD20 DUP2 PUSH2 0xCFC JUMP JUMPDEST SWAP3 SWAP2 POP POP JUMP JUMPDEST PUSH0 PUSH0 PUSH0 PUSH0 PUSH1 0x80 DUP6 DUP8 SUB SLT ISZERO PUSH2 0xD3E JUMPI PUSH2 0xD3D PUSH2 0xBAF JUMP JUMPDEST JUMPDEST PUSH0 DUP6 ADD CALLDATALOAD PUSH8 0xFFFFFFFFFFFFFFFF DUP2 GT ISZERO PUSH2 0xD5B JUMPI PUSH2 0xD5A PUSH2 0xBB3 JUMP JUMPDEST JUMPDEST PUSH2 0xD67 DUP8 DUP3 DUP9 ADD PUSH2 0xCC6 JUMP JUMPDEST SWAP5 POP POP PUSH1 0x20 PUSH2 0xD78 DUP8 DUP3 DUP9 ADD PUSH2 0xD12 JUMP JUMPDEST SWAP4 POP POP PUSH1 0x40 PUSH2 0xD89 DUP8 DUP3 DUP9 ADD PUSH2 0xD12 JUMP JUMPDEST SWAP3 POP POP PUSH1 0x60 PUSH2 0xD9A DUP8 DUP3 DUP9 ADD PUSH2 0xD12 JUMP JUMPDEST SWAP2 POP POP SWAP3 SWAP6 SWAP2 SWAP5 POP SWAP3 POP JUMP JUMPDEST PUSH0 PUSH1 0x20 DUP3 DUP5 SUB SLT ISZERO PUSH2 0xDBB JUMPI PUSH2 0xDBA PUSH2 0xBAF JUMP JUMPDEST JUMPDEST PUSH0 PUSH2 0xDC8 DUP5 DUP3 DUP6 ADD PUSH2 0xD12 JUMP JUMPDEST SWAP2 POP POP SWAP3 SWAP2 POP POP JUMP JUMPDEST PUSH0 PUSH20 0xFFFFFFFFFFFFFFFFFFFFFFFFFFFFFFFFFFFFFFFF DUP3 AND SWAP1 POP SWAP2 SWAP1 POP JUMP JUMPDEST PUSH0 PUSH2 0xDFA DUP3 PUSH2 0xDD1 JUMP JUMPDEST SWAP1 POP SWAP2 SWAP1 POP JUMP JUMPDEST PUSH2 0xE0A DUP2 PUSH2 0xDF0 JUMP JUMPDEST DUP3 MSTORE POP POP JUMP JUMPDEST PUSH0 DUP2 MLOAD SWAP1 POP SWAP2 SWAP1 POP JUMP JUMPDEST PUSH0 DUP3 DUP3 MSTORE PUSH1 0x20 DUP3 ADD SWAP1 POP SWAP3 SWAP2 POP POP JUMP JUMPDEST DUP3 DUP2 DUP4 MCOPY PUSH0 DUP4 DUP4 ADD MSTORE POP POP POP JUMP JUMPDEST PUSH0 PUSH2 0xE42 DUP3 PUSH2 0xE10 JUMP JUMPDEST PUSH2 0xE4C DUP2 DUP6 PUSH2 0xE1A JUMP JUMPDEST SWAP4 POP PUSH2 0xE5C DUP2 DUP6 PUSH1 0x20 DUP7 ADD PUSH2 0xE2A JUMP JUMPDEST PUSH2 0xE65 DUP2 PUSH2 0xBBF JUMP JUMPDEST DUP5 ADD SWAP2 POP POP SWAP3 SWAP2 POP POP JUMP JUMPDEST PUSH2 0xE79 DUP2 PUSH2 0xCF3 JUMP JUMPDEST DUP3 MSTORE POP POP JUMP JUMPDEST PUSH0 PUSH1 0xC0 DUP3 ADD SWAP1 POP PUSH2 0xE92 PUSH0 DUP4 ADD DUP10 PUSH2 0xE01 JUMP JUMPDEST DUP2 DUP2 SUB PUSH1 0x20 DUP4 ADD MSTORE PUSH2 0xEA4 DUP2 DUP9 PUSH2 0xE38 JUMP JUMPDEST SWAP1 POP PUSH2 0xEB3 PUSH1 0x40 DUP4 ADD DUP8 PUSH2 0xE70 JUMP JUMPDEST PUSH2 0xEC0 PUSH1 0x60 DUP4 ADD DUP7 PUSH2 0xE70 JUMP JUMPDEST PUSH2 0xECD PUSH1 0x80 DUP4 ADD DUP6 PUSH2 0xE70 JUMP JUMPDEST PUSH2 0xEDA PUSH1 0xA0 DUP4 ADD DUP5 PUSH2 0xE70 JUMP JUMPDEST SWAP8 SWAP7 POP POP POP POP POP POP POP JUMP JUMPDEST PUSH0 PUSH1 0x20 DUP3 ADD SWAP1 POP PUSH2 0xEF8 PUSH0 DUP4 ADD DUP5 PUSH2 0xE70 JUMP JUMPDEST SWAP3 SWAP2 POP POP JUMP JUMPDEST PUSH0 PUSH0 PUSH1 0x40 DUP4 DUP6 SUB SLT ISZERO PUSH2 0xF14 JUMPI PUSH2 0xF13 PUSH2 0xBAF JUMP JUMPDEST JUMPDEST PUSH0 PUSH2 0xF21 DUP6 DUP3 DUP7 ADD PUSH2 0xD12 JUMP JUMPDEST SWAP3 POP POP PUSH1 0x20 PUSH2 0xF32 DUP6 DUP3 DUP7 ADD PUSH2 0xD12 JUMP JUMPDEST SWAP2 POP POP SWAP3 POP SWAP3 SWAP1 POP JUMP JUMPDEST PUSH2 0xF45 DUP2 PUSH2 0xDF0 JUMP JUMPDEST DUP2 EQ PUSH2 0xF4F JUMPI PUSH0 PUSH0 REVERT JUMPDEST POP JUMP JUMPDEST PUSH0 DUP2 CALLDATALOAD SWAP1 POP PUSH2 0xF60 DUP2 PUSH2 0xF3C JUMP JUMPDEST SWAP3 SWAP2 POP POP JUMP JUMPDEST PUSH0 PUSH0 PUSH1 0x40 DUP4 DUP6 SUB SLT ISZERO PUSH2 0xF7C JUMPI PUSH2 0xF7B PUSH2 0xBAF JUMP JUMPDEST JUMPDEST PUSH0 PUSH2 0xF89 DUP6 DUP3 DUP7 ADD PUSH2 0xF52 JUMP JUMPDEST SWAP3 POP POP PUSH1 0x20 PUSH2 0xF9A DUP6 DUP3 DUP7 ADD PUSH2 0xD12 JUMP JUMPDEST SWAP2 POP POP SWAP3 POP SWAP3 SWAP1 POP JUMP JUMPDEST PUSH0 PUSH0 PUSH0 PUSH1 0x60 DUP5 DUP7 SUB SLT ISZERO PUSH2 0xFBB JUMPI PUSH2 0xFBA PUSH2 0xBAF JUMP JUMPDEST JUMPDEST PUSH0 PUSH2 0xFC8 DUP7 DUP3 DUP8 ADD PUSH2 0xD12 JUMP JUMPDEST SWAP4 POP POP PUSH1 0x20 PUSH2 0xFD9 DUP7 DUP3 DUP8 ADD PUSH2 0xD12 JUMP JUMPDEST SWAP3 POP POP PUSH1 0x40 PUSH2 0xFEA DUP7 DUP3 DUP8 ADD PUSH2 0xF52 JUMP JUMPDEST SWAP2 POP POP SWAP3 POP SWAP3 POP SWAP3 JUMP JUMPDEST PUSH32 0x4576656E74206D75737420626520696E20746865206675747572650000000000 PUSH0 DUP3 ADD MSTORE POP JUMP JUMPDEST PUSH0 PUSH2 0x1028 PUSH1 0x1B DUP4 PUSH2 0xE1A JUMP JUMPDEST SWAP2 POP PUSH2 0x1033 DUP3 PUSH2 0xFF4 JUMP JUMPDEST PUSH1 0x20 DUP3 ADD SWAP1 POP SWAP2 SWAP1 POP JUMP JUMPDEST PUSH0 PUSH1 0x20 DUP3 ADD SWAP1 POP DUP2 DUP2 SUB PUSH0 DUP4 ADD MSTORE PUSH2 0x1055 DUP2 PUSH2 0x101C JUMP JUMPDEST SWAP1 POP SWAP2 SWAP1 POP JUMP JUMPDEST PUSH32 0x4D75737420637265617465206174206C656173742031207469636B6574000000 PUSH0 DUP3 ADD MSTORE POP JUMP JUMPDEST PUSH0 PUSH2 0x1090 PUSH1 0x1D DUP4 PUSH2 0xE1A JUMP JUMPDEST SWAP2 POP PUSH2 0x109B DUP3 PUSH2 0x105C JUMP JUMPDEST PUSH1 0x20 DUP3 ADD SWAP1 POP SWAP2 SWAP1 POP JUMP JUMPDEST PUSH0 PUSH1 0x20 DUP3 ADD SWAP1 POP DUP2 DUP2 SUB PUSH0 DUP4 ADD MSTORE PUSH2 0x10BD DUP2 PUSH2 0x1084 JUMP JUMPDEST SWAP1 POP SWAP2 SWAP1 POP JUMP JUMPDEST PUSH32 0x4E487B7100000000000000000000000000000000000000000000000000000000 PUSH0 MSTORE PUSH1 0x22 PUSH1 0x4 MSTORE PUSH1 0x24 PUSH0 REVERT JUMPDEST PUSH0 PUSH1 0x2 DUP3 DIV SWAP1 POP PUSH1 0x1 DUP3 AND DUP1 PUSH2 0x1108 JUMPI PUSH1 0x7F DUP3 AND SWAP2 POP JUMPDEST PUSH1 0x20 DUP3 LT DUP2 SUB PUSH2 0x111B JUMPI PUSH2 0x111A PUSH2 0x10C4 JUMP JUMPDEST JUMPDEST POP SWAP2 SWAP1 POP JUMP JUMPDEST PUSH0 DUP2 SWAP1 POP DUP2 PUSH0 MSTORE PUSH1 0x20 PUSH0 KECCAK256 SWAP1 POP SWAP2 SWAP1 POP JUMP JUMPDEST PUSH0 PUSH1 0x20 PUSH1 0x1F DUP4 ADD DIV SWAP1 POP SWAP2 SWAP1 POP JUMP JUMPDEST PUSH0 DUP3 DUP3 SHL SWAP1 POP SWAP3 SWAP2 POP POP JUMP JUMPDEST PUSH0 PUSH1 0x8 DUP4 MUL PUSH2 0x117D PUSH32 0xFFFFFFFFFFFFFFFFFFFFFFFFFFFFFFFFFFFFFFFFFFFFFFFFFFFFFFFFFFFFFFFF DUP3 PUSH2 0x1142 JUMP JUMPDEST PUSH2 0x1187 DUP7 DUP4 PUSH2 0x1142 JUMP JUMPDEST SWAP6 POP DUP1 NOT DUP5 AND SWAP4 POP DUP1 DUP7 AND DUP5 OR SWAP3 POP POP POP SWAP4 SWAP3 POP POP POP JUMP JUMPDEST PUSH0 DUP2 SWAP1 POP SWAP2 SWAP1 POP JUMP JUMPDEST PUSH0 PUSH2 0x11C2 PUSH2 0x11BD PUSH2 0x11B8 DUP5 PUSH2 0xCF3 JUMP JUMPDEST PUSH2 0x119F JUMP JUMPDEST PUSH2 0xCF3 JUMP JUMPDEST SWAP1 POP SWAP2 SWAP1 POP JUMP JUMPDEST PUSH0 DUP2 SWAP1 POP SWAP2 SWAP1 POP JUMP JUMPDEST PUSH2 0x11DB DUP4 PUSH2 0x11A8 JUMP JUMPDEST PUSH2 0x11EF PUSH2 0x11E7 DUP3 PUSH2 0x11C9 JUMP JUMPDEST DUP5 DUP5 SLOAD PUSH2 0x114E JUMP JUMPDEST DUP3 SSTORE POP POP POP POP JUMP JUMPDEST PUSH0 PUSH0 SWAP1 POP SWAP1 JUMP JUMPDEST PUSH2 0x1206 PUSH2 0x11F7 JUMP JUMPDEST PUSH2 0x1211 DUP2 DUP5 DUP5 PUSH2 0x11D2 JUMP JUMPDEST POP POP POP JUMP JUMPDEST JUMPDEST DUP2 DUP2 LT ISZERO PUSH2 0x1234 JUMPI PUSH2 0x1229 PUSH0 DUP3 PUSH2 0x11FE JUMP JUMPDEST PUSH1 0x1 DUP2 ADD SWAP1 POP PUSH2 0x1217 JUMP JUMPDEST POP POP JUMP JUMPDEST PUSH1 0x1F DUP3 GT ISZERO PUSH2 0x1279 JUMPI PUSH2 0x124A DUP2 PUSH2 0x1121 JUMP JUMPDEST PUSH2 0x1253 DUP5 PUSH2 0x1133 JUMP JUMPDEST DUP2 ADD PUSH1 0x20 DUP6 LT ISZERO PUSH2 0x1262 JUMPI DUP2 SWAP1 POP JUMPDEST PUSH2 0x1276 PUSH2 0x126E DUP6 PUSH2 0x1133 JUMP JUMPDEST DUP4 ADD DUP3 PUSH2 0x1216 JUMP JUMPDEST POP POP JUMPDEST POP POP POP JUMP JUMPDEST PUSH0 DUP3 DUP3 SHR SWAP1 POP SWAP3 SWAP2 POP POP JUMP JUMPDEST PUSH0 PUSH2 0x1299 PUSH0 NOT DUP5 PUSH1 0x8 MUL PUSH2 0x127E JUMP JUMPDEST NOT DUP1 DUP4 AND SWAP2 POP POP SWAP3 SWAP2 POP POP JUMP JUMPDEST PUSH0 PUSH2 0x12B1 DUP4 DUP4 PUSH2 0x128A JUMP JUMPDEST SWAP2 POP DUP3 PUSH1 0x2 MUL DUP3 OR SWAP1 POP SWAP3 SWAP2 POP POP JUMP JUMPDEST PUSH2 0x12CA DUP3 PUSH2 0xE10 JUMP JUMPDEST PUSH8 0xFFFFFFFFFFFFFFFF DUP2 GT ISZERO PUSH2 0x12E3 JUMPI PUSH2 0x12E2 PUSH2 0xBCF JUMP JUMPDEST JUMPDEST PUSH2 0x12ED DUP3 SLOAD PUSH2 0x10F1 JUMP JUMPDEST PUSH2 0x12F8 DUP3 DUP3 DUP6 PUSH2 0x1238 JUMP JUMPDEST PUSH0 PUSH1 0x20 SWAP1 POP PUSH1 0x1F DUP4 GT PUSH1 0x1 DUP2 EQ PUSH2 0x1329 JUMPI PUSH0 DUP5 ISZERO PUSH2 0x1317 JUMPI DUP3 DUP8 ADD MLOAD SWAP1 POP JUMPDEST PUSH2 0x1321 DUP6 DUP3 PUSH2 0x12A6 JUMP JUMPDEST DUP7 SSTORE POP PUSH2 0x1388 JUMP JUMPDEST PUSH1 0x1F NOT DUP5 AND PUSH2 0x1337 DUP7 PUSH2 0x1121 JUMP JUMPDEST PUSH0 JUMPDEST DUP3 DUP2 LT ISZERO PUSH2 0x135E JUMPI DUP5 DUP10 ADD MLOAD DUP3 SSTORE PUSH1 0x1 DUP3 ADD SWAP2 POP PUSH1 0x20 DUP6 ADD SWAP5 POP PUSH1 0x20 DUP2 ADD SWAP1 POP PUSH2 0x1339 JUMP JUMPDEST DUP7 DUP4 LT ISZERO PUSH2 0x137B JUMPI DUP5 DUP10 ADD MLOAD PUSH2 0x1377 PUSH1 0x1F DUP10 AND DUP3 PUSH2 0x128A JUMP JUMPDEST DUP4 SSTORE POP JUMPDEST PUSH1 0x1 PUSH1 0x2 DUP9 MUL ADD DUP9 SSTORE POP POP POP JUMPDEST POP POP POP POP POP POP JUMP JUMPDEST PUSH32 0x4E487B7100000000000000000000000000000000000000000000000000000000 PUSH0 MSTORE PUSH1 0x11 PUSH1 0x4 MSTORE PUSH1 0x24 PUSH0 REVERT JUMPDEST PUSH0 PUSH2 0x13C7 DUP3 PUSH2 0xCF3 JUMP JUMPDEST SWAP2 POP PUSH32 0xFFFFFFFFFFFFFFFFFFFFFFFFFFFFFFFFFFFFFFFFFFFFFFFFFFFFFFFFFFFFFFFF DUP3 SUB PUSH2 0x13F9 JUMPI PUSH2 0x13F8 PUSH2 0x1390 JUMP JUMPDEST JUMPDEST PUSH1 0x1 DUP3 ADD SWAP1 POP SWAP2 SWAP1 POP JUMP JUMPDEST PUSH0 PUSH1 0x80 DUP3 ADD SWAP1 POP DUP2 DUP2 SUB PUSH0 DUP4 ADD MSTORE PUSH2 0x141C DUP2 DUP8 PUSH2 0xE38 JUMP JUMPDEST SWAP1 POP PUSH2 0x142B PUSH1 0x20 DUP4 ADD DUP7 PUSH2 0xE70 JUMP JUMPDEST PUSH2 0x1438 PUSH1 0x40 DUP4 ADD DUP6 PUSH2 0xE70 JUMP JUMPDEST PUSH2 0x1445 PUSH1 0x60 DUP4 ADD DUP5 PUSH2 0xE70 JUMP JUMPDEST SWAP6 SWAP5 POP POP POP POP POP JUMP JUMPDEST PUSH32 0x4576656E7420646F6573206E6F74206578697374000000000000000000000000 PUSH0 DUP3 ADD MSTORE POP JUMP JUMPDEST PUSH0 PUSH2 0x1482 PUSH1 0x14 DUP4 PUSH2 0xE1A JUMP JUMPDEST SWAP2 POP PUSH2 0x148D DUP3 PUSH2 0x144E JUMP JUMPDEST PUSH1 0x20 DUP3 ADD SWAP1 POP SWAP2 SWAP1 POP JUMP JUMPDEST PUSH0 PUSH1 0x20 DUP3 ADD SWAP1 POP DUP2 DUP2 SUB PUSH0 DUP4 ADD MSTORE PUSH2 0x14AF DUP2 PUSH2 0x1476 JUMP JUMPDEST SWAP1 POP SWAP2 SWAP1 POP JUMP JUMPDEST PUSH32 0x4576656E742068617320616C7265616479207061737365640000000000000000 PUSH0 DUP3 ADD MSTORE POP JUMP JUMPDEST PUSH0 PUSH2 0x14EA PUSH1 0x18 DUP4 PUSH2 0xE1A JUMP JUMPDEST SWAP2 POP PUSH2 0x14F5 DUP3 PUSH2 0x14B6 JUMP JUMPDEST PUSH1 0x20 DUP3 ADD SWAP1 POP SWAP2 SWAP1 POP JUMP JUMPDEST PUSH0 PUSH1 0x20 DUP3 ADD SWAP1 POP DUP2 DUP2 SUB PUSH0 DUP4 ADD MSTORE PUSH2 0x1517 DUP2 PUSH2 0x14DE JUMP JUMPDEST SWAP1 POP SWAP2 SWAP1 POP JUMP JUMPDEST PUSH32 0x4D75737420627579206174206C656173742031207469636B6574000000000000 PUSH0 DUP3 ADD MSTORE POP JUMP JUMPDEST PUSH0 PUSH2 0x1552 PUSH1 0x1A DUP4 PUSH2 0xE1A JUMP JUMPDEST SWAP2 POP PUSH2 0x155D DUP3 PUSH2 0x151E JUMP JUMPDEST PUSH1 0x20 DUP3 ADD SWAP1 POP SWAP2 SWAP1 POP JUMP JUMPDEST PUSH0 PUSH1 0x20 DUP3 ADD SWAP1 POP DUP2 DUP2 SUB PUSH0 DUP4 ADD MSTORE PUSH2 0x157F DUP2 PUSH2 0x1546 JUMP JUMPDEST SWAP1 POP SWAP2 SWAP1 POP JUMP JUMPDEST PUSH32 0x4E6F7420656E6F756768207469636B6574732072656D61696E696E6700000000 PUSH0 DUP3 ADD MSTORE POP JUMP JUMPDEST PUSH0 PUSH2 0x15BA PUSH1 0x1C DUP4 PUSH2 0xE1A JUMP JUMPDEST SWAP2 POP PUSH2 0x15C5 DUP3 PUSH2 0x1586 JUMP JUMPDEST PUSH1 0x20 DUP3 ADD SWAP1 POP SWAP2 SWAP1 POP JUMP JUMPDEST PUSH0 PUSH1 0x20 DUP3 ADD SWAP1 POP DUP2 DUP2 SUB PUSH0 DUP4 ADD MSTORE PUSH2 0x15E7 DUP2 PUSH2 0x15AE JUMP JUMPDEST SWAP1 POP SWAP2 SWAP1 POP JUMP JUMPDEST PUSH0 PUSH2 0x15F8 DUP3 PUSH2 0xCF3 JUMP JUMPDEST SWAP2 POP PUSH2 0x1603 DUP4 PUSH2 0xCF3 JUMP JUMPDEST SWAP3 POP DUP3 DUP3 MUL PUSH2 0x1611 DUP2 PUSH2 0xCF3 JUMP JUMPDEST SWAP2 POP DUP3 DUP3 DIV DUP5 EQ DUP4 ISZERO OR PUSH2 0x1628 JUMPI PUSH2 0x1627 PUSH2 0x1390 JUMP JUMPDEST JUMPDEST POP SWAP3 SWAP2 POP POP JUMP JUMPDEST PUSH32 0x496E636F7272656374207061796D656E7420616D6F756E740000000000000000 PUSH0 DUP3 ADD MSTORE POP JUMP JUMPDEST PUSH0 PUSH2 0x1663 PUSH1 0x18 DUP4 PUSH2 0xE1A JUMP JUMPDEST SWAP2 POP PUSH2 0x166E DUP3 PUSH2 0x162F JUMP JUMPDEST PUSH1 0x20 DUP3 ADD SWAP1 POP SWAP2 SWAP1 POP JUMP JUMPDEST PUSH0 PUSH1 0x20 DUP3 ADD SWAP1 POP DUP2 DUP2 SUB PUSH0 DUP4 ADD MSTORE PUSH2 0x1690 DUP2 PUSH2 0x1657 JUMP JUMPDEST SWAP1 POP SWAP2 SWAP1 POP JUMP JUMPDEST PUSH0 PUSH2 0x16A1 DUP3 PUSH2 0xCF3 JUMP JUMPDEST SWAP2 POP PUSH2 0x16AC DUP4 PUSH2 0xCF3 JUMP JUMPDEST SWAP3 POP DUP3 DUP3 SUB SWAP1 POP DUP2 DUP2 GT ISZERO PUSH2 0x16C4 JUMPI PUSH2 0x16C3 PUSH2 0x1390 JUMP JUMPDEST JUMPDEST SWAP3 SWAP2 POP POP JUMP JUMPDEST PUSH0 PUSH2 0x16D4 DUP3 PUSH2 0xCF3 JUMP JUMPDEST SWAP2 POP PUSH2 0x16DF DUP4 PUSH2 0xCF3 JUMP JUMPDEST SWAP3 POP DUP3 DUP3 ADD SWAP1 POP DUP1 DUP3 GT ISZERO PUSH2 0x16F7 JUMPI PUSH2 0x16F6 PUSH2 0x1390 JUMP JUMPDEST JUMPDEST SWAP3 SWAP2 POP POP JUMP JUMPDEST PUSH0 DUP2 SWAP1 POP SWAP3 SWAP2 POP POP JUMP JUMPDEST POP JUMP JUMPDEST PUSH0 PUSH2 0x1715 PUSH0 DUP4 PUSH2 0x16FD JUMP JUMPDEST SWAP2 POP PUSH2 0x1720 DUP3 PUSH2 0x1707 JUMP JUMPDEST PUSH0 DUP3 ADD SWAP1 POP SWAP2 SWAP1 POP JUMP JUMPDEST PUSH0 PUSH2 0x1734 DUP3 PUSH2 0x170A JUMP JUMPDEST SWAP2 POP DUP2 SWAP1 POP SWAP2 SWAP1 POP JUMP JUMPDEST PUSH32 0x5061796D656E74206661696C6564000000000000000000000000000000000000 PUSH0 DUP3 ADD MSTORE POP JUMP JUMPDEST PUSH0 PUSH2 0x1772 PUSH1 0xE DUP4 PUSH2 0xE1A JUMP JUMPDEST SWAP2 POP PUSH2 0x177D DUP3 PUSH2 0x173E JUMP JUMPDEST PUSH1 0x20 DUP3 ADD SWAP1 POP SWAP2 SWAP1 POP JUMP JUMPDEST PUSH0 PUSH1 0x20 DUP3 ADD SWAP1 POP DUP2 DUP2 SUB PUSH0 DUP4 ADD MSTORE PUSH2 0x179F DUP2 PUSH2 0x1766 JUMP JUMPDEST SWAP1 POP SWAP2 SWAP1 POP JUMP JUMPDEST PUSH32 0x496E76616C696420726563697069656E74000000000000000000000000000000 PUSH0 DUP3 ADD MSTORE POP JUMP JUMPDEST PUSH0 PUSH2 0x17DA PUSH1 0x11 DUP4 PUSH2 0xE1A JUMP JUMPDEST SWAP2 POP PUSH2 0x17E5 DUP3 PUSH2 0x17A6 JUMP JUMPDEST PUSH1 0x20 DUP3 ADD SWAP1 POP SWAP2 SWAP1 POP JUMP JUMPDEST PUSH0 PUSH1 0x20 DUP3 ADD SWAP1 POP DUP2 DUP2 SUB PUSH0 DUP4 ADD MSTORE PUSH2 0x1807 DUP2 PUSH2 0x17CE JUMP JUMPDEST SWAP1 POP SWAP2 SWAP1 POP JUMP JUMPDEST PUSH32 0x4D757374207472616E73666572206174206C656173742031207469636B657400 PUSH0 DUP3 ADD MSTORE POP JUMP JUMPDEST PUSH0 PUSH2 0x1842 PUSH1 0x1F DUP4 PUSH2 0xE1A JUMP JUMPDEST SWAP2 POP PUSH2 0x184D DUP3 PUSH2 0x180E JUMP JUMPDEST PUSH1 0x20 DUP3 ADD SWAP1 POP SWAP2 SWAP1 POP JUMP JUMPDEST PUSH0 PUSH1 0x20 DUP3 ADD SWAP1 POP DUP2 DUP2 SUB PUSH0 DUP4 ADD MSTORE PUSH2 0x186F DUP2 PUSH2 0x1836 JUMP JUMPDEST SWAP1 POP SWAP2 SWAP1 POP JUMP JUMPDEST PUSH32 0x43616E6E6F74207472616E73666572206166746572206576656E740000000000 PUSH0 DUP3 ADD MSTORE POP JUMP JUMPDEST PUSH0 PUSH2 0x18AA PUSH1 0x1B DUP4 PUSH2 0xE1A JUMP JUMPDEST SWAP2 POP PUSH2 0x18B5 DUP3 PUSH2 0x1876 JUMP JUMPDEST PUSH1 0x20 DUP3 ADD SWAP1 POP SWAP2 SWAP1 POP JUMP JUMPDEST PUSH0 PUSH1 0x20 DUP3 ADD SWAP1 POP DUP2 DUP2 SUB PUSH0 DUP4 ADD MSTORE PUSH2 0x18D7 DUP2 PUSH2 0x189E JUMP JUMPDEST SWAP1 POP SWAP2 SWAP1 POP JUMP JUMPDEST PUSH32 0x4E6F7420656E6F756768207469636B65747320746F207472616E736665720000 PUSH0 DUP3 ADD MSTORE POP JUMP JUMPDEST PUSH0 PUSH2 0x1912 PUSH1 0x1E DUP4 PUSH2 0xE1A JUMP JUMPDEST SWAP2 POP PUSH2 0x191D DUP3 PUSH2 0x18DE JUMP JUMPDEST PUSH1 0x20 DUP3 ADD SWAP1 POP SWAP2 SWAP1 POP JUMP JUMPDEST PUSH0 PUSH1 0x20 DUP3 ADD SWAP1 POP DUP2 DUP2 SUB PUSH0 DUP4 ADD MSTORE PUSH2 0x193F DUP2 PUSH2 0x1906 JUMP JUMPDEST SWAP1 POP SWAP2 SWAP1 POP JUMP INVALID LOG2 PUSH5 0x6970667358 0x22 SLT KECCAK256 0xD8 0xB4 SWAP1 EXTSTATICCALL PUSH7 0x8623F71DA64095 INVALID SWAP13 0x1F PUSH5 0x3674BE8731 SWAP13 0x4C BYTE 0x26 0xB6 0xC7 CLZ PUSH14 0x93A78964736F6C634300081F0033 "
				},
				"gasEstimates": {
					"creation": {
						"codeDepositCost": "1304800",
						"executionCost": "1354",
						"totalCost": "1306154"
					},
					"external": {
						"buyTicket(uint256,uint256)": "infinite",
						"createEvent(string,uint256,uint256,uint256)": "infinite",
						"events(uint256)": "infinite",
						"myTickets(uint256)": "infinite",
						"nextId()": "2447",
						"tickets(address,uint256)": "infinite",
						"transferTicket(uint256,uint256,address)": "infinite"
					}
				},
				"methodIdentifiers": {
					"buyTicket(uint256,uint256)": "298ec208",
					"createEvent(string,uint256,uint256,uint256)": "0374ab0b",
					"events(uint256)": "0b791430",
					"myTickets(uint256)": "28bd0a3d",
					"nextId()": "61b8ce8c",
					"tickets(address,uint256)": "dae7a13c",
					"transferTicket(uint256,uint256,address)": "f086a09b"
				}
			},
			"storageLayout": {
				"storage": [
					{
						"astId": 19,
						"contract": "contracts/event_organizer.sol:EventTicket",
						"label": "events",
						"offset": 0,
						"slot": "0",
						"type": "t_mapping(t_uint256,t_struct(Event)14_storage)"
					},
					{
						"astId": 25,
						"contract": "contracts/event_organizer.sol:EventTicket",
						"label": "tickets",
						"offset": 0,
						"slot": "1",
						"type": "t_mapping(t_address,t_mapping(t_uint256,t_uint256))"
					},
					{
						"astId": 27,
						"contract": "contracts/event_organizer.sol:EventTicket",
						"label": "nextId",
						"offset": 0,
						"slot": "2",
						"type": "t_uint256"
					}
				],
				"types": {
					"t_address": {
						"encoding": "inplace",
						"label": "address",
						"numberOfBytes": "20"
					},
					"t_mapping(t_address,t_mapping(t_uint256,t_uint256))": {
						"encoding": "mapping",
						"key": "t_address",
						"label": "mapping(address => mapping(uint256 => uint256))",
						"numberOfBytes": "32",
						"value": "t_mapping(t_uint256,t_uint256)"
					},
					"t_mapping(t_uint256,t_struct(Event)14_storage)": {
						"encoding": "mapping",
						"key": "t_uint256",
						"label": "mapping(uint256 => struct EventTicket.Event)",
						"numberOfBytes": "32",
						"value": "t_struct(Event)14_storage"
					},
					"t_mapping(t_uint256,t_uint256)": {
						"encoding": "mapping",
						"key": "t_uint256",
						"label": "mapping(uint256 => uint256)",
						"numberOfBytes": "32",
						"value": "t_uint256"
					},
					"t_string_storage": {
						"encoding": "bytes",
						"label": "string",
						"numberOfBytes": "32"
					},
					"t_struct(Event)14_storage": {
						"encoding": "inplace",
						"label": "struct EventTicket.Event",
						"members": [
							{
								"astId": 3,
								"contract": "contracts/event_organizer.sol:EventTicket",
								"label": "organizer",
								"offset": 0,
								"slot": "0",
								"type": "t_address"
							},
							{
								"astId": 5,
								"contract": "contracts/event_organizer.sol:EventTicket",
								"label": "name",
								"offset": 0,
								"slot": "1",
								"type": "t_string_storage"
							},
							{
								"astId": 7,
								"contract": "contracts/event_organizer.sol:EventTicket",
								"label": "date",
								"offset": 0,
								"slot": "2",
								"type": "t_uint256"
							},
							{
								"astId": 9,
								"contract": "contracts/event_organizer.sol:EventTicket",
								"label": "price",
								"offset": 0,
								"slot": "3",
								"type": "t_uint256"
							},
							{
								"astId": 11,
								"contract": "contracts/event_organizer.sol:EventTicket",
								"label": "ticketCount",
								"offset": 0,
								"slot": "4",
								"type": "t_uint256"
							},
							{
								"astId": 13,
								"contract": "contracts/event_organizer.sol:EventTicket",
								"label": "ticketRemain",
								"offset": 0,
								"slot": "5",
								"type": "t_uint256"
							}
						],
						"numberOfBytes": "192"
					},
					"t_uint256": {
						"encoding": "inplace",
						"label": "uint256",
						"numberOfBytes": "32"
					}
				}
			},
			"userdoc": {
				"kind": "user",
				"methods": {},
				"version": 1
			}
		}
	}
}