{
	"contracts/voting.sol": {
		"Voting": {
			"abi": [
				{
					"inputs": [],
					"stateMutability": "nonpayable",
					"type": "constructor"
				},
				{
					"anonymous": false,
					"inputs": [
						{
							"indexed": true,
							"internalType": "address",
							"name": "voter",
							"type": "address"
						},
						{
							"indexed": true,
							"internalType": "address",
							"name": "receiver",
							"type": "address"
						},
						{
							"indexed": false,
							"internalType": "uint256",
							"name": "timestamp",
							"type": "uint256"
						}
					],
					"name": "AddVote",
					"type": "event"
				},
				{
					"anonymous": false,
					"inputs": [
						{
							"indexed": true,
							"internalType": "address",
							"name": "voter",
							"type": "address"
						}
					],
					"name": "RemoveVote",
					"type": "event"
				},
				{
					"anonymous": false,
					"inputs": [
						{
							"indexed": true,
							"internalType": "address",
							"name": "startedby",
							"type": "address"
						}
					],
					"name": "StartVoting",
					"type": "event"
				},
				{
					"anonymous": false,
					"inputs": [
						{
							"indexed": true,
							"internalType": "address",
							"name": "stoppedby",
							"type": "address"
						}
					],
					"name": "StopVoting",
					"type": "event"
				},
				{
					"inputs": [
						{
							"internalType": "address",
							"name": "receiver",
							"type": "address"
						}
					],
					"name": "addVote",
					"outputs": [
						{
							"internalType": "bool",
							"name": "",
							"type": "bool"
						}
					],
					"stateMutability": "nonpayable",
					"type": "function"
				},
				{
					"inputs": [
						{
							"internalType": "address",
							"name": "voterAddress",
							"type": "address"
						}
					],
					"name": "getVote",
					"outputs": [
						{
							"internalType": "address",
							"name": "candidateAddress",
							"type": "address"
						}
					],
					"stateMutability": "view",
					"type": "function"
				},
				{
					"inputs": [],
					"name": "removeVote",
					"outputs": [
						{
							"internalType": "bool",
							"name": "",
							"type": "bool"
						}
					],
					"stateMutability": "nonpayable",
					"type": "function"
				},
				{
					"inputs": [],
					"name": "startVoting",
					"outputs": [
						{
							"internalType": "bool",
							"name": "",
							"type": "bool"
						}
					],
					"stateMutability": "nonpayable",
					"type": "function"
				},
				{
					"inputs": [],
					"name": "stopVoting",
					"outputs": [
						{
							"internalType": "bool",
							"name": "",
							"type": "bool"
						}
					],
					"stateMutability": "nonpayable",
					"type": "function"
				},
				{
					"inputs": [
						{
							"internalType": "address",
							"name": "",
							"type": "address"
						}
					],
					"name": "votes",
					"outputs": [
						{
							"internalType": "address",
							"name": "receiver",
							"type": "address"
						},
						{
							"internalType": "uint256",
							"name": "timestamp",
							"type": "uint256"
						}
					],
					"stateMutability": "view",
					"type": "function"
				},
				{
					"inputs": [],
					"name": "voting",
					"outputs": [
						{
							"internalType": "bool",
							"name": "",
							"type": "bool"
						}
					],
					"stateMutability": "view",
					"type": "function"
				}
			],
			"devdoc": {
				"kind": "dev",
				"methods": {},
				"version": 1
			},
			"evm": {
				"assembly": "    /* \"contracts/voting.sol\":76:1456  contract Voting{... */\n  mstore(0x40, 0x80)\n    /* \"contracts/voting.sol\":481:527  constructor(){... */\n  callvalue\n  dup1\n  iszero\n  tag_1\n  jumpi\n  revert(0x00, 0x00)\ntag_1:\n  pop\n    /* \"contracts/voting.sol\":514:519  false */\n  0x00\n    /* \"contracts/voting.sol\":505:511  voting */\n  0x01\n  0x00\n    /* \"contracts/voting.sol\":505:519  voting = false */\n  0x0100\n  exp\n  dup2\n  sload\n  dup2\n  0xff\n  mul\n  not\n  and\n  swap1\n  dup4\n  iszero\n  iszero\n  mul\n  or\n  swap1\n  sstore\n  pop\n    /* \"contracts/voting.sol\":76:1456  contract Voting{... */\n  dataSize(sub_0)\n  dup1\n  dataOffset(sub_0)\n  0x00\n  codecopy\n  0x00\n  return\nstop\n\nsub_0: assembly {\n        /* \"contracts/voting.sol\":76:1456  contract Voting{... */\n      mstore(0x40, 0x80)\n      callvalue\n      dup1\n      iszero\n      tag_1\n      jumpi\n      revert(0x00, 0x00)\n    tag_1:\n      pop\n      jumpi(tag_2, lt(calldatasize, 0x04))\n      shr(0xe0, calldataload(0x00))\n      dup1\n      0x8d337b81\n      gt\n      tag_10\n      jumpi\n      dup1\n      0x8d337b81\n      eq\n      tag_6\n      jumpi\n      dup1\n      0xd8bff5a5\n      eq\n      tag_7\n      jumpi\n      dup1\n      0xfab2f86b\n      eq\n      tag_8\n      jumpi\n      dup1\n      0xfce1ccca\n      eq\n      tag_9\n      jumpi\n      jump(tag_2)\n    tag_10:\n      dup1\n      0x1ec6b60a\n      eq\n      tag_3\n      jumpi\n      dup1\n      0x49aa4ee2\n      eq\n      tag_4\n      jumpi\n      dup1\n      0x6cea0e46\n      eq\n      tag_5\n      jumpi\n    tag_2:\n      revert(0x00, 0x00)\n        /* \"contracts/voting.sol\":533:672  function startVoting() external returns (bool){... */\n    tag_3:\n      tag_11\n      tag_12\n      jump\t// in\n    tag_11:\n      mload(0x40)\n      tag_13\n      swap2\n      swap1\n      tag_14\n      jump\t// in\n    tag_13:\n      mload(0x40)\n      dup1\n      swap2\n      sub\n      swap1\n      return\n        /* \"contracts/voting.sol\":1107:1305  function removeVote() external returns(bool){... */\n    tag_4:\n      tag_15\n      tag_16\n      jump\t// in\n    tag_15:\n      mload(0x40)\n      tag_17\n      swap2\n      swap1\n      tag_14\n      jump\t// in\n    tag_17:\n      mload(0x40)\n      dup1\n      swap2\n      sub\n      swap1\n      return\n        /* \"contracts/voting.sol\":821:1101  function addVote(address receiver) external returns(bool){... */\n    tag_5:\n      tag_18\n      0x04\n      dup1\n      calldatasize\n      sub\n      dup2\n      add\n      swap1\n      tag_19\n      swap2\n      swap1\n      tag_20\n      jump\t// in\n    tag_19:\n      tag_21\n      jump\t// in\n    tag_18:\n      mload(0x40)\n      tag_22\n      swap2\n      swap1\n      tag_14\n      jump\t// in\n    tag_22:\n      mload(0x40)\n      dup1\n      swap2\n      sub\n      swap1\n      return\n        /* \"contracts/voting.sol\":1311:1451  function getVote(address voterAddress) external view returns(address candidateAddress){... */\n    tag_6:\n      tag_23\n      0x04\n      dup1\n      calldatasize\n      sub\n      dup2\n      add\n      swap1\n      tag_24\n      swap2\n      swap1\n      tag_20\n      jump\t// in\n    tag_24:\n      tag_25\n      jump\t// in\n    tag_23:\n      mload(0x40)\n      tag_26\n      swap2\n      swap1\n      tag_27\n      jump\t// in\n    tag_26:\n      mload(0x40)\n      dup1\n      swap2\n      sub\n      swap1\n      return\n        /* \"contracts/voting.sol\":175:212  mapping(address => Vote) public votes */\n    tag_7:\n      tag_28\n      0x04\n      dup1\n      calldatasize\n      sub\n      dup2\n      add\n      swap1\n      tag_29\n      swap2\n      swap1\n      tag_20\n      jump\t// in\n    tag_29:\n      tag_30\n      jump\t// in\n    tag_28:\n      mload(0x40)\n      tag_31\n      swap3\n      swap2\n      swap1\n      tag_32\n      jump\t// in\n    tag_31:\n      mload(0x40)\n      dup1\n      swap2\n      sub\n      swap1\n      return\n        /* \"contracts/voting.sol\":678:815  function stopVoting() external returns(bool){... */\n    tag_8:\n      tag_33\n      tag_34\n      jump\t// in\n    tag_33:\n      mload(0x40)\n      tag_35\n      swap2\n      swap1\n      tag_14\n      jump\t// in\n    tag_35:\n      mload(0x40)\n      dup1\n      swap2\n      sub\n      swap1\n      return\n        /* \"contracts/voting.sol\":219:237  bool public voting */\n    tag_9:\n      tag_36\n      tag_37\n      jump\t// in\n    tag_36:\n      mload(0x40)\n      tag_38\n      swap2\n      swap1\n      tag_14\n      jump\t// in\n    tag_38:\n      mload(0x40)\n      dup1\n      swap2\n      sub\n      swap1\n      return\n        /* \"contracts/voting.sol\":533:672  function startVoting() external returns (bool){... */\n    tag_12:\n        /* \"contracts/voting.sol\":574:578  bool */\n      0x00\n        /* \"contracts/voting.sol\":599:603  true */\n      0x01\n        /* \"contracts/voting.sol\":590:596  voting */\n      dup1\n      0x00\n        /* \"contracts/voting.sol\":590:603  voting = true */\n      0x0100\n      exp\n      dup2\n      sload\n      dup2\n      0xff\n      mul\n      not\n      and\n      swap1\n      dup4\n      iszero\n      iszero\n      mul\n      or\n      swap1\n      sstore\n      pop\n        /* \"contracts/voting.sol\":631:641  msg.sender */\n      caller\n        /* \"contracts/voting.sol\":619:642  StartVoting(msg.sender) */\n      0xffffffffffffffffffffffffffffffffffffffff\n      and\n      0x84d66542381393079134898f2436f7ba19b5fab5b4ae13da6b78e7454395661d\n      mload(0x40)\n      mload(0x40)\n      dup1\n      swap2\n      sub\n      swap1\n      log2\n        /* \"contracts/voting.sol\":660:664  true */\n      0x01\n        /* \"contracts/voting.sol\":653:664  return true */\n      swap1\n      pop\n        /* \"contracts/voting.sol\":533:672  function startVoting() external returns (bool){... */\n      swap1\n      jump\t// out\n        /* \"contracts/voting.sol\":1107:1305  function removeVote() external returns(bool){... */\n    tag_16:\n        /* \"contracts/voting.sol\":1146:1150  bool */\n      0x00\n        /* \"contracts/voting.sol\":1170:1176  voting */\n      0x01\n      0x00\n      swap1\n      sload\n      swap1\n      0x0100\n      exp\n      swap1\n      div\n      0xff\n      and\n        /* \"contracts/voting.sol\":1162:1202  require(voting, \" voting is not active\") */\n      tag_41\n      jumpi\n      mload(0x40)\n      0x08c379a000000000000000000000000000000000000000000000000000000000\n      dup2\n      mstore\n      0x04\n      add\n      tag_42\n      swap1\n      tag_43\n      jump\t// in\n    tag_42:\n      mload(0x40)\n      dup1\n      swap2\n      sub\n      swap1\n      revert\n    tag_41:\n        /* \"contracts/voting.sol\":1220:1225  votes */\n      0x00\n        /* \"contracts/voting.sol\":1220:1237  votes[msg.sender] */\n      0x00\n        /* \"contracts/voting.sol\":1226:1236  msg.sender */\n      caller\n        /* \"contracts/voting.sol\":1220:1237  votes[msg.sender] */\n      0xffffffffffffffffffffffffffffffffffffffff\n      and\n      0xffffffffffffffffffffffffffffffffffffffff\n      and\n      dup2\n      mstore\n      0x20\n      add\n      swap1\n      dup2\n      mstore\n      0x20\n      add\n      0x00\n      keccak256\n      0x00\n        /* \"contracts/voting.sol\":1213:1237  delete votes[msg.sender] */\n      0x00\n      dup3\n      add\n      exp(0x0100, 0x00)\n      dup2\n      sload\n      swap1\n      0xffffffffffffffffffffffffffffffffffffffff\n      mul\n      not\n      and\n      swap1\n      sstore\n      0x01\n      dup3\n      add\n      0x00\n      swap1\n      sstore\n      pop\n      pop\n        /* \"contracts/voting.sol\":1264:1274  msg.sender */\n      caller\n        /* \"contracts/voting.sol\":1253:1275  RemoveVote(msg.sender) */\n      0xffffffffffffffffffffffffffffffffffffffff\n      and\n      0xd835495b0cc14603f691a3161f6442cbe3602e0745f2c60b948d0d3268e6c6c7\n      mload(0x40)\n      mload(0x40)\n      dup1\n      swap2\n      sub\n      swap1\n      log2\n        /* \"contracts/voting.sol\":1293:1297  true */\n      0x01\n        /* \"contracts/voting.sol\":1286:1297  return true */\n      swap1\n      pop\n        /* \"contracts/voting.sol\":1107:1305  function removeVote() external returns(bool){... */\n      swap1\n      jump\t// out\n        /* \"contracts/voting.sol\":821:1101  function addVote(address receiver) external returns(bool){... */\n    tag_21:\n        /* \"contracts/voting.sol\":873:877  bool */\n      0x00\n        /* \"contracts/voting.sol\":907:911  true */\n      0x01\n        /* \"contracts/voting.sol\":897:911  voting == true */\n      iszero\n      iszero\n        /* \"contracts/voting.sol\":897:903  voting */\n      0x01\n      0x00\n      swap1\n      sload\n      swap1\n      0x0100\n      exp\n      swap1\n      div\n      0xff\n      and\n        /* \"contracts/voting.sol\":897:911  voting == true */\n      iszero\n      iszero\n      eq\n        /* \"contracts/voting.sol\":889:936  require(voting == true, \"Voting is not active\") */\n      tag_45\n      jumpi\n      mload(0x40)\n      0x08c379a000000000000000000000000000000000000000000000000000000000\n      dup2\n      mstore\n      0x04\n      add\n      tag_46\n      swap1\n      tag_47\n      jump\t// in\n    tag_46:\n      mload(0x40)\n      dup1\n      swap2\n      sub\n      swap1\n      revert\n    tag_45:\n        /* \"contracts/voting.sol\":967:999  Vote (receiver, block.timestamp) */\n      mload(0x40)\n      dup1\n      0x40\n      add\n      0x40\n      mstore\n      dup1\n        /* \"contracts/voting.sol\":973:981  receiver */\n      dup4\n        /* \"contracts/voting.sol\":967:999  Vote (receiver, block.timestamp) */\n      0xffffffffffffffffffffffffffffffffffffffff\n      and\n      dup2\n      mstore\n      0x20\n      add\n        /* \"contracts/voting.sol\":983:998  block.timestamp */\n      timestamp\n        /* \"contracts/voting.sol\":967:999  Vote (receiver, block.timestamp) */\n      dup2\n      mstore\n      pop\n        /* \"contracts/voting.sol\":947:952  votes */\n      0x00\n        /* \"contracts/voting.sol\":947:964  votes[msg.sender] */\n      0x00\n        /* \"contracts/voting.sol\":953:963  msg.sender */\n      caller\n        /* \"contracts/voting.sol\":947:964  votes[msg.sender] */\n      0xffffffffffffffffffffffffffffffffffffffff\n      and\n      0xffffffffffffffffffffffffffffffffffffffff\n      and\n      dup2\n      mstore\n      0x20\n      add\n      swap1\n      dup2\n      mstore\n      0x20\n      add\n      0x00\n      keccak256\n        /* \"contracts/voting.sol\":947:999  votes[msg.sender] = Vote (receiver, block.timestamp) */\n      0x00\n      dup3\n      add\n      mload\n      dup2\n      0x00\n      add\n      exp(0x0100, 0x00)\n      dup2\n      sload\n      dup2\n      0xffffffffffffffffffffffffffffffffffffffff\n      mul\n      not\n      and\n      swap1\n      dup4\n      0xffffffffffffffffffffffffffffffffffffffff\n      and\n      mul\n      or\n      swap1\n      sstore\n      pop\n      0x20\n      dup3\n      add\n      mload\n      dup2\n      0x01\n      add\n      sstore\n      swap1\n      pop\n      pop\n        /* \"contracts/voting.sol\":1035:1043  receiver */\n      dup2\n        /* \"contracts/voting.sol\":1015:1061  AddVote(msg.sender, receiver, block.timestamp) */\n      0xffffffffffffffffffffffffffffffffffffffff\n      and\n        /* \"contracts/voting.sol\":1023:1033  msg.sender */\n      caller\n        /* \"contracts/voting.sol\":1015:1061  AddVote(msg.sender, receiver, block.timestamp) */\n      0xffffffffffffffffffffffffffffffffffffffff\n      and\n      0x80eacb8485891d1331e1057618388e157b8496244c3b2eab9302445007b46811\n        /* \"contracts/voting.sol\":1045:1060  block.timestamp */\n      timestamp\n        /* \"contracts/voting.sol\":1015:1061  AddVote(msg.sender, receiver, block.timestamp) */\n      mload(0x40)\n      tag_48\n      swap2\n      swap1\n      tag_49\n      jump\t// in\n    tag_48:\n      mload(0x40)\n      dup1\n      swap2\n      sub\n      swap1\n      log3\n        /* \"contracts/voting.sol\":1079:1083  true */\n      0x01\n        /* \"contracts/voting.sol\":1072:1083  return true */\n      swap1\n      pop\n        /* \"contracts/voting.sol\":821:1101  function addVote(address receiver) external returns(bool){... */\n      swap2\n      swap1\n      pop\n      jump\t// out\n        /* \"contracts/voting.sol\":1311:1451  function getVote(address voterAddress) external view returns(address candidateAddress){... */\n    tag_25:\n        /* \"contracts/voting.sol\":1372:1396  address candidateAddress */\n      0x00\n        /* \"contracts/voting.sol\":1415:1420  votes */\n      0x00\n        /* \"contracts/voting.sol\":1415:1434  votes[voterAddress] */\n      0x00\n        /* \"contracts/voting.sol\":1421:1433  voterAddress */\n      dup4\n        /* \"contracts/voting.sol\":1415:1434  votes[voterAddress] */\n      0xffffffffffffffffffffffffffffffffffffffff\n      and\n      0xffffffffffffffffffffffffffffffffffffffff\n      and\n      dup2\n      mstore\n      0x20\n      add\n      swap1\n      dup2\n      mstore\n      0x20\n      add\n      0x00\n      keccak256\n        /* \"contracts/voting.sol\":1415:1443  votes[voterAddress].receiver */\n      0x00\n      add\n      0x00\n      swap1\n      sload\n      swap1\n      0x0100\n      exp\n      swap1\n      div\n      0xffffffffffffffffffffffffffffffffffffffff\n      and\n        /* \"contracts/voting.sol\":1408:1443  return votes[voterAddress].receiver */\n      swap1\n      pop\n        /* \"contracts/voting.sol\":1311:1451  function getVote(address voterAddress) external view returns(address candidateAddress){... */\n      swap2\n      swap1\n      pop\n      jump\t// out\n        /* \"contracts/voting.sol\":175:212  mapping(address => Vote) public votes */\n    tag_30:\n      mstore(0x20, 0x00)\n      dup1\n      0x00\n      mstore\n      keccak256(0x00, 0x40)\n      0x00\n      swap2\n      pop\n      swap1\n      pop\n      dup1\n      0x00\n      add\n      0x00\n      swap1\n      sload\n      swap1\n      0x0100\n      exp\n      swap1\n      div\n      0xffffffffffffffffffffffffffffffffffffffff\n      and\n      swap1\n      dup1\n      0x01\n      add\n      sload\n      swap1\n      pop\n      dup3\n      jump\t// out\n        /* \"contracts/voting.sol\":678:815  function stopVoting() external returns(bool){... */\n    tag_34:\n        /* \"contracts/voting.sol\":717:721  bool */\n      0x00\n        /* \"contracts/voting.sol\":742:747  false */\n      0x00\n        /* \"contracts/voting.sol\":733:739  voting */\n      0x01\n      0x00\n        /* \"contracts/voting.sol\":733:747  voting = false */\n      0x0100\n      exp\n      dup2\n      sload\n      dup2\n      0xff\n      mul\n      not\n      and\n      swap1\n      dup4\n      iszero\n      iszero\n      mul\n      or\n      swap1\n      sstore\n      pop\n        /* \"contracts/voting.sol\":774:784  msg.sender */\n      caller\n        /* \"contracts/voting.sol\":763:785  StopVoting(msg.sender) */\n      0xffffffffffffffffffffffffffffffffffffffff\n      and\n      0xd027f2ec970e91ce28ac9b4d8c78f89288e3b6029357e79cbd81578f250aa4a1\n      mload(0x40)\n      mload(0x40)\n      dup1\n      swap2\n      sub\n      swap1\n      log2\n        /* \"contracts/voting.sol\":803:807  true */\n      0x01\n        /* \"contracts/voting.sol\":796:807  return true */\n      swap1\n      pop\n        /* \"contracts/voting.sol\":678:815  function stopVoting() external returns(bool){... */\n      swap1\n      jump\t// out\n        /* \"contracts/voting.sol\":219:237  bool public voting */\n    tag_37:\n      0x01\n      0x00\n      swap1\n      sload\n      swap1\n      0x0100\n      exp\n      swap1\n      div\n      0xff\n      and\n      dup2\n      jump\t// out\n        /* \"#utility.yul\":7:97   */\n    tag_52:\n        /* \"#utility.yul\":41:48   */\n      0x00\n        /* \"#utility.yul\":84:89   */\n      dup2\n        /* \"#utility.yul\":77:90   */\n      iszero\n        /* \"#utility.yul\":70:91   */\n      iszero\n        /* \"#utility.yul\":59:91   */\n      swap1\n      pop\n        /* \"#utility.yul\":7:97   */\n      swap2\n      swap1\n      pop\n      jump\t// out\n        /* \"#utility.yul\":103:212   */\n    tag_53:\n        /* \"#utility.yul\":184:205   */\n      tag_72\n        /* \"#utility.yul\":199:204   */\n      dup2\n        /* \"#utility.yul\":184:205   */\n      tag_52\n      jump\t// in\n    tag_72:\n        /* \"#utility.yul\":179:182   */\n      dup3\n        /* \"#utility.yul\":172:206   */\n      mstore\n        /* \"#utility.yul\":103:212   */\n      pop\n      pop\n      jump\t// out\n        /* \"#utility.yul\":218:428   */\n    tag_14:\n        /* \"#utility.yul\":305:309   */\n      0x00\n        /* \"#utility.yul\":343:345   */\n      0x20\n        /* \"#utility.yul\":332:341   */\n      dup3\n        /* \"#utility.yul\":328:346   */\n      add\n        /* \"#utility.yul\":320:346   */\n      swap1\n      pop\n        /* \"#utility.yul\":356:421   */\n      tag_74\n        /* \"#utility.yul\":418:419   */\n      0x00\n        /* \"#utility.yul\":407:416   */\n      dup4\n        /* \"#utility.yul\":403:420   */\n      add\n        /* \"#utility.yul\":394:400   */\n      dup5\n        /* \"#utility.yul\":356:421   */\n      tag_53\n      jump\t// in\n    tag_74:\n        /* \"#utility.yul\":218:428   */\n      swap3\n      swap2\n      pop\n      pop\n      jump\t// out\n        /* \"#utility.yul\":515:632   */\n    tag_55:\n        /* \"#utility.yul\":624:625   */\n      0x00\n        /* \"#utility.yul\":621:622   */\n      0x00\n        /* \"#utility.yul\":614:626   */\n      revert\n        /* \"#utility.yul\":761:887   */\n    tag_57:\n        /* \"#utility.yul\":798:805   */\n      0x00\n        /* \"#utility.yul\":838:880   */\n      0xffffffffffffffffffffffffffffffffffffffff\n        /* \"#utility.yul\":831:836   */\n      dup3\n        /* \"#utility.yul\":827:881   */\n      and\n        /* \"#utility.yul\":816:881   */\n      swap1\n      pop\n        /* \"#utility.yul\":761:887   */\n      swap2\n      swap1\n      pop\n      jump\t// out\n        /* \"#utility.yul\":893:989   */\n    tag_58:\n        /* \"#utility.yul\":930:937   */\n      0x00\n        /* \"#utility.yul\":959:983   */\n      tag_80\n        /* \"#utility.yul\":977:982   */\n      dup3\n        /* \"#utility.yul\":959:983   */\n      tag_57\n      jump\t// in\n    tag_80:\n        /* \"#utility.yul\":948:983   */\n      swap1\n      pop\n        /* \"#utility.yul\":893:989   */\n      swap2\n      swap1\n      pop\n      jump\t// out\n        /* \"#utility.yul\":995:1117   */\n    tag_59:\n        /* \"#utility.yul\":1068:1092   */\n      tag_82\n        /* \"#utility.yul\":1086:1091   */\n      dup2\n        /* \"#utility.yul\":1068:1092   */\n      tag_58\n      jump\t// in\n    tag_82:\n        /* \"#utility.yul\":1061:1066   */\n      dup2\n        /* \"#utility.yul\":1058:1093   */\n      eq\n        /* \"#utility.yul\":1048:1111   */\n      tag_83\n      jumpi\n        /* \"#utility.yul\":1107:1108   */\n      0x00\n        /* \"#utility.yul\":1104:1105   */\n      0x00\n        /* \"#utility.yul\":1097:1109   */\n      revert\n        /* \"#utility.yul\":1048:1111   */\n    tag_83:\n        /* \"#utility.yul\":995:1117   */\n      pop\n      jump\t// out\n        /* \"#utility.yul\":1123:1262   */\n    tag_60:\n        /* \"#utility.yul\":1169:1174   */\n      0x00\n        /* \"#utility.yul\":1207:1213   */\n      dup2\n        /* \"#utility.yul\":1194:1214   */\n      calldataload\n        /* \"#utility.yul\":1185:1214   */\n      swap1\n      pop\n        /* \"#utility.yul\":1223:1256   */\n      tag_85\n        /* \"#utility.yul\":1250:1255   */\n      dup2\n        /* \"#utility.yul\":1223:1256   */\n      tag_59\n      jump\t// in\n    tag_85:\n        /* \"#utility.yul\":1123:1262   */\n      swap3\n      swap2\n      pop\n      pop\n      jump\t// out\n        /* \"#utility.yul\":1268:1597   */\n    tag_20:\n        /* \"#utility.yul\":1327:1333   */\n      0x00\n        /* \"#utility.yul\":1376:1378   */\n      0x20\n        /* \"#utility.yul\":1364:1373   */\n      dup3\n        /* \"#utility.yul\":1355:1362   */\n      dup5\n        /* \"#utility.yul\":1351:1374   */\n      sub\n        /* \"#utility.yul\":1347:1379   */\n      slt\n        /* \"#utility.yul\":1344:1463   */\n      iszero\n      tag_87\n      jumpi\n        /* \"#utility.yul\":1382:1461   */\n      tag_88\n      tag_55\n      jump\t// in\n    tag_88:\n        /* \"#utility.yul\":1344:1463   */\n    tag_87:\n        /* \"#utility.yul\":1502:1503   */\n      0x00\n        /* \"#utility.yul\":1527:1580   */\n      tag_89\n        /* \"#utility.yul\":1572:1579   */\n      dup5\n        /* \"#utility.yul\":1563:1569   */\n      dup3\n        /* \"#utility.yul\":1552:1561   */\n      dup6\n        /* \"#utility.yul\":1548:1570   */\n      add\n        /* \"#utility.yul\":1527:1580   */\n      tag_60\n      jump\t// in\n    tag_89:\n        /* \"#utility.yul\":1517:1580   */\n      swap2\n      pop\n        /* \"#utility.yul\":1473:1590   */\n      pop\n        /* \"#utility.yul\":1268:1597   */\n      swap3\n      swap2\n      pop\n      pop\n      jump\t// out\n        /* \"#utility.yul\":1603:1721   */\n    tag_61:\n        /* \"#utility.yul\":1690:1714   */\n      tag_91\n        /* \"#utility.yul\":1708:1713   */\n      dup2\n        /* \"#utility.yul\":1690:1714   */\n      tag_58\n      jump\t// in\n    tag_91:\n        /* \"#utility.yul\":1685:1688   */\n      dup3\n        /* \"#utility.yul\":1678:1715   */\n      mstore\n        /* \"#utility.yul\":1603:1721   */\n      pop\n      pop\n      jump\t// out\n        /* \"#utility.yul\":1727:1949   */\n    tag_27:\n        /* \"#utility.yul\":1820:1824   */\n      0x00\n        /* \"#utility.yul\":1858:1860   */\n      0x20\n        /* \"#utility.yul\":1847:1856   */\n      dup3\n        /* \"#utility.yul\":1843:1861   */\n      add\n        /* \"#utility.yul\":1835:1861   */\n      swap1\n      pop\n        /* \"#utility.yul\":1871:1942   */\n      tag_93\n        /* \"#utility.yul\":1939:1940   */\n      0x00\n        /* \"#utility.yul\":1928:1937   */\n      dup4\n        /* \"#utility.yul\":1924:1941   */\n      add\n        /* \"#utility.yul\":1915:1921   */\n      dup5\n        /* \"#utility.yul\":1871:1942   */\n      tag_61\n      jump\t// in\n    tag_93:\n        /* \"#utility.yul\":1727:1949   */\n      swap3\n      swap2\n      pop\n      pop\n      jump\t// out\n        /* \"#utility.yul\":1955:2032   */\n    tag_62:\n        /* \"#utility.yul\":1992:1999   */\n      0x00\n        /* \"#utility.yul\":2021:2026   */\n      dup2\n        /* \"#utility.yul\":2010:2026   */\n      swap1\n      pop\n        /* \"#utility.yul\":1955:2032   */\n      swap2\n      swap1\n      pop\n      jump\t// out\n        /* \"#utility.yul\":2038:2156   */\n    tag_63:\n        /* \"#utility.yul\":2125:2149   */\n      tag_96\n        /* \"#utility.yul\":2143:2148   */\n      dup2\n        /* \"#utility.yul\":2125:2149   */\n      tag_62\n      jump\t// in\n    tag_96:\n        /* \"#utility.yul\":2120:2123   */\n      dup3\n        /* \"#utility.yul\":2113:2150   */\n      mstore\n        /* \"#utility.yul\":2038:2156   */\n      pop\n      pop\n      jump\t// out\n        /* \"#utility.yul\":2162:2494   */\n    tag_32:\n        /* \"#utility.yul\":2283:2287   */\n      0x00\n        /* \"#utility.yul\":2321:2323   */\n      0x40\n        /* \"#utility.yul\":2310:2319   */\n      dup3\n        /* \"#utility.yul\":2306:2324   */\n      add\n        /* \"#utility.yul\":2298:2324   */\n      swap1\n      pop\n        /* \"#utility.yul\":2334:2405   */\n      tag_98\n        /* \"#utility.yul\":2402:2403   */\n      0x00\n        /* \"#utility.yul\":2391:2400   */\n      dup4\n        /* \"#utility.yul\":2387:2404   */\n      add\n        /* \"#utility.yul\":2378:2384   */\n      dup6\n        /* \"#utility.yul\":2334:2405   */\n      tag_61\n      jump\t// in\n    tag_98:\n        /* \"#utility.yul\":2415:2487   */\n      tag_99\n        /* \"#utility.yul\":2483:2485   */\n      0x20\n        /* \"#utility.yul\":2472:2481   */\n      dup4\n        /* \"#utility.yul\":2468:2486   */\n      add\n        /* \"#utility.yul\":2459:2465   */\n      dup5\n        /* \"#utility.yul\":2415:2487   */\n      tag_63\n      jump\t// in\n    tag_99:\n        /* \"#utility.yul\":2162:2494   */\n      swap4\n      swap3\n      pop\n      pop\n      pop\n      jump\t// out\n        /* \"#utility.yul\":2500:2669   */\n    tag_64:\n        /* \"#utility.yul\":2584:2595   */\n      0x00\n        /* \"#utility.yul\":2618:2624   */\n      dup3\n        /* \"#utility.yul\":2613:2616   */\n      dup3\n        /* \"#utility.yul\":2606:2625   */\n      mstore\n        /* \"#utility.yul\":2658:2662   */\n      0x20\n        /* \"#utility.yul\":2653:2656   */\n      dup3\n        /* \"#utility.yul\":2649:2663   */\n      add\n        /* \"#utility.yul\":2634:2663   */\n      swap1\n      pop\n        /* \"#utility.yul\":2500:2669   */\n      swap3\n      swap2\n      pop\n      pop\n      jump\t// out\n        /* \"#utility.yul\":2675:2846   */\n    tag_65:\n        /* \"#utility.yul\":2815:2838   */\n      0x20766f74696e67206973206e6f74206163746976650000000000000000000000\n        /* \"#utility.yul\":2811:2812   */\n      0x00\n        /* \"#utility.yul\":2803:2809   */\n      dup3\n        /* \"#utility.yul\":2799:2813   */\n      add\n        /* \"#utility.yul\":2792:2839   */\n      mstore\n        /* \"#utility.yul\":2675:2846   */\n      pop\n      jump\t// out\n        /* \"#utility.yul\":2852:3218   */\n    tag_66:\n        /* \"#utility.yul\":2994:2997   */\n      0x00\n        /* \"#utility.yul\":3015:3082   */\n      tag_103\n        /* \"#utility.yul\":3079:3081   */\n      0x15\n        /* \"#utility.yul\":3074:3077   */\n      dup4\n        /* \"#utility.yul\":3015:3082   */\n      tag_64\n      jump\t// in\n    tag_103:\n        /* \"#utility.yul\":3008:3082   */\n      swap2\n      pop\n        /* \"#utility.yul\":3091:3184   */\n      tag_104\n        /* \"#utility.yul\":3180:3183   */\n      dup3\n        /* \"#utility.yul\":3091:3184   */\n      tag_65\n      jump\t// in\n    tag_104:\n        /* \"#utility.yul\":3209:3211   */\n      0x20\n        /* \"#utility.yul\":3204:3207   */\n      dup3\n        /* \"#utility.yul\":3200:3212   */\n      add\n        /* \"#utility.yul\":3193:3212   */\n      swap1\n      pop\n        /* \"#utility.yul\":2852:3218   */\n      swap2\n      swap1\n      pop\n      jump\t// out\n        /* \"#utility.yul\":3224:3643   */\n    tag_43:\n        /* \"#utility.yul\":3390:3394   */\n      0x00\n        /* \"#utility.yul\":3428:3430   */\n      0x20\n        /* \"#utility.yul\":3417:3426   */\n      dup3\n        /* \"#utility.yul\":3413:3431   */\n      add\n        /* \"#utility.yul\":3405:3431   */\n      swap1\n      pop\n        /* \"#utility.yul\":3477:3486   */\n      dup2\n        /* \"#utility.yul\":3471:3475   */\n      dup2\n        /* \"#utility.yul\":3467:3487   */\n      sub\n        /* \"#utility.yul\":3463:3464   */\n      0x00\n        /* \"#utility.yul\":3452:3461   */\n      dup4\n        /* \"#utility.yul\":3448:3465   */\n      add\n        /* \"#utility.yul\":3441:3488   */\n      mstore\n        /* \"#utility.yul\":3505:3636   */\n      tag_106\n        /* \"#utility.yul\":3631:3635   */\n      dup2\n        /* \"#utility.yul\":3505:3636   */\n      tag_66\n      jump\t// in\n    tag_106:\n        /* \"#utility.yul\":3497:3636   */\n      swap1\n      pop\n        /* \"#utility.yul\":3224:3643   */\n      swap2\n      swap1\n      pop\n      jump\t// out\n        /* \"#utility.yul\":3649:3819   */\n    tag_67:\n        /* \"#utility.yul\":3789:3811   */\n      0x566f74696e67206973206e6f7420616374697665000000000000000000000000\n        /* \"#utility.yul\":3785:3786   */\n      0x00\n        /* \"#utility.yul\":3777:3783   */\n      dup3\n        /* \"#utility.yul\":3773:3787   */\n      add\n        /* \"#utility.yul\":3766:3812   */\n      mstore\n        /* \"#utility.yul\":3649:3819   */\n      pop\n      jump\t// out\n        /* \"#utility.yul\":3825:4191   */\n    tag_68:\n        /* \"#utility.yul\":3967:3970   */\n      0x00\n        /* \"#utility.yul\":3988:4055   */\n      tag_109\n        /* \"#utility.yul\":4052:4054   */\n      0x14\n        /* \"#utility.yul\":4047:4050   */\n      dup4\n        /* \"#utility.yul\":3988:4055   */\n      tag_64\n      jump\t// in\n    tag_109:\n        /* \"#utility.yul\":3981:4055   */\n      swap2\n      pop\n        /* \"#utility.yul\":4064:4157   */\n      tag_110\n        /* \"#utility.yul\":4153:4156   */\n      dup3\n        /* \"#utility.yul\":4064:4157   */\n      tag_67\n      jump\t// in\n    tag_110:\n        /* \"#utility.yul\":4182:4184   */\n      0x20\n        /* \"#utility.yul\":4177:4180   */\n      dup3\n        /* \"#utility.yul\":4173:4185   */\n      add\n        /* \"#utility.yul\":4166:4185   */\n      swap1\n      pop\n        /* \"#utility.yul\":3825:4191   */\n      swap2\n      swap1\n      pop\n      jump\t// out\n        /* \"#utility.yul\":4197:4616   */\n    tag_47:\n        /* \"#utility.yul\":4363:4367   */\n      0x00\n        /* \"#utility.yul\":4401:4403   */\n      0x20\n        /* \"#utility.yul\":4390:4399   */\n      dup3\n        /* \"#utility.yul\":4386:4404   */\n      add\n        /* \"#utility.yul\":4378:4404   */\n      swap1\n      pop\n        /* \"#utility.yul\":4450:4459   */\n      dup2\n        /* \"#utility.yul\":4444:4448   */\n      dup2\n        /* \"#utility.yul\":4440:4460   */\n      sub\n        /* \"#utility.yul\":4436:4437   */\n      0x00\n        /* \"#utility.yul\":4425:4434   */\n      dup4\n        /* \"#utility.yul\":4421:4438   */\n      add\n        /* \"#utility.yul\":4414:4461   */\n      mstore\n        /* \"#utility.yul\":4478:4609   */\n      tag_112\n        /* \"#utility.yul\":4604:4608   */\n      dup2\n        /* \"#utility.yul\":4478:4609   */\n      tag_68\n      jump\t// in\n    tag_112:\n        /* \"#utility.yul\":4470:4609   */\n      swap1\n      pop\n        /* \"#utility.yul\":4197:4616   */\n      swap2\n      swap1\n      pop\n      jump\t// out\n        /* \"#utility.yul\":4622:4844   */\n    tag_49:\n        /* \"#utility.yul\":4715:4719   */\n      0x00\n        /* \"#utility.yul\":4753:4755   */\n      0x20\n        /* \"#utility.yul\":4742:4751   */\n      dup3\n        /* \"#utility.yul\":4738:4756   */\n      add\n        /* \"#utility.yul\":4730:4756   */\n      swap1\n      pop\n        /* \"#utility.yul\":4766:4837   */\n      tag_114\n        /* \"#utility.yul\":4834:4835   */\n      0x00\n        /* \"#utility.yul\":4823:4832   */\n      dup4\n        /* \"#utility.yul\":4819:4836   */\n      add\n        /* \"#utility.yul\":4810:4816   */\n      dup5\n        /* \"#utility.yul\":4766:4837   */\n      tag_63\n      jump\t// in\n    tag_114:\n        /* \"#utility.yul\":4622:4844   */\n      swap3\n      swap2\n      pop\n      pop\n      jump\t// out\n\n    auxdata: 0xa2646970667358221220028c0c27247acf5b06b3842fbf83f09800be04d7c1afc87d5be421bd33df734464736f6c634300081f0033\n}\n",
				"bytecode": {
					"linkReferences": {},
					"object": "6080604052348015600e575f5ffd5b505f60015f6101000a81548160ff0219169083151502179055506107d8806100355f395ff3fe608060405234801561000f575f5ffd5b506004361061007b575f3560e01c80638d337b81116100595780638d337b81146100eb578063d8bff5a51461011b578063fab2f86b1461014c578063fce1ccca1461016a5761007b565b80631ec6b60a1461007f57806349aa4ee21461009d5780636cea0e46146100bb575b5f5ffd5b610087610188565b60405161009491906105a0565b60405180910390f35b6100a56101ec565b6040516100b291906105a0565b60405180910390f35b6100d560048036038101906100d09190610617565b6102f0565b6040516100e291906105a0565b60405180910390f35b61010560048036038101906101009190610617565b61046c565b6040516101129190610651565b60405180910390f35b61013560048036038101906101309190610617565b6104d2565b604051610143929190610682565b60405180910390f35b610154610510565b60405161016191906105a0565b60405180910390f35b610172610574565b60405161017f91906105a0565b60405180910390f35b5f6001805f6101000a81548160ff0219169083151502179055503373ffffffffffffffffffffffffffffffffffffffff167f84d66542381393079134898f2436f7ba19b5fab5b4ae13da6b78e7454395661d60405160405180910390a26001905090565b5f60015f9054906101000a900460ff1661023b576040517f08c379a000000000000000000000000000000000000000000000000000000000815260040161023290610703565b60405180910390fd5b5f5f3373ffffffffffffffffffffffffffffffffffffffff1673ffffffffffffffffffffffffffffffffffffffff1681526020019081526020015f205f5f82015f6101000a81549073ffffffffffffffffffffffffffffffffffffffff0219169055600182015f905550503373ffffffffffffffffffffffffffffffffffffffff167fd835495b0cc14603f691a3161f6442cbe3602e0745f2c60b948d0d3268e6c6c760405160405180910390a26001905090565b5f6001151560015f9054906101000a900460ff16151514610346576040517f08c379a000000000000000000000000000000000000000000000000000000000815260040161033d9061076b565b60405180910390fd5b60405180604001604052808373ffffffffffffffffffffffffffffffffffffffff168152602001428152505f5f3373ffffffffffffffffffffffffffffffffffffffff1673ffffffffffffffffffffffffffffffffffffffff1681526020019081526020015f205f820151815f015f6101000a81548173ffffffffffffffffffffffffffffffffffffffff021916908373ffffffffffffffffffffffffffffffffffffffff160217905550602082015181600101559050508173ffffffffffffffffffffffffffffffffffffffff163373ffffffffffffffffffffffffffffffffffffffff167f80eacb8485891d1331e1057618388e157b8496244c3b2eab9302445007b468114260405161045b9190610789565b60405180910390a360019050919050565b5f5f5f8373ffffffffffffffffffffffffffffffffffffffff1673ffffffffffffffffffffffffffffffffffffffff1681526020019081526020015f205f015f9054906101000a900473ffffffffffffffffffffffffffffffffffffffff169050919050565b5f602052805f5260405f205f91509050805f015f9054906101000a900473ffffffffffffffffffffffffffffffffffffffff16908060010154905082565b5f5f60015f6101000a81548160ff0219169083151502179055503373ffffffffffffffffffffffffffffffffffffffff167fd027f2ec970e91ce28ac9b4d8c78f89288e3b6029357e79cbd81578f250aa4a160405160405180910390a26001905090565b60015f9054906101000a900460ff1681565b5f8115159050919050565b61059a81610586565b82525050565b5f6020820190506105b35f830184610591565b92915050565b5f5ffd5b5f73ffffffffffffffffffffffffffffffffffffffff82169050919050565b5f6105e6826105bd565b9050919050565b6105f6816105dc565b8114610600575f5ffd5b50565b5f81359050610611816105ed565b92915050565b5f6020828403121561062c5761062b6105b9565b5b5f61063984828501610603565b91505092915050565b61064b816105dc565b82525050565b5f6020820190506106645f830184610642565b92915050565b5f819050919050565b61067c8161066a565b82525050565b5f6040820190506106955f830185610642565b6106a26020830184610673565b9392505050565b5f82825260208201905092915050565b7f20766f74696e67206973206e6f742061637469766500000000000000000000005f82015250565b5f6106ed6015836106a9565b91506106f8826106b9565b602082019050919050565b5f6020820190508181035f83015261071a816106e1565b9050919050565b7f566f74696e67206973206e6f74206163746976650000000000000000000000005f82015250565b5f6107556014836106a9565b915061076082610721565b602082019050919050565b5f6020820190508181035f83015261078281610749565b9050919050565b5f60208201905061079c5f830184610673565b9291505056fea2646970667358221220028c0c27247acf5b06b3842fbf83f09800be04d7c1afc87d5be421bd33df734464736f6c634300081f0033",
					"opcodes": "PUSH1 0x80 PUSH1 0x40 MSTORE CALLVALUE DUP1 ISZERO PUSH1 0xE JUMPI PUSH0 PUSH0 REVERT JUMPDEST POP PUSH0 PUSH1 0x1 PUSH0 PUSH2 0x100 EXP DUP2 SLOAD DUP2 PUSH1 0xFF MUL NOT AND SWAP1 DUP4 ISZERO ISZERO MUL OR SWAP1 SSTORE POP PUSH2 0x7D8 DUP1 PUSH2 0x35 PUSH0 CODECOPY PUSH0 RETURN INVALID PUSH1 0x80 PUSH1 0x40 MSTORE CALLVALUE DUP1 ISZERO PUSH2 0xF JUMPI PUSH0 PUSH0 REVERT JUMPDEST POP PUSH1 0x4 CALLDATASIZE LT PUSH2 0x7B JUMPI PUSH0 CALLDATALOAD PUSH1 0xE0 SHR DUP1 PUSH4 0x8D337B81 GT PUSH2 0x59 JUMPI DUP1 PUSH4 0x8D337B81 EQ PUSH2 0xEB JUMPI DUP1 PUSH4 0xD8BFF5A5 EQ PUSH2 0x11B JUMPI DUP1 PUSH4 0xFAB2F86B EQ PUSH2 0x14C JUMPI DUP1 PUSH4 0xFCE1CCCA EQ PUSH2 0x16A JUMPI PUSH2 0x7B JUMP JUMPDEST DUP1 PUSH4 0x1EC6B60A EQ PUSH2 0x7F JUMPI DUP1 PUSH4 0x49AA4EE2 EQ PUSH2 0x9D JUMPI DUP1 PUSH4 0x6CEA0E46 EQ PUSH2 0xBB JUMPI JUMPDEST PUSH0 PUSH0 REVERT JUMPDEST PUSH2 0x87 PUSH2 0x188 JUMP JUMPDEST PUSH1 0x40 MLOAD PUSH2 0x94 SWAP2 SWAP1 PUSH2 0x5A0 JUMP JUMPDEST PUSH1 0x40 MLOAD DUP1 SWAP2 SUB SWAP1 RETURN JUMPDEST PUSH2 0xA5 PUSH2 0x1EC JUMP JUMPDEST PUSH1 0x40 MLOAD PUSH2 0xB2 SWAP2 SWAP1 PUSH2 0x5A0 JUMP JUMPDEST PUSH1 0x40 MLOAD DUP1 SWAP2 SUB SWAP1 RETURN JUMPDEST PUSH2 0xD5 PUSH1 0x4 DUP1 CALLDATASIZE SUB DUP2 ADD SWAP1 PUSH2 0xD0 SWAP2 SWAP1 PUSH2 0x617 JUMP JUMPDEST PUSH2 0x2F0 JUMP JUMPDEST PUSH1 0x40 MLOAD PUSH2 0xE2 SWAP2 SWAP1 PUSH2 0x5A0 JUMP JUMPDEST PUSH1 0x40 MLOAD DUP1 SWAP2 SUB SWAP1 RETURN JUMPDEST PUSH2 0x105 PUSH1 0x4 DUP1 CALLDATASIZE SUB DUP2 ADD SWAP1 PUSH2 0x100 SWAP2 SWAP1 PUSH2 0x617 JUMP JUMPDEST PUSH2 0x46C JUMP JUMPDEST PUSH1 0x40 MLOAD PUSH2 0x112 SWAP2 SWAP1 PUSH2 0x651 JUMP JUMPDEST PUSH1 0x40 MLOAD DUP1 SWAP2 SUB SWAP1 RETURN JUMPDEST PUSH2 0x135 PUSH1 0x4 DUP1 CALLDATASIZE SUB DUP2 ADD SWAP1 PUSH2 0x130 SWAP2 SWAP1 PUSH2 0x617 JUMP JUMPDEST PUSH2 0x4D2 JUMP JUMPDEST PUSH1 0x40 MLOAD PUSH2 0x143 SWAP3 SWAP2 SWAP1 PUSH2 0x682 JUMP JUMPDEST PUSH1 0x40 MLOAD DUP1 SWAP2 SUB SWAP1 RETURN JUMPDEST PUSH2 0x154 PUSH2 0x510 JUMP JUMPDEST PUSH1 0x40 MLOAD PUSH2 0x161 SWAP2 SWAP1 PUSH2 0x5A0 JUMP JUMPDEST PUSH1 0x40 MLOAD DUP1 SWAP2 SUB SWAP1 RETURN JUMPDEST PUSH2 0x172 PUSH2 0x574 JUMP JUMPDEST PUSH1 0x40 MLOAD PUSH2 0x17F SWAP2 SWAP1 PUSH2 0x5A0 JUMP JUMPDEST PUSH1 0x40 MLOAD DUP1 SWAP2 SUB SWAP1 RETURN JUMPDEST PUSH0 PUSH1 0x1 DUP1 PUSH0 PUSH2 0x100 EXP DUP2 SLOAD DUP2 PUSH1 0xFF MUL NOT AND SWAP1 DUP4 ISZERO ISZERO MUL OR SWAP1 SSTORE POP CALLER PUSH20 0xFFFFFFFFFFFFFFFFFFFFFFFFFFFFFFFFFFFFFFFF AND PUSH32 0x84D66542381393079134898F2436F7BA19B5FAB5B4AE13DA6B78E7454395661D PUSH1 0x40 MLOAD PUSH1 0x40 MLOAD DUP1 SWAP2 SUB SWAP1 LOG2 PUSH1 0x1 SWAP1 POP SWAP1 JUMP JUMPDEST PUSH0 PUSH1 0x1 PUSH0 SWAP1 SLOAD SWAP1 PUSH2 0x100 EXP SWAP1 DIV PUSH1 0xFF AND PUSH2 0x23B JUMPI PUSH1 0x40 MLOAD PUSH32 0x8C379A000000000000000000000000000000000000000000000000000000000 DUP2 MSTORE PUSH1 0x4 ADD PUSH2 0x232 SWAP1 PUSH2 0x703 JUMP JUMPDEST PUSH1 0x40 MLOAD DUP1 SWAP2 SUB SWAP1 REVERT JUMPDEST PUSH0 PUSH0 CALLER PUSH20 0xFFFFFFFFFFFFFFFFFFFFFFFFFFFFFFFFFFFFFFFF AND PUSH20 0xFFFFFFFFFFFFFFFFFFFFFFFFFFFFFFFFFFFFFFFF AND DUP2 MSTORE PUSH1 0x20 ADD SWAP1 DUP2 MSTORE PUSH1 0x20 ADD PUSH0 KECCAK256 PUSH0 PUSH0 DUP3 ADD PUSH0 PUSH2 0x100 EXP DUP2 SLOAD SWAP1 PUSH20 0xFFFFFFFFFFFFFFFFFFFFFFFFFFFFFFFFFFFFFFFF MUL NOT AND SWAP1 SSTORE PUSH1 0x1 DUP3 ADD PUSH0 SWAP1 SSTORE POP POP CALLER PUSH20 0xFFFFFFFFFFFFFFFFFFFFFFFFFFFFFFFFFFFFFFFF AND PUSH32 0xD835495B0CC14603F691A3161F6442CBE3602E0745F2C60B948D0D3268E6C6C7 PUSH1 0x40 MLOAD PUSH1 0x40 MLOAD DUP1 SWAP2 SUB SWAP1 LOG2 PUSH1 0x1 SWAP1 POP SWAP1 JUMP JUMPDEST PUSH0 PUSH1 0x1 ISZERO ISZERO PUSH1 0x1 PUSH0 SWAP1 SLOAD SWAP1 PUSH2 0x100 EXP SWAP1 DIV PUSH1 0xFF AND ISZERO ISZERO EQ PUSH2 0x346 JUMPI PUSH1 0x40 MLOAD PUSH32 0x8C379A000000000000000000000000000000000000000000000000000000000 DUP2 MSTORE PUSH1 0x4 ADD PUSH2 0x33D SWAP1 PUSH2 0x76B JUMP JUMPDEST PUSH1 0x40 MLOAD DUP1 SWAP2 SUB SWAP1 REVERT JUMPDEST PUSH1 0x40 MLOAD DUP1 PUSH1 0x40 ADD PUSH1 0x40 MSTORE DUP1 DUP4 PUSH20 0xFFFFFFFFFFFFFFFFFFFFFFFFFFFFFFFFFFFFFFFF AND DUP2 MSTORE PUSH1 0x20 ADD TIMESTAMP DUP2 MSTORE POP PUSH0 PUSH0 CALLER PUSH20 0xFFFFFFFFFFFFFFFFFFFFFFFFFFFFFFFFFFFFFFFF AND PUSH20 0xFFFFFFFFFFFFFFFFFFFFFFFFFFFFFFFFFFFFFFFF AND DUP2 MSTORE PUSH1 0x20 ADD SWAP1 DUP2 MSTORE PUSH1 0x20 ADD PUSH0 KECCAK256 PUSH0 DUP3 ADD MLOAD DUP2 PUSH0 ADD PUSH0 PUSH2 0x100 EXP DUP2 SLOAD DUP2 PUSH20 0xFFFFFFFFFFFFFFFFFFFFFFFFFFFFFFFFFFFFFFFF MUL NOT AND SWAP1 DUP4 PUSH20 0xFFFFFFFFFFFFFFFFFFFFFFFFFFFFFFFFFFFFFFFF AND MUL OR SWAP1 SSTORE POP PUSH1 0x20 DUP3 ADD MLOAD DUP2 PUSH1 0x1 ADD SSTORE SWAP1 POP POP DUP2 PUSH20 0xFFFFFFFFFFFFFFFFFFFFFFFFFFFFFFFFFFFFFFFF AND CALLER PUSH20 0xFFFFFFFFFFFFFFFFFFFFFFFFFFFFFFFFFFFFFFFF AND PUSH32 0x80EACB8485891D1331E1057618388E157B8496244C3B2EAB9302445007B46811 TIMESTAMP PUSH1 0x40 MLOAD PUSH2 0x45B SWAP2 SWAP1 PUSH2 0x789 JUMP JUMPDEST PUSH1 0x40 MLOAD DUP1 SWAP2 SUB SWAP1 LOG3 PUSH1 0x1 SWAP1 POP SWAP2 SWAP1 POP JUMP JUMPDEST PUSH0 PUSH0 PUSH0 DUP4 PUSH20 0xFFFFFFFFFFFFFFFFFFFFFFFFFFFFFFFFFFFFFFFF AND PUSH20 0xFFFFFFFFFFFFFFFFFFFFFFFFFFFFFFFFFFFFFFFF AND DUP2 MSTORE PUSH1 0x20 ADD SWAP1 DUP2 MSTORE PUSH1 0x20 ADD PUSH0 KECCAK256 PUSH0 ADD PUSH0 SWAP1 SLOAD SWAP1 PUSH2 0x100 EXP SWAP1 DIV PUSH20 0xFFFFFFFFFFFFFFFFFFFFFFFFFFFFFFFFFFFFFFFF AND SWAP1 POP SWAP2 SWAP1 POP JUMP JUMPDEST PUSH0 PUSH1 0x20 MSTORE DUP1 PUSH0 MSTORE PUSH1 0x40 PUSH0 KECCAK256 PUSH0 SWAP2 POP SWAP1 POP DUP1 PUSH0 ADD PUSH0 SWAP1 SLOAD SWAP1 PUSH2 0x100 EXP SWAP1 DIV PUSH20 0xFFFFFFFFFFFFFFFFFFFFFFFFFFFFFFFFFFFFFFFF AND SWAP1 DUP1 PUSH1 0x1 ADD SLOAD SWAP1 POP DUP3 JUMP JUMPDEST PUSH0 PUSH0 PUSH1 0x1 PUSH0 PUSH2 0x100 EXP DUP2 SLOAD DUP2 PUSH1 0xFF MUL NOT AND SWAP1 DUP4 ISZERO ISZERO MUL OR SWAP1 SSTORE POP CALLER PUSH20 0xFFFFFFFFFFFFFFFFFFFFFFFFFFFFFFFFFFFFFFFF AND PUSH32 0xD027F2EC970E91CE28AC9B4D8C78F89288E3B6029357E79CBD81578F250AA4A1 PUSH1 0x40 MLOAD PUSH1 0x40 MLOAD DUP1 SWAP2 SUB SWAP1 LOG2 PUSH1 0x1 SWAP1 POP SWAP1 JUMP JUMPDEST PUSH1 0x1 PUSH0 SWAP1 SLOAD SWAP1 PUSH2 0x100 EXP SWAP1 DIV PUSH1 0xFF AND DUP2 JUMP JUMPDEST PUSH0 DUP2 ISZERO ISZERO SWAP1 POP SWAP2 SWAP1 POP JUMP JUMPDEST PUSH2 0x59A DUP2 PUSH2 0x586 JUMP JUMPDEST DUP3 MSTORE POP POP JUMP JUMPDEST PUSH0 PUSH1 0x20 DUP3 ADD SWAP1 POP PUSH2 0x5B3 PUSH0 DUP4 ADD DUP5 PUSH2 0x591 JUMP JUMPDEST SWAP3 SWAP2 POP POP JUMP JUMPDEST PUSH0 PUSH0 REVERT JUMPDEST PUSH0 PUSH20 0xFFFFFFFFFFFFFFFFFFFFFFFFFFFFFFFFFFFFFFFF DUP3 AND SWAP1 POP SWAP2 SWAP1 POP JUMP JUMPDEST PUSH0 PUSH2 0x5E6 DUP3 PUSH2 0x5BD JUMP JUMPDEST SWAP1 POP SWAP2 SWAP1 POP JUMP JUMPDEST PUSH2 0x5F6 DUP2 PUSH2 0x5DC JUMP JUMPDEST DUP2 EQ PUSH2 0x600 JUMPI PUSH0 PUSH0 REVERT JUMPDEST POP JUMP JUMPDEST PUSH0 DUP2 CALLDATALOAD SWAP1 POP PUSH2 0x611 DUP2 PUSH2 0x5ED JUMP JUMPDEST SWAP3 SWAP2 POP POP JUMP JUMPDEST PUSH0 PUSH1 0x20 DUP3 DUP5 SUB SLT ISZERO PUSH2 0x62C JUMPI PUSH2 0x62B PUSH2 0x5B9 JUMP JUMPDEST JUMPDEST PUSH0 PUSH2 0x639 DUP5 DUP3 DUP6 ADD PUSH2 0x603 JUMP JUMPDEST SWAP2 POP POP SWAP3 SWAP2 POP POP JUMP JUMPDEST PUSH2 0x64B DUP2 PUSH2 0x5DC JUMP JUMPDEST DUP3 MSTORE POP POP JUMP JUMPDEST PUSH0 PUSH1 0x20 DUP3 ADD SWAP1 POP PUSH2 0x664 PUSH0 DUP4 ADD DUP5 PUSH2 0x642 JUMP JUMPDEST SWAP3 SWAP2 POP POP JUMP JUMPDEST PUSH0 DUP2 SWAP1 POP SWAP2 SWAP1 POP JUMP JUMPDEST PUSH2 0x67C DUP2 PUSH2 0x66A JUMP JUMPDEST DUP3 MSTORE POP POP JUMP JUMPDEST PUSH0 PUSH1 0x40 DUP3 ADD SWAP1 POP PUSH2 0x695 PUSH0 DUP4 ADD DUP6 PUSH2 0x642 JUMP JUMPDEST PUSH2 0x6A2 PUSH1 0x20 DUP4 ADD DUP5 PUSH2 0x673 JUMP JUMPDEST SWAP4 SWAP3 POP POP POP JUMP JUMPDEST PUSH0 DUP3 DUP3 MSTORE PUSH1 0x20 DUP3 ADD SWAP1 POP SWAP3 SWAP2 POP POP JUMP JUMPDEST PUSH32 0x20766F74696E67206973206E6F74206163746976650000000000000000000000 PUSH0 DUP3 ADD MSTORE POP JUMP JUMPDEST PUSH0 PUSH2 0x6ED PUSH1 0x15 DUP4 PUSH2 0x6A9 JUMP JUMPDEST SWAP2 POP PUSH2 0x6F8 DUP3 PUSH2 0x6B9 JUMP JUMPDEST PUSH1 0x20 DUP3 ADD SWAP1 POP SWAP2 SWAP1 POP JUMP JUMPDEST PUSH0 PUSH1 0x20 DUP3 ADD SWAP1 POP DUP2 DUP2 SUB PUSH0 DUP4 ADD MSTORE PUSH2 0x71A DUP2 PUSH2 0x6E1 JUMP JUMPDEST SWAP1 POP SWAP2 SWAP1 POP JUMP JUMPDEST PUSH32 0x566F74696E67206973206E6F7420616374697665000000000000000000000000 PUSH0 DUP3 ADD MSTORE POP JUMP JUMPDEST PUSH0 PUSH2 0x755 PUSH1 0x14 DUP4 PUSH2 0x6A9 JUMP JUMPDEST SWAP2 POP PUSH2 0x760 DUP3 PUSH2 0x721 JUMP JUMPDEST PUSH1 0x20 DUP3 ADD SWAP1 POP SWAP2 SWAP1 POP JUMP JUMPDEST PUSH0 PUSH1 0x20 DUP3 ADD SWAP1 POP DUP2 DUP2 SUB PUSH0 DUP4 ADD MSTORE PUSH2 0x782 DUP2 PUSH2 0x749 JUMP JUMPDEST SWAP1 POP SWAP2 SWAP1 POP JUMP JUMPDEST PUSH0 PUSH1 0x20 DUP3 ADD SWAP1 POP PUSH2 0x79C PUSH0 DUP4 ADD DUP5 PUSH2 0x673 JUMP JUMPDEST SWAP3 SWAP2 POP POP JUMP INVALID LOG2 PUSH5 0x6970667358 0x22 SLT KECCAK256 MUL DUP13 0xC 0x27 0x24 PUSH27 0xCF5B06B3842FBF83F09800BE04D7C1AFC87D5BE421BD33DF734464 PUSH20 0x6F6C634300081F00330000000000000000000000 "
				},
				"gasEstimates": {
					"creation": {
						"codeDepositCost": "401600",
						"executionCost": "24699",
						"totalCost": "426299"
					},
					"external": {
						"addVote(address)": "51367",
						"getVote(address)": "infinite",
						"removeVote()": "33028",
						"startVoting()": "25765",
						"stopVoting()": "25807",
						"votes(address)": "infinite",
						"voting()": "2532"
					}
				},
				"methodIdentifiers": {
					"addVote(address)": "6cea0e46",
					"getVote(address)": "8d337b81",
					"removeVote()": "49aa4ee2",
					"startVoting()": "1ec6b60a",
					"stopVoting()": "fab2f86b",
					"votes(address)": "d8bff5a5",
					"voting()": "fce1ccca"
				}
			},
			"storageLayout": {
				"storage": [
					{
						"astId": 11,
						"contract": "contracts/voting.sol:Voting",
						"label": "votes",
						"offset": 0,
						"slot": "0",
						"type": "t_mapping(t_address,t_struct(Vote)6_storage)"
					},
					{
						"astId": 13,
						"contract": "contracts/voting.sol:Voting",
						"label": "voting",
						"offset": 0,
						"slot": "1",
						"type": "t_bool"
					}
				],
				"types": {
					"t_address": {
						"encoding": "inplace",
						"label": "address",
						"numberOfBytes": "20"
					},
					"t_bool": {
						"encoding": "inplace",
						"label": "bool",
						"numberOfBytes": "1"
					},
					"t_mapping(t_address,t_struct(Vote)6_storage)": {
						"encoding": "mapping",
						"key": "t_address",
						"label": "mapping(address => struct Voting.Vote)",
						"numberOfBytes": "32",
						"value": "t_struct(Vote)6_storage"
					},
					"t_struct(Vote)6_storage": {
						"encoding": "inplace",
						"label": "struct Voting.Vote",
						"members": [
							{
								"astId": 3,
								"contract": "contracts/voting.sol:Voting",
								"label": "receiver",
								"offset": 0,
								"slot": "0",
								"type": "t_address"
							},
							{
								"astId": 5,
								"contract": "contracts/voting.sol:Voting",
								"label": "timestamp",
								"offset": 0,
								"slot": "1",
								"type": "t_uint256"
							}
						],
						"numberOfBytes": "64"
					},
					"t_uint256": {
						"encoding": "inplace",
						"label": "uint256",
						"numberOfBytes": "32"
					}
				}
			},
			"userdoc": {
				"kind": "user",
				"methods": {},
				"version": 1
			}
		}
	}
}